{
  "_format": "hh-sol-artifact-1",
  "contractName": "OpenDataRegistry",
  "sourceName": "contracts/OpenDataRegistry.sol",
  "abi": [
    {
      "inputs": [
        {
          "internalType": "contract PublisherRegistry",
          "name": "registry",
          "type": "address"
        }
      ],
      "stateMutability": "nonpayable",
      "type": "constructor"
    },
    {
      "inputs": [],
      "name": "InvalidSignature",
      "type": "error"
    },
    {
      "inputs": [
        {
          "internalType": "uint256",
          "name": "length",
          "type": "uint256"
        }
      ],
      "name": "InvalidSignatureLength",
      "type": "error"
    },
    {
      "inputs": [],
      "name": "InvalidSignatureS",
      "type": "error"
    },
    {
      "inputs": [
        {
          "internalType": "uint8",
          "name": "v",
          "type": "uint8"
        }
      ],
      "name": "InvalidSignatureV",
      "type": "error"
    },
    {
      "anonymous": false,
      "inputs": [
        {
          "indexed": true,
          "internalType": "address",
          "name": "attestationRegistry",
          "type": "address"
        }
      ],
      "name": "AttestationRegistrySet",
      "type": "event"
    },
    {
      "anonymous": false,
      "inputs": [
        {
          "indexed": true,
          "internalType": "bytes32",
          "name": "proofId",
          "type": "bytes32"
        },
        {
          "indexed": true,
          "internalType": "address",
          "name": "reviewer",
          "type": "address"
        },
        {
          "indexed": false,
          "internalType": "string",
          "name": "note",
          "type": "string"
        }
      ],
      "name": "Attested",
      "type": "event"
    },
    {
      "anonymous": false,
      "inputs": [
        {
          "indexed": true,
          "internalType": "bytes32",
          "name": "proofId",
          "type": "bytes32"
        },
        {
          "indexed": true,
          "internalType": "address",
          "name": "publisher",
          "type": "address"
        },
        {
          "indexed": false,
          "internalType": "string",
          "name": "stationId",
          "type": "string"
        },
        {
          "indexed": false,
          "internalType": "uint64",
          "name": "ts",
          "type": "uint64"
        }
      ],
      "name": "DatasetPublished",
      "type": "event"
    },
    {
      "anonymous": false,
      "inputs": [
        {
          "indexed": true,
          "internalType": "address",
          "name": "previousOwner",
          "type": "address"
        },
        {
          "indexed": true,
          "internalType": "address",
          "name": "newOwner",
          "type": "address"
        }
      ],
      "name": "OwnershipTransferred",
      "type": "event"
    },
    {
      "anonymous": false,
      "inputs": [
        {
          "indexed": true,
          "internalType": "bytes32",
          "name": "proofId",
          "type": "bytes32"
        },
        {
          "indexed": false,
          "internalType": "enum OpenDataRegistry.ProofStatus",
          "name": "status",
          "type": "uint8"
        }
      ],
      "name": "ProofStatusUpdated",
      "type": "event"
    },
    {
      "anonymous": false,
      "inputs": [
        {
          "indexed": true,
          "internalType": "bytes32",
          "name": "proofId",
          "type": "bytes32"
        },
        {
          "indexed": true,
          "internalType": "address",
          "name": "auditor",
          "type": "address"
        },
        {
          "indexed": false,
          "internalType": "string",
          "name": "reason",
          "type": "string"
        },
        {
          "indexed": false,
          "internalType": "uint64",
          "name": "ts",
          "type": "uint64"
        }
      ],
      "name": "Revoked",
      "type": "event"
    },
    {
      "inputs": [],
      "name": "attestationRegistry",
      "outputs": [
        {
          "internalType": "address",
          "name": "",
          "type": "address"
        }
      ],
      "stateMutability": "view",
      "type": "function"
    },
    {
      "inputs": [
        {
          "internalType": "bytes32",
          "name": "contentHash",
          "type": "bytes32"
        },
        {
          "internalType": "bytes32",
          "name": "metadataHash",
          "type": "bytes32"
        },
        {
          "internalType": "string",
          "name": "uri",
          "type": "string"
        },
        {
          "internalType": "string",
          "name": "version",
          "type": "string"
        },
        {
          "internalType": "string",
          "name": "stationId",
          "type": "string"
        },
        {
          "internalType": "address",
          "name": "publisher",
          "type": "address"
        }
      ],
      "name": "datasetDigest",
      "outputs": [
        {
          "internalType": "bytes32",
          "name": "",
          "type": "bytes32"
        }
      ],
      "stateMutability": "view",
      "type": "function"
    },
    {
      "inputs": [
        {
          "internalType": "string",
          "name": "stationId",
          "type": "string"
        }
      ],
      "name": "getLatestAttestedProof",
      "outputs": [
        {
          "internalType": "bytes32",
          "name": "",
          "type": "bytes32"
        }
      ],
      "stateMutability": "view",
      "type": "function"
    },
    {
      "inputs": [
        {
          "internalType": "string",
          "name": "stationId",
          "type": "string"
        }
      ],
      "name": "getLatestProof",
      "outputs": [
        {
          "internalType": "bytes32",
          "name": "",
          "type": "bytes32"
        }
      ],
      "stateMutability": "view",
      "type": "function"
    },
    {
      "inputs": [
        {
          "internalType": "bytes32",
          "name": "proofId",
          "type": "bytes32"
        }
      ],
      "name": "getProof",
      "outputs": [
        {
          "internalType": "bytes32",
          "name": "",
          "type": "bytes32"
        },
        {
          "internalType": "bytes32",
          "name": "",
          "type": "bytes32"
        },
        {
          "internalType": "address",
          "name": "",
          "type": "address"
        },
        {
          "internalType": "uint64",
          "name": "",
          "type": "uint64"
        },
        {
          "internalType": "string",
          "name": "",
          "type": "string"
        },
        {
          "internalType": "string",
          "name": "",
          "type": "string"
        },
        {
          "internalType": "string",
          "name": "",
          "type": "string"
        },
        {
          "internalType": "uint8",
          "name": "",
          "type": "uint8"
        }
      ],
      "stateMutability": "view",
      "type": "function"
    },
    {
      "inputs": [
        {
          "internalType": "bytes32",
          "name": "proofId",
          "type": "bytes32"
        }
      ],
      "name": "markAttested",
      "outputs": [],
      "stateMutability": "nonpayable",
      "type": "function"
    },
    {
      "inputs": [],
      "name": "owner",
      "outputs": [
        {
          "internalType": "address",
          "name": "",
          "type": "address"
        }
      ],
      "stateMutability": "view",
      "type": "function"
    },
    {
      "inputs": [
        {
          "internalType": "bytes32",
          "name": "proofId",
          "type": "bytes32"
        }
      ],
      "name": "proof",
      "outputs": [
        {
          "components": [
            {
              "internalType": "bytes32",
              "name": "contentHash",
              "type": "bytes32"
            },
            {
              "internalType": "bytes32",
              "name": "metadataHash",
              "type": "bytes32"
            },
            {
              "internalType": "address",
              "name": "publisher",
              "type": "address"
            },
            {
              "internalType": "uint64",
              "name": "publishedAt",
              "type": "uint64"
            },
            {
              "internalType": "string",
              "name": "uri",
              "type": "string"
            },
            {
              "internalType": "string",
              "name": "version",
              "type": "string"
            },
            {
              "internalType": "string",
              "name": "stationId",
              "type": "string"
            },
            {
              "internalType": "enum OpenDataRegistry.ProofStatus",
              "name": "status",
              "type": "uint8"
            }
          ],
          "internalType": "struct OpenDataRegistry.Proof",
          "name": "",
          "type": "tuple"
        }
      ],
      "stateMutability": "view",
      "type": "function"
    },
    {
      "inputs": [
        {
          "internalType": "bytes32",
          "name": "proofId",
          "type": "bytes32"
        }
      ],
      "name": "proofExists",
      "outputs": [
        {
          "internalType": "bool",
          "name": "",
          "type": "bool"
        }
      ],
      "stateMutability": "view",
      "type": "function"
    },
    {
      "inputs": [
        {
          "internalType": "bytes32",
          "name": "contentHash",
          "type": "bytes32"
        },
        {
          "internalType": "bytes32",
          "name": "metadataHash",
          "type": "bytes32"
        },
        {
          "internalType": "string",
          "name": "uri",
          "type": "string"
        },
        {
          "internalType": "string",
          "name": "version",
          "type": "string"
        },
        {
          "internalType": "string",
          "name": "stationId",
          "type": "string"
        },
        {
          "internalType": "bytes",
          "name": "sig",
          "type": "bytes"
        }
      ],
      "name": "publish",
      "outputs": [
        {
          "internalType": "bytes32",
          "name": "proofId",
          "type": "bytes32"
        }
      ],
      "stateMutability": "nonpayable",
      "type": "function"
    },
    {
      "inputs": [],
      "name": "publisherRegistry",
      "outputs": [
        {
          "internalType": "contract PublisherRegistry",
          "name": "",
          "type": "address"
        }
      ],
      "stateMutability": "view",
      "type": "function"
    },
    {
      "inputs": [
        {
          "internalType": "bytes32",
          "name": "proofId",
          "type": "bytes32"
        }
      ],
      "name": "revocation",
      "outputs": [
        {
          "components": [
            {
              "internalType": "address",
              "name": "auditor",
              "type": "address"
            },
            {
              "internalType": "string",
              "name": "reason",
              "type": "string"
            },
            {
              "internalType": "uint64",
              "name": "revokedAt",
              "type": "uint64"
            }
          ],
          "internalType": "struct OpenDataRegistry.Revocation",
          "name": "",
          "type": "tuple"
        }
      ],
      "stateMutability": "view",
      "type": "function"
    },
    {
      "inputs": [
        {
          "internalType": "bytes32",
          "name": "proofId",
          "type": "bytes32"
        },
        {
          "internalType": "string",
          "name": "reason",
          "type": "string"
        }
      ],
      "name": "revoke",
      "outputs": [],
      "stateMutability": "nonpayable",
      "type": "function"
    },
    {
      "inputs": [
        {
          "internalType": "address",
          "name": "registry",
          "type": "address"
        }
      ],
      "name": "setAttestationRegistry",
      "outputs": [],
      "stateMutability": "nonpayable",
      "type": "function"
    },
    {
      "inputs": [
        {
          "internalType": "bytes32",
          "name": "proofId",
          "type": "bytes32"
        }
      ],
      "name": "statusOf",
      "outputs": [
        {
          "internalType": "enum OpenDataRegistry.ProofStatus",
          "name": "",
          "type": "uint8"
        }
      ],
      "stateMutability": "view",
      "type": "function"
    },
    {
      "inputs": [
        {
          "internalType": "address",
          "name": "newOwner",
          "type": "address"
        }
      ],
      "name": "transferOwnership",
      "outputs": [],
      "stateMutability": "nonpayable",
      "type": "function"
    }
  ],
  "bytecode": "0x60a06040523480156200001157600080fd5b5060405162003c4638038062003c468339818101604052810190620000379190620001fd565b600073ffffffffffffffffffffffffffffffffffffffff168173ffffffffffffffffffffffffffffffffffffffff1603620000a9576040517f08c379a0000000000000000000000000000000000000000000000000000000008152600401620000a090620002b6565b60405180910390fd5b8073ffffffffffffffffffffffffffffffffffffffff1660808173ffffffffffffffffffffffffffffffffffffffff1681525050336000806101000a81548173ffffffffffffffffffffffffffffffffffffffff021916908373ffffffffffffffffffffffffffffffffffffffff1602179055503373ffffffffffffffffffffffffffffffffffffffff16600073ffffffffffffffffffffffffffffffffffffffff167f8be0079c531659141344cd1fd0a4f28419497f9722a3daafe3b4186f6b6457e060405160405180910390a350620002d8565b600080fd5b600073ffffffffffffffffffffffffffffffffffffffff82169050919050565b6000620001b18262000184565b9050919050565b6000620001c582620001a4565b9050919050565b620001d781620001b8565b8114620001e357600080fd5b50565b600081519050620001f781620001cc565b92915050565b6000602082840312156200021657620002156200017f565b5b60006200022684828501620001e6565b91505092915050565b600082825260208201905092915050565b7f4f70656e4461746152656769737472793a20726567697374727920726571756960008201527f7265640000000000000000000000000000000000000000000000000000000000602082015250565b60006200029e6023836200022f565b9150620002ab8262000240565b604082019050919050565b60006020820190508181036000830152620002d1816200028f565b9050919050565b608051613944620003026000396000818161050c01528181610c80015261122201526139446000f3fe608060405234801561001057600080fd5b50600436106101005760003560e01c8063b35d631511610097578063d938d20211610066578063d938d20214610300578063e1ef129d14610330578063ed6d73f91461034c578063f2fde38b1461036a57610100565b8063b35d631514610240578063bcfb013f14610270578063c7df14e2146102a0578063d64fcd55146102d057610100565b80632894ceda116100d35780632894ceda146101a45780634c5a3fda146101c25780638da5cb5b146101f2578063ad1784df1461021057610100565b806306d856001461010557806308ccbc94146101215780631b80bb3a1461013d5780632789957914610174575b600080fd5b61011f600480360381019061011a91906121b7565b610386565b005b61013b6004803603810190610136919061227f565b61050a565b005b610157600480360381019061015291906122df565b61098e565b60405161016b9897969594939291906123f9565b60405180910390f35b61018e600480360381019061018991906124e2565b610c7c565b60405161019b91906125f2565b60405180910390f35b6101ac611220565b6040516101b9919061266c565b60405180910390f35b6101dc60048036038101906101d79190612687565b611244565b6040516101e991906125f2565b60405180910390f35b6101fa6112ae565b60405161020791906126d4565b60405180910390f35b61022a60048036038101906102259190612687565b6112d2565b60405161023791906125f2565b60405180910390f35b61025a600480360381019061025591906122df565b61133c565b60405161026791906127a7565b60405180910390f35b61028a600480360381019061028591906122df565b611528565b604051610297919061290d565b60405180910390f35b6102ba60048036038101906102b591906122df565b61185c565b6040516102c7919061293e565b60405180910390f35b6102ea60048036038101906102e59190612959565b611889565b6040516102f791906125f2565b60405180910390f35b61031a600480360381019061031591906122df565b611934565b6040516103279190612a63565b60405180910390f35b61034a600480360381019061034591906122df565b6119a3565b005b610354611c71565b60405161036191906126d4565b60405180910390f35b610384600480360381019061037f91906121b7565b611c97565b005b60008054906101000a900473ffffffffffffffffffffffffffffffffffffffff1673ffffffffffffffffffffffffffffffffffffffff163373ffffffffffffffffffffffffffffffffffffffff1614610414576040517f08c379a000000000000000000000000000000000000000000000000000000000815260040161040b90612aca565b60405180910390fd5b600073ffffffffffffffffffffffffffffffffffffffff168173ffffffffffffffffffffffffffffffffffffffff1603610483576040517f08c379a000000000000000000000000000000000000000000000000000000000815260040161047a90612b5c565b60405180910390fd5b80600160006101000a81548173ffffffffffffffffffffffffffffffffffffffff021916908373ffffffffffffffffffffffffffffffffffffffff1602179055508073ffffffffffffffffffffffffffffffffffffffff167fc86c2a554686b4bc6bacaae69a2c5a41f85b5a4603db72ca062a936c4c7b1b8260405160405180910390a250565b7f000000000000000000000000000000000000000000000000000000000000000073ffffffffffffffffffffffffffffffffffffffff166395a8c58d3360046040518363ffffffff1660e01b8152600401610566929190612b7c565b602060405180830381865afa158015610583573d6000803e3d6000fd5b505050506040513d601f19601f820116820180604052508101906105a79190612bd1565b6105e6576040517f08c379a00000000000000000000000000000000000000000000000000000000081526004016105dd90612c4a565b60405180910390fd5b6000600260008581526020019081526020016000209050600073ffffffffffffffffffffffffffffffffffffffff168160020160009054906101000a900473ffffffffffffffffffffffffffffffffffffffff1673ffffffffffffffffffffffffffffffffffffffff1603610690576040517f08c379a000000000000000000000000000000000000000000000000000000000815260040161068790612cb6565b60405180910390fd5b6003808111156106a3576106a26127d8565b5b8160060160009054906101000a900460ff1660038111156106c7576106c66127d8565b5b03610707576040517f08c379a00000000000000000000000000000000000000000000000000000000081526004016106fe90612d48565b60405180910390fd5b6000838390501161074d576040517f08c379a000000000000000000000000000000000000000000000000000000000815260040161074490612dda565b60405180910390fd5b60038160060160006101000a81548160ff02191690836003811115610775576107746127d8565b5b02179055506000600360008681526020019081526020016000209050338160000160006101000a81548173ffffffffffffffffffffffffffffffffffffffff021916908373ffffffffffffffffffffffffffffffffffffffff16021790555083838260010191826107e7929190613040565b50428160020160006101000a81548167ffffffffffffffff021916908367ffffffffffffffff16021790555060006108aa83600501805461082790612e63565b80601f016020809104026020016040519081016040528092919081815260200182805461085390612e63565b80156108a05780601f10610875576101008083540402835291602001916108a0565b820191906000526020600020905b81548152906001019060200180831161088357829003601f168201915b5050505050611e51565b9050856005600083815260200190815260200160002054036108e2576000801b60056000838152602001908152602001600020819055505b3373ffffffffffffffffffffffffffffffffffffffff16867fabb6abc7c6ce0b703b088e021b4143424d0af722c3e5c19e562489595c53301487878660020160009054906101000a900467ffffffffffffffff166040516109459392919061314c565b60405180910390a3857f9610ecf8db8ddd942b5b84901cf6e98b16c69a8bdb993c655284eca368c8a998600360405161097e919061293e565b60405180910390a2505050505050565b6000806000806060806060600080600260008b81526020019081526020016000209050600073ffffffffffffffffffffffffffffffffffffffff168160020160009054906101000a900473ffffffffffffffffffffffffffffffffffffffff1673ffffffffffffffffffffffffffffffffffffffff1603610a44576040517f08c379a0000000000000000000000000000000000000000000000000000000008152600401610a3b90612cb6565b60405180910390fd5b806000015481600101548260020160009054906101000a900473ffffffffffffffffffffffffffffffffffffffff168360020160149054906101000a900467ffffffffffffffff168460030185600401866005018760060160009054906101000a900460ff166003811115610abc57610abb6127d8565b5b838054610ac890612e63565b80601f0160208091040260200160405190810160405280929190818152602001828054610af490612e63565b8015610b415780601f10610b1657610100808354040283529160200191610b41565b820191906000526020600020905b815481529060010190602001808311610b2457829003601f168201915b50505050509350828054610b5490612e63565b80601f0160208091040260200160405190810160405280929190818152602001828054610b8090612e63565b8015610bcd5780601f10610ba257610100808354040283529160200191610bcd565b820191906000526020600020905b815481529060010190602001808311610bb057829003601f168201915b50505050509250818054610be090612e63565b80601f0160208091040260200160405190810160405280929190818152602001828054610c0c90612e63565b8015610c595780601f10610c2e57610100808354040283529160200191610c59565b820191906000526020600020905b815481529060010190602001808311610c3c57829003601f168201915b505050505091509850985098509850985098509850985050919395975091939597565b60007f000000000000000000000000000000000000000000000000000000000000000073ffffffffffffffffffffffffffffffffffffffff166395a8c58d3360016040518363ffffffff1660e01b8152600401610cda929190612b7c565b602060405180830381865afa158015610cf7573d6000803e3d6000fd5b505050506040513d601f19601f82011682018060405250810190610d1b9190612bd1565b610d5a576040517f08c379a0000000000000000000000000000000000000000000000000000000008152600401610d51906131ca565b60405180910390fd5b60008989905011610da0576040517f08c379a0000000000000000000000000000000000000000000000000000000008152600401610d9790613236565b60405180910390fd5b60008787905011610de6576040517f08c379a0000000000000000000000000000000000000000000000000000000008152600401610ddd906132c8565b60405180910390fd5b60008585905011610e2c576040517f08c379a0000000000000000000000000000000000000000000000000000000008152600401610e239061335a565b60405180910390fd5b6000610e3f8c8c8c8c8c8c8c8c33611889565b90506000610ea285858080601f016020809104026020016040519081016040528093929190818152602001838380828437600081840152601f19601f82011690508083019250505050505050610e9484611e62565b611e9290919063ffffffff16565b90503373ffffffffffffffffffffffffffffffffffffffff168173ffffffffffffffffffffffffffffffffffffffff1614610f12576040517f08c379a0000000000000000000000000000000000000000000000000000000008152600401610f09906133ec565b60405180910390fd5b46338e8e8e8e604051610f2692919061343c565b604051809103902042604051602001610f44969594939291906134df565b604051602081830303815290604052805190602001209250600073ffffffffffffffffffffffffffffffffffffffff166002600085815260200190815260200160002060020160009054906101000a900473ffffffffffffffffffffffffffffffffffffffff1673ffffffffffffffffffffffffffffffffffffffff1614611001576040517f08c379a0000000000000000000000000000000000000000000000000000000008152600401610ff89061359b565b60405180910390fd5b60006002600085815260200190815260200160002090508d81600001819055508c8160010181905550338160020160006101000a81548173ffffffffffffffffffffffffffffffffffffffff021916908373ffffffffffffffffffffffffffffffffffffffff160217905550428160020160146101000a81548167ffffffffffffffff021916908367ffffffffffffffff1602179055508b8b8260030191826110ab929190613040565b5089898260040191826110bf929190613040565b5087878260050191826110d3929190613040565b5060018160060160006101000a81548160ff021916908360038111156110fc576110fb6127d8565b5b0217905550600061115089898080601f016020809104026020016040519081016040528093929190818152602001838380828437600081840152601f19601f82011690508083019250505050505050611e51565b90508460046000838152602001908152602001600020819055503373ffffffffffffffffffffffffffffffffffffffff16857f94114cb38d605c7eb3d30ef861b2035fa6a7a1d6677b0b8ddfa391e05f7a93f88b8b8660020160149054906101000a900467ffffffffffffffff166040516111cd9392919061314c565b60405180910390a3847f9610ecf8db8ddd942b5b84901cf6e98b16c69a8bdb993c655284eca368c8a9986001604051611206919061293e565b60405180910390a2505050509a9950505050505050505050565b7f000000000000000000000000000000000000000000000000000000000000000081565b60006005600061129785858080601f016020809104026020016040519081016040528093929190818152602001838380828437600081840152601f19601f82011690508083019250505050505050611e51565b815260200190815260200160002054905092915050565b60008054906101000a900473ffffffffffffffffffffffffffffffffffffffff1681565b60006004600061132585858080601f016020809104026020016040519081016040528093929190818152602001838380828437600081840152601f19601f82011690508083019250505050505050611e51565b815260200190815260200160002054905092915050565b611344612091565b600073ffffffffffffffffffffffffffffffffffffffff166002600084815260200190815260200160002060020160009054906101000a900473ffffffffffffffffffffffffffffffffffffffff1673ffffffffffffffffffffffffffffffffffffffff16036113e9576040517f08c379a00000000000000000000000000000000000000000000000000000000081526004016113e090612cb6565b60405180910390fd5b600360008381526020019081526020016000206040518060600160405290816000820160009054906101000a900473ffffffffffffffffffffffffffffffffffffffff1673ffffffffffffffffffffffffffffffffffffffff1673ffffffffffffffffffffffffffffffffffffffff16815260200160018201805461146d90612e63565b80601f016020809104026020016040519081016040528092919081815260200182805461149990612e63565b80156114e65780601f106114bb576101008083540402835291602001916114e6565b820191906000526020600020905b8154815290600101906020018083116114c957829003601f168201915b505050505081526020016002820160009054906101000a900467ffffffffffffffff1667ffffffffffffffff1667ffffffffffffffff16815250509050919050565b6115306120d2565b6000600260008481526020019081526020016000206040518061010001604052908160008201548152602001600182015481526020016002820160009054906101000a900473ffffffffffffffffffffffffffffffffffffffff1673ffffffffffffffffffffffffffffffffffffffff1673ffffffffffffffffffffffffffffffffffffffff1681526020016002820160149054906101000a900467ffffffffffffffff1667ffffffffffffffff1667ffffffffffffffff1681526020016003820180546115fd90612e63565b80601f016020809104026020016040519081016040528092919081815260200182805461162990612e63565b80156116765780601f1061164b57610100808354040283529160200191611676565b820191906000526020600020905b81548152906001019060200180831161165957829003601f168201915b5050505050815260200160048201805461168f90612e63565b80601f01602080910402602001604051908101604052809291908181526020018280546116bb90612e63565b80156117085780601f106116dd57610100808354040283529160200191611708565b820191906000526020600020905b8154815290600101906020018083116116eb57829003601f168201915b5050505050815260200160058201805461172190612e63565b80601f016020809104026020016040519081016040528092919081815260200182805461174d90612e63565b801561179a5780601f1061176f5761010080835404028352916020019161179a565b820191906000526020600020905b81548152906001019060200180831161177d57829003601f168201915b505050505081526020016006820160009054906101000a900460ff1660038111156117c8576117c76127d8565b5b60038111156117da576117d96127d8565b5b815250509050600073ffffffffffffffffffffffffffffffffffffffff16816040015173ffffffffffffffffffffffffffffffffffffffff1603611853576040517f08c379a000000000000000000000000000000000000000000000000000000000815260040161184a90612cb6565b60405180910390fd5b80915050919050565b60006002600083815260200190815260200160002060060160009054906101000a900460ff169050919050565b60007f64abccc050fb1a3643f6943d85819f8427037f62316222a448b9d3f52bdcf1f48a8a8a8a6040516118be92919061343c565b604051809103902089896040516118d692919061343c565b604051809103902088886040516118ee92919061343c565b6040518091039020873060405160200161190f9897969594939291906135bb565b6040516020818303038152906040528051906020012090509998505050505050505050565b60008073ffffffffffffffffffffffffffffffffffffffff166002600084815260200190815260200160002060020160009054906101000a900473ffffffffffffffffffffffffffffffffffffffff1673ffffffffffffffffffffffffffffffffffffffff1614159050919050565b600160009054906101000a900473ffffffffffffffffffffffffffffffffffffffff1673ffffffffffffffffffffffffffffffffffffffff163373ffffffffffffffffffffffffffffffffffffffff1614611a33576040517f08c379a0000000000000000000000000000000000000000000000000000000008152600401611a2a906136ab565b60405180910390fd5b6000600260008381526020019081526020016000209050600073ffffffffffffffffffffffffffffffffffffffff168160020160009054906101000a900473ffffffffffffffffffffffffffffffffffffffff1673ffffffffffffffffffffffffffffffffffffffff1603611add576040517f08c379a0000000000000000000000000000000000000000000000000000000008152600401611ad490612cb6565b60405180910390fd5b60016003811115611af157611af06127d8565b5b8160060160009054906101000a900460ff166003811115611b1557611b146127d8565b5b14611b55576040517f08c379a0000000000000000000000000000000000000000000000000000000008152600401611b4c90613717565b60405180910390fd5b60028160060160006101000a81548160ff02191690836003811115611b7d57611b7c6127d8565b5b02179055506000611c19826005018054611b9690612e63565b80601f0160208091040260200160405190810160405280929190818152602001828054611bc290612e63565b8015611c0f5780601f10611be457610100808354040283529160200191611c0f565b820191906000526020600020905b815481529060010190602001808311611bf257829003601f168201915b5050505050611e51565b9050826005600083815260200190815260200160002081905550827f9610ecf8db8ddd942b5b84901cf6e98b16c69a8bdb993c655284eca368c8a9986002604051611c64919061293e565b60405180910390a2505050565b600160009054906101000a900473ffffffffffffffffffffffffffffffffffffffff1681565b60008054906101000a900473ffffffffffffffffffffffffffffffffffffffff1673ffffffffffffffffffffffffffffffffffffffff163373ffffffffffffffffffffffffffffffffffffffff1614611d25576040517f08c379a0000000000000000000000000000000000000000000000000000000008152600401611d1c90612aca565b60405180910390fd5b600073ffffffffffffffffffffffffffffffffffffffff168173ffffffffffffffffffffffffffffffffffffffff1603611d94576040517f08c379a0000000000000000000000000000000000000000000000000000000008152600401611d8b90613783565b60405180910390fd5b8073ffffffffffffffffffffffffffffffffffffffff1660008054906101000a900473ffffffffffffffffffffffffffffffffffffffff1673ffffffffffffffffffffffffffffffffffffffff167f8be0079c531659141344cd1fd0a4f28419497f9722a3daafe3b4186f6b6457e060405160405180910390a3806000806101000a81548173ffffffffffffffffffffffffffffffffffffffff021916908373ffffffffffffffffffffffffffffffffffffffff16021790555050565b600081805190602001209050919050565b600081604051602001611e7591906137fa565b604051602081830303815290604052805190602001209050919050565b60006041825114611edb5781516040517f2c33b568000000000000000000000000000000000000000000000000000000008152600401611ed2919061382f565b60405180910390fd5b60008060006020850151925060408501519150606085015160001a90507f7fffffffffffffffffffffffffffffff5d576e7357a4501ddfe92f46681b20a08260001c1115611f55576040517fbf4bf5b800000000000000000000000000000000000000000000000000000000815260040160405180910390fd5b601b8160ff161015611f7157601b81611f6e9190613879565b90505b601b8160ff1614158015611f895750601c8160ff1614155b15611fcb57806040517fba76ff02000000000000000000000000000000000000000000000000000000008152600401611fc291906138ae565b60405180910390fd5b600060018783868660405160008152602001604052604051611ff094939291906138c9565b6020604051602081039080840390855afa158015612012573d6000803e3d6000fd5b505050602060405103519050600073ffffffffffffffffffffffffffffffffffffffff168173ffffffffffffffffffffffffffffffffffffffff1603612084576040517f8baa579f00000000000000000000000000000000000000000000000000000000815260040160405180910390fd5b8094505050505092915050565b6040518060600160405280600073ffffffffffffffffffffffffffffffffffffffff16815260200160608152602001600067ffffffffffffffff1681525090565b6040518061010001604052806000801916815260200160008019168152602001600073ffffffffffffffffffffffffffffffffffffffff168152602001600067ffffffffffffffff16815260200160608152602001606081526020016060815260200160006003811115612149576121486127d8565b5b81525090565b600080fd5b600080fd5b600073ffffffffffffffffffffffffffffffffffffffff82169050919050565b600061218482612159565b9050919050565b61219481612179565b811461219f57600080fd5b50565b6000813590506121b18161218b565b92915050565b6000602082840312156121cd576121cc61214f565b5b60006121db848285016121a2565b91505092915050565b6000819050919050565b6121f7816121e4565b811461220257600080fd5b50565b600081359050612214816121ee565b92915050565b600080fd5b600080fd5b600080fd5b60008083601f84011261223f5761223e61221a565b5b8235905067ffffffffffffffff81111561225c5761225b61221f565b5b60208301915083600182028301111561227857612277612224565b5b9250929050565b6000806000604084860312156122985761229761214f565b5b60006122a686828701612205565b935050602084013567ffffffffffffffff8111156122c7576122c6612154565b5b6122d386828701612229565b92509250509250925092565b6000602082840312156122f5576122f461214f565b5b600061230384828501612205565b91505092915050565b612315816121e4565b82525050565b61232481612179565b82525050565b600067ffffffffffffffff82169050919050565b6123478161232a565b82525050565b600081519050919050565b600082825260208201905092915050565b60005b8381101561238757808201518184015260208101905061236c565b60008484015250505050565b6000601f19601f8301169050919050565b60006123af8261234d565b6123b98185612358565b93506123c9818560208601612369565b6123d281612393565b840191505092915050565b600060ff82169050919050565b6123f3816123dd565b82525050565b60006101008201905061240f600083018b61230c565b61241c602083018a61230c565b612429604083018961231b565b612436606083018861233e565b818103608083015261244881876123a4565b905081810360a083015261245c81866123a4565b905081810360c083015261247081856123a4565b905061247f60e08301846123ea565b9998505050505050505050565b60008083601f8401126124a2576124a161221a565b5b8235905067ffffffffffffffff8111156124bf576124be61221f565b5b6020830191508360018202830111156124db576124da612224565b5b9250929050565b60008060008060008060008060008060c08b8d0312156125055761250461214f565b5b60006125138d828e01612205565b9a505060206125248d828e01612205565b99505060408b013567ffffffffffffffff81111561254557612544612154565b5b6125518d828e01612229565b985098505060608b013567ffffffffffffffff81111561257457612573612154565b5b6125808d828e01612229565b965096505060808b013567ffffffffffffffff8111156125a3576125a2612154565b5b6125af8d828e01612229565b945094505060a08b013567ffffffffffffffff8111156125d2576125d1612154565b5b6125de8d828e0161248c565b92509250509295989b9194979a5092959850565b6000602082019050612607600083018461230c565b92915050565b6000819050919050565b600061263261262d61262884612159565b61260d565b612159565b9050919050565b600061264482612617565b9050919050565b600061265682612639565b9050919050565b6126668161264b565b82525050565b6000602082019050612681600083018461265d565b92915050565b6000806020838503121561269e5761269d61214f565b5b600083013567ffffffffffffffff8111156126bc576126bb612154565b5b6126c885828601612229565b92509250509250929050565b60006020820190506126e9600083018461231b565b92915050565b6126f881612179565b82525050565b600082825260208201905092915050565b600061271a8261234d565b61272481856126fe565b9350612734818560208601612369565b61273d81612393565b840191505092915050565b6127518161232a565b82525050565b600060608301600083015161276f60008601826126ef565b5060208301518482036020860152612787828261270f565b915050604083015161279c6040860182612748565b508091505092915050565b600060208201905081810360008301526127c18184612757565b905092915050565b6127d2816121e4565b82525050565b7f4e487b7100000000000000000000000000000000000000000000000000000000600052602160045260246000fd5b60048110612818576128176127d8565b5b50565b600081905061282982612807565b919050565b60006128398261281b565b9050919050565b6128498161282e565b82525050565b60006101008301600083015161286860008601826127c9565b50602083015161287b60208601826127c9565b50604083015161288e60408601826126ef565b5060608301516128a16060860182612748565b50608083015184820360808601526128b9828261270f565b91505060a083015184820360a08601526128d3828261270f565b91505060c083015184820360c08601526128ed828261270f565b91505060e083015161290260e0860182612840565b508091505092915050565b60006020820190508181036000830152612927818461284f565b905092915050565b6129388161282e565b82525050565b6000602082019050612953600083018461292f565b92915050565b600080600080600080600080600060c08a8c03121561297b5761297a61214f565b5b60006129898c828d01612205565b995050602061299a8c828d01612205565b98505060408a013567ffffffffffffffff8111156129bb576129ba612154565b5b6129c78c828d01612229565b975097505060608a013567ffffffffffffffff8111156129ea576129e9612154565b5b6129f68c828d01612229565b955095505060808a013567ffffffffffffffff811115612a1957612a18612154565b5b612a258c828d01612229565b935093505060a0612a388c828d016121a2565b9150509295985092959850929598565b60008115159050919050565b612a5d81612a48565b82525050565b6000602082019050612a786000830184612a54565b92915050565b7f4f70656e4461746152656769737472793a206e6f74206f776e65720000000000600082015250565b6000612ab4601b83612358565b9150612abf82612a7e565b602082019050919050565b60006020820190508181036000830152612ae381612aa7565b9050919050565b7f4f70656e4461746152656769737472793a207a65726f2061747465737461746960008201527f6f6e207265676973747279000000000000000000000000000000000000000000602082015250565b6000612b46602b83612358565b9150612b5182612aea565b604082019050919050565b60006020820190508181036000830152612b7581612b39565b9050919050565b6000604082019050612b91600083018561231b565b612b9e60208301846123ea565b9392505050565b612bae81612a48565b8114612bb957600080fd5b50565b600081519050612bcb81612ba5565b92915050565b600060208284031215612be757612be661214f565b5b6000612bf584828501612bbc565b91505092915050565b7f4f70656e4461746152656769737472793a206e6f742061756469746f72000000600082015250565b6000612c34601d83612358565b9150612c3f82612bfe565b602082019050919050565b60006020820190508181036000830152612c6381612c27565b9050919050565b7f4f70656e4461746152656769737472793a20756e6b6e6f776e2070726f6f6600600082015250565b6000612ca0601f83612358565b9150612cab82612c6a565b602082019050919050565b60006020820190508181036000830152612ccf81612c93565b9050919050565b7f4f70656e4461746152656769737472793a20616c7265616479207265766f6b6560008201527f6400000000000000000000000000000000000000000000000000000000000000602082015250565b6000612d32602183612358565b9150612d3d82612cd6565b604082019050919050565b60006020820190508181036000830152612d6181612d25565b9050919050565b7f4f70656e4461746152656769737472793a20726561736f6e207265717569726560008201527f6400000000000000000000000000000000000000000000000000000000000000602082015250565b6000612dc4602183612358565b9150612dcf82612d68565b604082019050919050565b60006020820190508181036000830152612df381612db7565b9050919050565b600082905092915050565b7f4e487b7100000000000000000000000000000000000000000000000000000000600052604160045260246000fd5b7f4e487b7100000000000000000000000000000000000000000000000000000000600052602260045260246000fd5b60006002820490506001821680612e7b57607f821691505b602082108103612e8e57612e8d612e34565b5b50919050565b60008190508160005260206000209050919050565b60006020601f8301049050919050565b600082821b905092915050565b600060088302612ef67fffffffffffffffffffffffffffffffffffffffffffffffffffffffffffffffff82612eb9565b612f008683612eb9565b95508019841693508086168417925050509392505050565b6000819050919050565b6000612f3d612f38612f3384612f18565b61260d565b612f18565b9050919050565b6000819050919050565b612f5783612f22565b612f6b612f6382612f44565b848454612ec6565b825550505050565b600090565b612f80612f73565b612f8b818484612f4e565b505050565b5b81811015612faf57612fa4600082612f78565b600181019050612f91565b5050565b601f821115612ff457612fc581612e94565b612fce84612ea9565b81016020851015612fdd578190505b612ff1612fe985612ea9565b830182612f90565b50505b505050565b600082821c905092915050565b600061301760001984600802612ff9565b1980831691505092915050565b60006130308383613006565b9150826002028217905092915050565b61304a8383612dfa565b67ffffffffffffffff81111561306357613062612e05565b5b61306d8254612e63565b613078828285612fb3565b6000601f8311600181146130a75760008415613095578287013590505b61309f8582613024565b865550613107565b601f1984166130b586612e94565b60005b828110156130dd578489013582556001820191506020850194506020810190506130b8565b868310156130fa57848901356130f6601f891682613006565b8355505b6001600288020188555050505b50505050505050565b82818337600083830152505050565b600061312b8385612358565b9350613138838584613110565b61314183612393565b840190509392505050565b6000604082019050818103600083015261316781858761311f565b9050613176602083018461233e565b949350505050565b7f4f70656e4461746152656769737472793a206e6f74207075626c697368657200600082015250565b60006131b4601f83612358565b91506131bf8261317e565b602082019050919050565b600060208201905081810360008301526131e3816131a7565b9050919050565b7f4f70656e4461746152656769737472793a207572692072657175697265640000600082015250565b6000613220601e83612358565b915061322b826131ea565b602082019050919050565b6000602082019050818103600083015261324f81613213565b9050919050565b7f4f70656e4461746152656769737472793a2076657273696f6e2072657175697260008201527f6564000000000000000000000000000000000000000000000000000000000000602082015250565b60006132b2602283612358565b91506132bd82613256565b604082019050919050565b600060208201905081810360008301526132e1816132a5565b9050919050565b7f4f70656e4461746152656769737472793a2073746174696f6e4964207265717560008201527f6972656400000000000000000000000000000000000000000000000000000000602082015250565b6000613344602483612358565b915061334f826132e8565b604082019050919050565b6000602082019050818103600083015261337381613337565b9050919050565b7f4f70656e4461746152656769737472793a20696e76616c6964207369676e617460008201527f7572650000000000000000000000000000000000000000000000000000000000602082015250565b60006133d6602383612358565b91506133e18261337a565b604082019050919050565b60006020820190508181036000830152613405816133c9565b9050919050565b600081905092915050565b6000613423838561340c565b9350613430838584613110565b82840190509392505050565b6000613449828486613417565b91508190509392505050565b6000819050919050565b61347061346b82612f18565b613455565b82525050565b60008160601b9050919050565b600061348e82613476565b9050919050565b60006134a082613483565b9050919050565b6134b86134b382612179565b613495565b82525050565b6000819050919050565b6134d96134d4826121e4565b6134be565b82525050565b60006134eb828961345f565b6020820191506134fb82886134a7565b60148201915061350b82876134c8565b60208201915061351b82866134c8565b60208201915061352b82856134c8565b60208201915061353b828461345f565b602082019150819050979650505050505050565b7f4f70656e4461746152656769737472793a2070726f6f66206578697374730000600082015250565b6000613585601e83612358565b91506135908261354f565b602082019050919050565b600060208201905081810360008301526135b481613578565b9050919050565b6000610100820190506135d1600083018b61230c565b6135de602083018a61230c565b6135eb604083018961230c565b6135f8606083018861230c565b613605608083018761230c565b61361260a083018661230c565b61361f60c083018561231b565b61362c60e083018461231b565b9998505050505050505050565b7f4f70656e4461746152656769737472793a206e6f74206174746573746174696f60008201527f6e20726567697374727900000000000000000000000000000000000000000000602082015250565b6000613695602a83612358565b91506136a082613639565b604082019050919050565b600060208201905081810360008301526136c481613688565b9050919050565b7f4f70656e4461746152656769737472793a20696e76616c696420737461747573600082015250565b6000613701602083612358565b915061370c826136cb565b602082019050919050565b60006020820190508181036000830152613730816136f4565b9050919050565b7f4f70656e4461746152656769737472793a207a65726f206f776e657200000000600082015250565b600061376d601c83612358565b915061377882613737565b602082019050919050565b6000602082019050818103600083015261379c81613760565b9050919050565b600081905092915050565b7f19457468657265756d205369676e6564204d6573736167653a0a333200000000600082015250565b60006137e4601c836137a3565b91506137ef826137ae565b601c82019050919050565b6000613805826137d7565b915061381182846134c8565b60208201915081905092915050565b61382981612f18565b82525050565b60006020820190506138446000830184613820565b92915050565b7f4e487b7100000000000000000000000000000000000000000000000000000000600052601160045260246000fd5b6000613884826123dd565b915061388f836123dd565b9250828201905060ff8111156138a8576138a761384a565b5b92915050565b60006020820190506138c360008301846123ea565b92915050565b60006080820190506138de600083018761230c565b6138eb60208301866123ea565b6138f8604083018561230c565b613905606083018461230c565b9594505050505056fea2646970667358221220326bea79c06a0ff97d6523d33401fdaa96c5ad77dd65c6b47f6a1664d055c40d64736f6c63430008140033",
  "linkReferences": {},
  "deployedLinkReferences": {}
}