{"contracts/programs/modules/ProgramModule_IoT.sol":{"ProgramModule_IoT":{"abi":[{"inputs":[{"internalType":"contract FundRegistry","name":"registry_","type":"address"},{"internalType":"uint256","name":"programId_","type":"uint256"},{"internalType":"uint256","name":"minCoveragePermille_","type":"uint256"},{"internalType":"uint256","name":"bonusCoveragePermille_","type":"uint256"},{"internalType":"uint256","name":"weeklyAllocationNTD_","type":"uint256"}],"stateMutability":"nonpayable","type":"constructor"},{"inputs":[],"name":"InvalidAmount","type":"error"},{"inputs":[],"name":"InvalidRecipient","type":"error"},{"inputs":[{"internalType":"bytes32","name":"proofId","type":"bytes32"}],"name":"NotEligible","type":"error"},{"inputs":[{"internalType":"bytes32","name":"proofId","type":"bytes32"}],"name":"ProofAlreadyConsumed","type":"error"},{"anonymous":false,"inputs":[{"indexed":true,"internalType":"uint256","name":"programId","type":"uint256"},{"indexed":true,"internalType":"bytes32","name":"proofId","type":"bytes32"},{"indexed":true,"internalType":"address","name":"recipient","type":"address"},{"indexed":false,"internalType":"uint256","name":"amountNTD","type":"uint256"}],"name":"EligibilityIssued","type":"event"},{"anonymous":false,"inputs":[{"indexed":true,"internalType":"uint256","name":"programId","type":"uint256"},{"indexed":true,"internalType":"bytes32","name":"proofId","type":"bytes32"},{"indexed":true,"internalType":"address","name":"recipient","type":"address"},{"indexed":false,"internalType":"uint256","name":"amountNTD","type":"uint256"}],"name":"PayoutExecuted","type":"event"},{"inputs":[],"name":"bonusCoveragePermille","outputs":[{"internalType":"uint256","name":"","type":"uint256"}],"stateMutability":"view","type":"function"},{"inputs":[{"components":[{"internalType":"bytes32","name":"proofId","type":"bytes32"},{"internalType":"address","name":"recipient","type":"address"},{"internalType":"uint256","name":"amountNTD","type":"uint256"},{"internalType":"uint256","name":"coveragePermille","type":"uint256"},{"internalType":"uint256","name":"eventsProcessed","type":"uint256"},{"internalType":"uint256","name":"cemsValidPermille","type":"uint256"},{"internalType":"uint256","name":"pm25x10","type":"uint256"}],"internalType":"struct ProgramModule_Base.EvaluationProof","name":"proof","type":"tuple"}],"name":"evaluate","outputs":[{"internalType":"bool","name":"","type":"bool"}],"stateMutability":"nonpayable","type":"function"},{"inputs":[{"internalType":"bytes32","name":"proofId","type":"bytes32"}],"name":"hasConsumed","outputs":[{"internalType":"bool","name":"","type":"bool"}],"stateMutability":"view","type":"function"},{"inputs":[],"name":"minCoveragePermille","outputs":[{"internalType":"uint256","name":"","type":"uint256"}],"stateMutability":"view","type":"function"},{"inputs":[],"name":"programId","outputs":[{"internalType":"uint256","name":"","type":"uint256"}],"stateMutability":"view","type":"function"},{"inputs":[],"name":"registry","outputs":[{"internalType":"contract FundRegistry","name":"","type":"address"}],"stateMutability":"view","type":"function"},{"inputs":[],"name":"weeklyAllocationNTD","outputs":[{"internalType":"uint256","name":"","type":"uint256"}],"stateMutability":"view","type":"function"}],"evm":{"bytecode":{"linkReferences":{},"object":"6101206040523480156200001257600080fd5b5060405162000df738038062000df7833981810160405281019062000038919062000227565b84848173ffffffffffffffffffffffffffffffffffffffff1660808173ffffffffffffffffffffffffffffffffffffffff16815250508060a08181525050505060008311620000be576040517f08c379a0000000000000000000000000000000000000000000000000000000008152600401620000b59062000310565b60405180910390fd5b8282101562000104576040517f08c379a0000000000000000000000000000000000000000000000000000000008152600401620000fb9062000382565b60405180910390fd5b600081116200014a576040517f08c379a00000000000000000000000000000000000000000000000000000000081526004016200014190620003f4565b60405180910390fd5b8260c081815250508160e08181525050806101008181525050505050505062000416565b600080fd5b600073ffffffffffffffffffffffffffffffffffffffff82169050919050565b6000620001a08262000173565b9050919050565b6000620001b48262000193565b9050919050565b620001c681620001a7565b8114620001d257600080fd5b50565b600081519050620001e681620001bb565b92915050565b6000819050919050565b6200020181620001ec565b81146200020d57600080fd5b50565b6000815190506200022181620001f6565b92915050565b600080600080600060a086880312156200024657620002456200016e565b5b60006200025688828901620001d5565b9550506020620002698882890162000210565b94505060406200027c8882890162000210565b93505060606200028f8882890162000210565b9250506080620002a28882890162000210565b9150509295509295909350565b600082825260208201905092915050565b7f496f543a6d696e20636f76657261676500000000000000000000000000000000600082015250565b6000620002f8601083620002af565b91506200030582620002c0565b602082019050919050565b600060208201905081810360008301526200032b81620002e9565b9050919050565b7f496f543a626f6e7573203c206d696e0000000000000000000000000000000000600082015250565b60006200036a600f83620002af565b9150620003778262000332565b602082019050919050565b600060208201905081810360008301526200039d816200035b565b9050919050565b7f496f543a616c6c6f636174696f6e000000000000000000000000000000000000600082015250565b6000620003dc600e83620002af565b9150620003e982620003a4565b602082019050919050565b600060208201905081810360008301526200040f81620003cd565b9050919050565b60805160a05160c05160e0516101005161096b6200048c6000396000818161017a015261063a0152600061058601526000818161051a015281816105d5015261060501526000818161037301528181610407015281816104b801526105620152600081816103cb015261053e015261096b6000f3fe608060405234801561001057600080fd5b506004361061007d5760003560e01c80637b1039991161005b5780637b103999146100ee57806398812da81461010c5780639cba51a21461012a578063e55faa91146101485761007d565b806307d1dcda1461008257806326703071146100a05780634036b738146100d0575b600080fd5b61008a610178565b604051610097919061067a565b60405180910390f35b6100ba60048036038101906100b591906106be565b61019c565b6040516100c79190610706565b60405180910390f35b6100d8610518565b6040516100e5919061067a565b60405180910390f35b6100f661053c565b60405161010391906107a0565b60405180910390f35b610114610560565b604051610121919061067a565b60405180910390f35b610132610584565b60405161013f919061067a565b60405180910390f35b610162600480360381019061015d91906107f1565b6105a8565b60405161016f9190610706565b60405180910390f35b7f000000000000000000000000000000000000000000000000000000000000000081565b60008073ffffffffffffffffffffffffffffffffffffffff168260200160208101906101c8919061085c565b73ffffffffffffffffffffffffffffffffffffffff1603610215576040517f9c8d2cd200000000000000000000000000000000000000000000000000000000815260040160405180910390fd5b6000808360000135815260200190815260200160002060009054906101000a900460ff161561027f5781600001356040517ffab54c750000000000000000000000000000000000000000000000000000000081526004016102769190610898565b60405180910390fd5b610288826105d1565b6102cd5781600001356040517f267e72d20000000000000000000000000000000000000000000000000000000081526004016102c49190610898565b60405180910390fd5b60006102d883610601565b905060008103610314576040517f2c5211c600000000000000000000000000000000000000000000000000000000815260040160405180910390fd5b60016000808560000135815260200190815260200160002060006101000a81548160ff021916908315150217905550826020016020810190610356919061085c565b73ffffffffffffffffffffffffffffffffffffffff1683600001357f00000000000000000000000000000000000000000000000000000000000000007f043b3cee5744e37d76c9a376b11c2427cc9e9b2c4f7e48694ed9ba390adc2847846040516103c1919061067a565b60405180910390a47f000000000000000000000000000000000000000000000000000000000000000073ffffffffffffffffffffffffffffffffffffffff16634ccb80337f0000000000000000000000000000000000000000000000000000000000000000836040518363ffffffff1660e01b81526004016104449291906108b3565b6020604051808303816000875af1158015610463573d6000803e3d6000fd5b505050506040513d601f19601f820116820180604052508101906104879190610908565b5082602001602081019061049b919061085c565b73ffffffffffffffffffffffffffffffffffffffff1683600001357f00000000000000000000000000000000000000000000000000000000000000007f0f2ea0a74181d7700ed2292591f608309e18d84a8dc664ead83b9482e727914684604051610506919061067a565b60405180910390a46001915050919050565b7f000000000000000000000000000000000000000000000000000000000000000081565b7f000000000000000000000000000000000000000000000000000000000000000081565b7f000000000000000000000000000000000000000000000000000000000000000081565b7f000000000000000000000000000000000000000000000000000000000000000081565b600080600083815260200190815260200160002060009054906101000a900460ff169050919050565b60007f00000000000000000000000000000000000000000000000000000000000000008260600135119050919050565b60007f000000000000000000000000000000000000000000000000000000000000000082606001351015610638576000905061065c565b7f000000000000000000000000000000000000000000000000000000000000000090505b919050565b6000819050919050565b61067481610661565b82525050565b600060208201905061068f600083018461066b565b92915050565b600080fd5b600080fd5b600060e082840312156106b5576106b461069a565b5b81905092915050565b600060e082840312156106d4576106d3610695565b5b60006106e28482850161069f565b91505092915050565b60008115159050919050565b610700816106eb565b82525050565b600060208201905061071b60008301846106f7565b92915050565b600073ffffffffffffffffffffffffffffffffffffffff82169050919050565b6000819050919050565b600061076661076161075c84610721565b610741565b610721565b9050919050565b60006107788261074b565b9050919050565b600061078a8261076d565b9050919050565b61079a8161077f565b82525050565b60006020820190506107b56000830184610791565b92915050565b6000819050919050565b6107ce816107bb565b81146107d957600080fd5b50565b6000813590506107eb816107c5565b92915050565b60006020828403121561080757610806610695565b5b6000610815848285016107dc565b91505092915050565b600061082982610721565b9050919050565b6108398161081e565b811461084457600080fd5b50565b60008135905061085681610830565b92915050565b60006020828403121561087257610871610695565b5b600061088084828501610847565b91505092915050565b610892816107bb565b82525050565b60006020820190506108ad6000830184610889565b92915050565b60006040820190506108c8600083018561066b565b6108d5602083018461066b565b9392505050565b6108e581610661565b81146108f057600080fd5b50565b600081519050610902816108dc565b92915050565b60006020828403121561091e5761091d610695565b5b600061092c848285016108f3565b9150509291505056fea264697066735822122044c4dd1c9d987d13344aff9149f5965e501397b1697428b1bb2aad3344e99c2564736f6c63430008140033","opcodes":"PUSH2 0x120 PUSH1 0x40 MSTORE CALLVALUE DUP1 ISZERO PUSH3 0x12 JUMPI PUSH1 0x0 DUP1 REVERT JUMPDEST POP PUSH1 0x40 MLOAD PUSH3 0xDF7 CODESIZE SUB DUP1 PUSH3 0xDF7 DUP4 CODECOPY DUP2 DUP2 ADD PUSH1 0x40 MSTORE DUP2 ADD SWAP1 PUSH3 0x38 SWAP2 SWAP1 PUSH3 0x227 JUMP JUMPDEST DUP5 DUP5 DUP2 PUSH20 0xFFFFFFFFFFFFFFFFFFFFFFFFFFFFFFFFFFFFFFFF AND PUSH1 0x80 DUP2 PUSH20 0xFFFFFFFFFFFFFFFFFFFFFFFFFFFFFFFFFFFFFFFF AND DUP2 MSTORE POP POP DUP1 PUSH1 0xA0 DUP2 DUP2 MSTORE POP POP POP POP PUSH1 0x0 DUP4 GT PUSH3 0xBE JUMPI PUSH1 0x40 MLOAD PUSH32 0x8C379A000000000000000000000000000000000000000000000000000000000 DUP2 MSTORE PUSH1 0x4 ADD PUSH3 0xB5 SWAP1 PUSH3 0x310 JUMP JUMPDEST PUSH1 0x40 MLOAD DUP1 SWAP2 SUB SWAP1 REVERT JUMPDEST DUP3 DUP3 LT ISZERO PUSH3 0x104 JUMPI PUSH1 0x40 MLOAD PUSH32 0x8C379A000000000000000000000000000000000000000000000000000000000 DUP2 MSTORE PUSH1 0x4 ADD PUSH3 0xFB SWAP1 PUSH3 0x382 JUMP JUMPDEST PUSH1 0x40 MLOAD DUP1 SWAP2 SUB SWAP1 REVERT JUMPDEST PUSH1 0x0 DUP2 GT PUSH3 0x14A JUMPI PUSH1 0x40 MLOAD PUSH32 0x8C379A000000000000000000000000000000000000000000000000000000000 DUP2 MSTORE PUSH1 0x4 ADD PUSH3 0x141 SWAP1 PUSH3 0x3F4 JUMP JUMPDEST PUSH1 0x40 MLOAD DUP1 SWAP2 SUB SWAP1 REVERT JUMPDEST DUP3 PUSH1 0xC0 DUP2 DUP2 MSTORE POP POP DUP2 PUSH1 0xE0 DUP2 DUP2 MSTORE POP POP DUP1 PUSH2 0x100 DUP2 DUP2 MSTORE POP POP POP POP POP POP POP PUSH3 0x416 JUMP JUMPDEST PUSH1 0x0 DUP1 REVERT JUMPDEST PUSH1 0x0 PUSH20 0xFFFFFFFFFFFFFFFFFFFFFFFFFFFFFFFFFFFFFFFF DUP3 AND SWAP1 POP SWAP2 SWAP1 POP JUMP JUMPDEST PUSH1 0x0 PUSH3 0x1A0 DUP3 PUSH3 0x173 JUMP JUMPDEST SWAP1 POP SWAP2 SWAP1 POP JUMP JUMPDEST PUSH1 0x0 PUSH3 0x1B4 DUP3 PUSH3 0x193 JUMP JUMPDEST SWAP1 POP SWAP2 SWAP1 POP JUMP JUMPDEST PUSH3 0x1C6 DUP2 PUSH3 0x1A7 JUMP JUMPDEST DUP2 EQ PUSH3 0x1D2 JUMPI PUSH1 0x0 DUP1 REVERT JUMPDEST POP JUMP JUMPDEST PUSH1 0x0 DUP2 MLOAD SWAP1 POP PUSH3 0x1E6 DUP2 PUSH3 0x1BB JUMP JUMPDEST SWAP3 SWAP2 POP POP JUMP JUMPDEST PUSH1 0x0 DUP2 SWAP1 POP SWAP2 SWAP1 POP JUMP JUMPDEST PUSH3 0x201 DUP2 PUSH3 0x1EC JUMP JUMPDEST DUP2 EQ PUSH3 0x20D JUMPI PUSH1 0x0 DUP1 REVERT JUMPDEST POP JUMP JUMPDEST PUSH1 0x0 DUP2 MLOAD SWAP1 POP PUSH3 0x221 DUP2 PUSH3 0x1F6 JUMP JUMPDEST SWAP3 SWAP2 POP POP JUMP JUMPDEST PUSH1 0x0 DUP1 PUSH1 0x0 DUP1 PUSH1 0x0 PUSH1 0xA0 DUP7 DUP9 SUB SLT ISZERO PUSH3 0x246 JUMPI PUSH3 0x245 PUSH3 0x16E JUMP JUMPDEST JUMPDEST PUSH1 0x0 PUSH3 0x256 DUP9 DUP3 DUP10 ADD PUSH3 0x1D5 JUMP JUMPDEST SWAP6 POP POP PUSH1 0x20 PUSH3 0x269 DUP9 DUP3 DUP10 ADD PUSH3 0x210 JUMP JUMPDEST SWAP5 POP POP PUSH1 0x40 PUSH3 0x27C DUP9 DUP3 DUP10 ADD PUSH3 0x210 JUMP JUMPDEST SWAP4 POP POP PUSH1 0x60 PUSH3 0x28F DUP9 DUP3 DUP10 ADD PUSH3 0x210 JUMP JUMPDEST SWAP3 POP POP PUSH1 0x80 PUSH3 0x2A2 DUP9 DUP3 DUP10 ADD PUSH3 0x210 JUMP JUMPDEST SWAP2 POP POP SWAP3 SWAP6 POP SWAP3 SWAP6 SWAP1 SWAP4 POP JUMP JUMPDEST PUSH1 0x0 DUP3 DUP3 MSTORE PUSH1 0x20 DUP3 ADD SWAP1 POP SWAP3 SWAP2 POP POP JUMP JUMPDEST PUSH32 0x496F543A6D696E20636F76657261676500000000000000000000000000000000 PUSH1 0x0 DUP3 ADD MSTORE POP JUMP JUMPDEST PUSH1 0x0 PUSH3 0x2F8 PUSH1 0x10 DUP4 PUSH3 0x2AF JUMP JUMPDEST SWAP2 POP PUSH3 0x305 DUP3 PUSH3 0x2C0 JUMP JUMPDEST PUSH1 0x20 DUP3 ADD SWAP1 POP SWAP2 SWAP1 POP JUMP JUMPDEST PUSH1 0x0 PUSH1 0x20 DUP3 ADD SWAP1 POP DUP2 DUP2 SUB PUSH1 0x0 DUP4 ADD MSTORE PUSH3 0x32B DUP2 PUSH3 0x2E9 JUMP JUMPDEST SWAP1 POP SWAP2 SWAP1 POP JUMP JUMPDEST PUSH32 0x496F543A626F6E7573203C206D696E0000000000000000000000000000000000 PUSH1 0x0 DUP3 ADD MSTORE POP JUMP JUMPDEST PUSH1 0x0 PUSH3 0x36A PUSH1 0xF DUP4 PUSH3 0x2AF JUMP JUMPDEST SWAP2 POP PUSH3 0x377 DUP3 PUSH3 0x332 JUMP JUMPDEST PUSH1 0x20 DUP3 ADD SWAP1 POP SWAP2 SWAP1 POP JUMP JUMPDEST PUSH1 0x0 PUSH1 0x20 DUP3 ADD SWAP1 POP DUP2 DUP2 SUB PUSH1 0x0 DUP4 ADD MSTORE PUSH3 0x39D DUP2 PUSH3 0x35B JUMP JUMPDEST SWAP1 POP SWAP2 SWAP1 POP JUMP JUMPDEST PUSH32 0x496F543A616C6C6F636174696F6E000000000000000000000000000000000000 PUSH1 0x0 DUP3 ADD MSTORE POP JUMP JUMPDEST PUSH1 0x0 PUSH3 0x3DC PUSH1 0xE DUP4 PUSH3 0x2AF JUMP JUMPDEST SWAP2 POP PUSH3 0x3E9 DUP3 PUSH3 0x3A4 JUMP JUMPDEST PUSH1 0x20 DUP3 ADD SWAP1 POP SWAP2 SWAP1 POP JUMP JUMPDEST PUSH1 0x0 PUSH1 0x20 DUP3 ADD SWAP1 POP DUP2 DUP2 SUB PUSH1 0x0 DUP4 ADD MSTORE PUSH3 0x40F DUP2 PUSH3 0x3CD JUMP JUMPDEST SWAP1 POP SWAP2 SWAP1 POP JUMP JUMPDEST PUSH1 0x80 MLOAD PUSH1 0xA0 MLOAD PUSH1 0xC0 MLOAD PUSH1 0xE0 MLOAD PUSH2 0x100 MLOAD PUSH2 0x96B PUSH3 0x48C PUSH1 0x0 CODECOPY PUSH1 0x0 DUP2 DUP2 PUSH2 0x17A ADD MSTORE PUSH2 0x63A ADD MSTORE PUSH1 0x0 PUSH2 0x586 ADD MSTORE PUSH1 0x0 DUP2 DUP2 PUSH2 0x51A ADD MSTORE DUP2 DUP2 PUSH2 0x5D5 ADD MSTORE PUSH2 0x605 ADD MSTORE PUSH1 0x0 DUP2 DUP2 PUSH2 0x373 ADD MSTORE DUP2 DUP2 PUSH2 0x407 ADD MSTORE DUP2 DUP2 PUSH2 0x4B8 ADD MSTORE PUSH2 0x562 ADD MSTORE PUSH1 0x0 DUP2 DUP2 PUSH2 0x3CB ADD MSTORE PUSH2 0x53E ADD MSTORE PUSH2 0x96B PUSH1 0x0 RETURN INVALID PUSH1 0x80 PUSH1 0x40 MSTORE CALLVALUE DUP1 ISZERO PUSH2 0x10 JUMPI PUSH1 0x0 DUP1 REVERT JUMPDEST POP PUSH1 0x4 CALLDATASIZE LT PUSH2 0x7D JUMPI PUSH1 0x0 CALLDATALOAD PUSH1 0xE0 SHR DUP1 PUSH4 0x7B103999 GT PUSH2 0x5B JUMPI DUP1 PUSH4 0x7B103999 EQ PUSH2 0xEE JUMPI DUP1 PUSH4 0x98812DA8 EQ PUSH2 0x10C JUMPI DUP1 PUSH4 0x9CBA51A2 EQ PUSH2 0x12A JUMPI DUP1 PUSH4 0xE55FAA91 EQ PUSH2 0x148 JUMPI PUSH2 0x7D JUMP JUMPDEST DUP1 PUSH4 0x7D1DCDA EQ PUSH2 0x82 JUMPI DUP1 PUSH4 0x26703071 EQ PUSH2 0xA0 JUMPI DUP1 PUSH4 0x4036B738 EQ PUSH2 0xD0 JUMPI JUMPDEST PUSH1 0x0 DUP1 REVERT JUMPDEST PUSH2 0x8A PUSH2 0x178 JUMP JUMPDEST PUSH1 0x40 MLOAD PUSH2 0x97 SWAP2 SWAP1 PUSH2 0x67A JUMP JUMPDEST PUSH1 0x40 MLOAD DUP1 SWAP2 SUB SWAP1 RETURN JUMPDEST PUSH2 0xBA PUSH1 0x4 DUP1 CALLDATASIZE SUB DUP2 ADD SWAP1 PUSH2 0xB5 SWAP2 SWAP1 PUSH2 0x6BE JUMP JUMPDEST PUSH2 0x19C JUMP JUMPDEST PUSH1 0x40 MLOAD PUSH2 0xC7 SWAP2 SWAP1 PUSH2 0x706 JUMP JUMPDEST PUSH1 0x40 MLOAD DUP1 SWAP2 SUB SWAP1 RETURN JUMPDEST PUSH2 0xD8 PUSH2 0x518 JUMP JUMPDEST PUSH1 0x40 MLOAD PUSH2 0xE5 SWAP2 SWAP1 PUSH2 0x67A JUMP JUMPDEST PUSH1 0x40 MLOAD DUP1 SWAP2 SUB SWAP1 RETURN JUMPDEST PUSH2 0xF6 PUSH2 0x53C JUMP JUMPDEST PUSH1 0x40 MLOAD PUSH2 0x103 SWAP2 SWAP1 PUSH2 0x7A0 JUMP JUMPDEST PUSH1 0x40 MLOAD DUP1 SWAP2 SUB SWAP1 RETURN JUMPDEST PUSH2 0x114 PUSH2 0x560 JUMP JUMPDEST PUSH1 0x40 MLOAD PUSH2 0x121 SWAP2 SWAP1 PUSH2 0x67A JUMP JUMPDEST PUSH1 0x40 MLOAD DUP1 SWAP2 SUB SWAP1 RETURN JUMPDEST PUSH2 0x132 PUSH2 0x584 JUMP JUMPDEST PUSH1 0x40 MLOAD PUSH2 0x13F SWAP2 SWAP1 PUSH2 0x67A JUMP JUMPDEST PUSH1 0x40 MLOAD DUP1 SWAP2 SUB SWAP1 RETURN JUMPDEST PUSH2 0x162 PUSH1 0x4 DUP1 CALLDATASIZE SUB DUP2 ADD SWAP1 PUSH2 0x15D SWAP2 SWAP1 PUSH2 0x7F1 JUMP JUMPDEST PUSH2 0x5A8 JUMP JUMPDEST PUSH1 0x40 MLOAD PUSH2 0x16F SWAP2 SWAP1 PUSH2 0x706 JUMP JUMPDEST PUSH1 0x40 MLOAD DUP1 SWAP2 SUB SWAP1 RETURN JUMPDEST PUSH32 0x0 DUP2 JUMP JUMPDEST PUSH1 0x0 DUP1 PUSH20 0xFFFFFFFFFFFFFFFFFFFFFFFFFFFFFFFFFFFFFFFF AND DUP3 PUSH1 0x20 ADD PUSH1 0x20 DUP2 ADD SWAP1 PUSH2 0x1C8 SWAP2 SWAP1 PUSH2 0x85C JUMP JUMPDEST PUSH20 0xFFFFFFFFFFFFFFFFFFFFFFFFFFFFFFFFFFFFFFFF AND SUB PUSH2 0x215 JUMPI PUSH1 0x40 MLOAD PUSH32 0x9C8D2CD200000000000000000000000000000000000000000000000000000000 DUP2 MSTORE PUSH1 0x4 ADD PUSH1 0x40 MLOAD DUP1 SWAP2 SUB SWAP1 REVERT JUMPDEST PUSH1 0x0 DUP1 DUP4 PUSH1 0x0 ADD CALLDATALOAD DUP2 MSTORE PUSH1 0x20 ADD SWAP1 DUP2 MSTORE PUSH1 0x20 ADD PUSH1 0x0 KECCAK256 PUSH1 0x0 SWAP1 SLOAD SWAP1 PUSH2 0x100 EXP SWAP1 DIV PUSH1 0xFF AND ISZERO PUSH2 0x27F JUMPI DUP2 PUSH1 0x0 ADD CALLDATALOAD PUSH1 0x40 MLOAD PUSH32 0xFAB54C7500000000000000000000000000000000000000000000000000000000 DUP2 MSTORE PUSH1 0x4 ADD PUSH2 0x276 SWAP2 SWAP1 PUSH2 0x898 JUMP JUMPDEST PUSH1 0x40 MLOAD DUP1 SWAP2 SUB SWAP1 REVERT JUMPDEST PUSH2 0x288 DUP3 PUSH2 0x5D1 JUMP JUMPDEST PUSH2 0x2CD JUMPI DUP2 PUSH1 0x0 ADD CALLDATALOAD PUSH1 0x40 MLOAD PUSH32 0x267E72D200000000000000000000000000000000000000000000000000000000 DUP2 MSTORE PUSH1 0x4 ADD PUSH2 0x2C4 SWAP2 SWAP1 PUSH2 0x898 JUMP JUMPDEST PUSH1 0x40 MLOAD DUP1 SWAP2 SUB SWAP1 REVERT JUMPDEST PUSH1 0x0 PUSH2 0x2D8 DUP4 PUSH2 0x601 JUMP JUMPDEST SWAP1 POP PUSH1 0x0 DUP2 SUB PUSH2 0x314 JUMPI PUSH1 0x40 MLOAD PUSH32 0x2C5211C600000000000000000000000000000000000000000000000000000000 DUP2 MSTORE PUSH1 0x4 ADD PUSH1 0x40 MLOAD DUP1 SWAP2 SUB SWAP1 REVERT JUMPDEST PUSH1 0x1 PUSH1 0x0 DUP1 DUP6 PUSH1 0x0 ADD CALLDATALOAD DUP2 MSTORE PUSH1 0x20 ADD SWAP1 DUP2 MSTORE PUSH1 0x20 ADD PUSH1 0x0 KECCAK256 PUSH1 0x0 PUSH2 0x100 EXP DUP2 SLOAD DUP2 PUSH1 0xFF MUL NOT AND SWAP1 DUP4 ISZERO ISZERO MUL OR SWAP1 SSTORE POP DUP3 PUSH1 0x20 ADD PUSH1 0x20 DUP2 ADD SWAP1 PUSH2 0x356 SWAP2 SWAP1 PUSH2 0x85C JUMP JUMPDEST PUSH20 0xFFFFFFFFFFFFFFFFFFFFFFFFFFFFFFFFFFFFFFFF AND DUP4 PUSH1 0x0 ADD CALLDATALOAD PUSH32 0x0 PUSH32 0x43B3CEE5744E37D76C9A376B11C2427CC9E9B2C4F7E48694ED9BA390ADC2847 DUP5 PUSH1 0x40 MLOAD PUSH2 0x3C1 SWAP2 SWAP1 PUSH2 0x67A JUMP JUMPDEST PUSH1 0x40 MLOAD DUP1 SWAP2 SUB SWAP1 LOG4 PUSH32 0x0 PUSH20 0xFFFFFFFFFFFFFFFFFFFFFFFFFFFFFFFFFFFFFFFF AND PUSH4 0x4CCB8033 PUSH32 0x0 DUP4 PUSH1 0x40 MLOAD DUP4 PUSH4 0xFFFFFFFF AND PUSH1 0xE0 SHL DUP2 MSTORE PUSH1 0x4 ADD PUSH2 0x444 SWAP3 SWAP2 SWAP1 PUSH2 0x8B3 JUMP JUMPDEST PUSH1 0x20 PUSH1 0x40 MLOAD DUP1 DUP4 SUB DUP2 PUSH1 0x0 DUP8 GAS CALL ISZERO DUP1 ISZERO PUSH2 0x463 JUMPI RETURNDATASIZE PUSH1 0x0 DUP1 RETURNDATACOPY RETURNDATASIZE PUSH1 0x0 REVERT JUMPDEST POP POP POP POP PUSH1 0x40 MLOAD RETURNDATASIZE PUSH1 0x1F NOT PUSH1 0x1F DUP3 ADD AND DUP3 ADD DUP1 PUSH1 0x40 MSTORE POP DUP2 ADD SWAP1 PUSH2 0x487 SWAP2 SWAP1 PUSH2 0x908 JUMP JUMPDEST POP DUP3 PUSH1 0x20 ADD PUSH1 0x20 DUP2 ADD SWAP1 PUSH2 0x49B SWAP2 SWAP1 PUSH2 0x85C JUMP JUMPDEST PUSH20 0xFFFFFFFFFFFFFFFFFFFFFFFFFFFFFFFFFFFFFFFF AND DUP4 PUSH1 0x0 ADD CALLDATALOAD PUSH32 0x0 PUSH32 0xF2EA0A74181D7700ED2292591F608309E18D84A8DC664EAD83B9482E7279146 DUP5 PUSH1 0x40 MLOAD PUSH2 0x506 SWAP2 SWAP1 PUSH2 0x67A JUMP JUMPDEST PUSH1 0x40 MLOAD DUP1 SWAP2 SUB SWAP1 LOG4 PUSH1 0x1 SWAP2 POP POP SWAP2 SWAP1 POP JUMP JUMPDEST PUSH32 0x0 DUP2 JUMP JUMPDEST PUSH32 0x0 DUP2 JUMP JUMPDEST PUSH32 0x0 DUP2 JUMP JUMPDEST PUSH32 0x0 DUP2 JUMP JUMPDEST PUSH1 0x0 DUP1 PUSH1 0x0 DUP4 DUP2 MSTORE PUSH1 0x20 ADD SWAP1 DUP2 MSTORE PUSH1 0x20 ADD PUSH1 0x0 KECCAK256 PUSH1 0x0 SWAP1 SLOAD SWAP1 PUSH2 0x100 EXP SWAP1 DIV PUSH1 0xFF AND SWAP1 POP SWAP2 SWAP1 POP JUMP JUMPDEST PUSH1 0x0 PUSH32 0x0 DUP3 PUSH1 0x60 ADD CALLDATALOAD GT SWAP1 POP SWAP2 SWAP1 POP JUMP JUMPDEST PUSH1 0x0 PUSH32 0x0 DUP3 PUSH1 0x60 ADD CALLDATALOAD LT ISZERO PUSH2 0x638 JUMPI PUSH1 0x0 SWAP1 POP PUSH2 0x65C JUMP JUMPDEST PUSH32 0x0 SWAP1 POP JUMPDEST SWAP2 SWAP1 POP JUMP JUMPDEST PUSH1 0x0 DUP2 SWAP1 POP SWAP2 SWAP1 POP JUMP JUMPDEST PUSH2 0x674 DUP2 PUSH2 0x661 JUMP JUMPDEST DUP3 MSTORE POP POP JUMP JUMPDEST PUSH1 0x0 PUSH1 0x20 DUP3 ADD SWAP1 POP PUSH2 0x68F PUSH1 0x0 DUP4 ADD DUP5 PUSH2 0x66B JUMP JUMPDEST SWAP3 SWAP2 POP POP JUMP JUMPDEST PUSH1 0x0 DUP1 REVERT JUMPDEST PUSH1 0x0 DUP1 REVERT JUMPDEST PUSH1 0x0 PUSH1 0xE0 DUP3 DUP5 SUB SLT ISZERO PUSH2 0x6B5 JUMPI PUSH2 0x6B4 PUSH2 0x69A JUMP JUMPDEST JUMPDEST DUP2 SWAP1 POP SWAP3 SWAP2 POP POP JUMP JUMPDEST PUSH1 0x0 PUSH1 0xE0 DUP3 DUP5 SUB SLT ISZERO PUSH2 0x6D4 JUMPI PUSH2 0x6D3 PUSH2 0x695 JUMP JUMPDEST JUMPDEST PUSH1 0x0 PUSH2 0x6E2 DUP5 DUP3 DUP6 ADD PUSH2 0x69F JUMP JUMPDEST SWAP2 POP POP SWAP3 SWAP2 POP POP JUMP JUMPDEST PUSH1 0x0 DUP2 ISZERO ISZERO SWAP1 POP SWAP2 SWAP1 POP JUMP JUMPDEST PUSH2 0x700 DUP2 PUSH2 0x6EB JUMP JUMPDEST DUP3 MSTORE POP POP JUMP JUMPDEST PUSH1 0x0 PUSH1 0x20 DUP3 ADD SWAP1 POP PUSH2 0x71B PUSH1 0x0 DUP4 ADD DUP5 PUSH2 0x6F7 JUMP JUMPDEST SWAP3 SWAP2 POP POP JUMP JUMPDEST PUSH1 0x0 PUSH20 0xFFFFFFFFFFFFFFFFFFFFFFFFFFFFFFFFFFFFFFFF DUP3 AND SWAP1 POP SWAP2 SWAP1 POP JUMP JUMPDEST PUSH1 0x0 DUP2 SWAP1 POP SWAP2 SWAP1 POP JUMP JUMPDEST PUSH1 0x0 PUSH2 0x766 PUSH2 0x761 PUSH2 0x75C DUP5 PUSH2 0x721 JUMP JUMPDEST PUSH2 0x741 JUMP JUMPDEST PUSH2 0x721 JUMP JUMPDEST SWAP1 POP SWAP2 SWAP1 POP JUMP JUMPDEST PUSH1 0x0 PUSH2 0x778 DUP3 PUSH2 0x74B JUMP JUMPDEST SWAP1 POP SWAP2 SWAP1 POP JUMP JUMPDEST PUSH1 0x0 PUSH2 0x78A DUP3 PUSH2 0x76D JUMP JUMPDEST SWAP1 POP SWAP2 SWAP1 POP JUMP JUMPDEST PUSH2 0x79A DUP2 PUSH2 0x77F JUMP JUMPDEST DUP3 MSTORE POP POP JUMP JUMPDEST PUSH1 0x0 PUSH1 0x20 DUP3 ADD SWAP1 POP PUSH2 0x7B5 PUSH1 0x0 DUP4 ADD DUP5 PUSH2 0x791 JUMP JUMPDEST SWAP3 SWAP2 POP POP JUMP JUMPDEST PUSH1 0x0 DUP2 SWAP1 POP SWAP2 SWAP1 POP JUMP JUMPDEST PUSH2 0x7CE DUP2 PUSH2 0x7BB JUMP JUMPDEST DUP2 EQ PUSH2 0x7D9 JUMPI PUSH1 0x0 DUP1 REVERT JUMPDEST POP JUMP JUMPDEST PUSH1 0x0 DUP2 CALLDATALOAD SWAP1 POP PUSH2 0x7EB DUP2 PUSH2 0x7C5 JUMP JUMPDEST SWAP3 SWAP2 POP POP JUMP JUMPDEST PUSH1 0x0 PUSH1 0x20 DUP3 DUP5 SUB SLT ISZERO PUSH2 0x807 JUMPI PUSH2 0x806 PUSH2 0x695 JUMP JUMPDEST JUMPDEST PUSH1 0x0 PUSH2 0x815 DUP5 DUP3 DUP6 ADD PUSH2 0x7DC JUMP JUMPDEST SWAP2 POP POP SWAP3 SWAP2 POP POP JUMP JUMPDEST PUSH1 0x0 PUSH2 0x829 DUP3 PUSH2 0x721 JUMP JUMPDEST SWAP1 POP SWAP2 SWAP1 POP JUMP JUMPDEST PUSH2 0x839 DUP2 PUSH2 0x81E JUMP JUMPDEST DUP2 EQ PUSH2 0x844 JUMPI PUSH1 0x0 DUP1 REVERT JUMPDEST POP JUMP JUMPDEST PUSH1 0x0 DUP2 CALLDATALOAD SWAP1 POP PUSH2 0x856 DUP2 PUSH2 0x830 JUMP JUMPDEST SWAP3 SWAP2 POP POP JUMP JUMPDEST PUSH1 0x0 PUSH1 0x20 DUP3 DUP5 SUB SLT ISZERO PUSH2 0x872 JUMPI PUSH2 0x871 PUSH2 0x695 JUMP JUMPDEST JUMPDEST PUSH1 0x0 PUSH2 0x880 DUP5 DUP3 DUP6 ADD PUSH2 0x847 JUMP JUMPDEST SWAP2 POP POP SWAP3 SWAP2 POP POP JUMP JUMPDEST PUSH2 0x892 DUP2 PUSH2 0x7BB JUMP JUMPDEST DUP3 MSTORE POP POP JUMP JUMPDEST PUSH1 0x0 PUSH1 0x20 DUP3 ADD SWAP1 POP PUSH2 0x8AD PUSH1 0x0 DUP4 ADD DUP5 PUSH2 0x889 JUMP JUMPDEST SWAP3 SWAP2 POP POP JUMP JUMPDEST PUSH1 0x0 PUSH1 0x40 DUP3 ADD SWAP1 POP PUSH2 0x8C8 PUSH1 0x0 DUP4 ADD DUP6 PUSH2 0x66B JUMP JUMPDEST PUSH2 0x8D5 PUSH1 0x20 DUP4 ADD DUP5 PUSH2 0x66B JUMP JUMPDEST SWAP4 SWAP3 POP POP POP JUMP JUMPDEST PUSH2 0x8E5 DUP2 PUSH2 0x661 JUMP JUMPDEST DUP2 EQ PUSH2 0x8F0 JUMPI PUSH1 0x0 DUP1 REVERT JUMPDEST POP JUMP JUMPDEST PUSH1 0x0 DUP2 MLOAD SWAP1 POP PUSH2 0x902 DUP2 PUSH2 0x8DC JUMP JUMPDEST SWAP3 SWAP2 POP POP JUMP JUMPDEST PUSH1 0x0 PUSH1 0x20 DUP3 DUP5 SUB SLT ISZERO PUSH2 0x91E JUMPI PUSH2 0x91D PUSH2 0x695 JUMP JUMPDEST JUMPDEST PUSH1 0x0 PUSH2 0x92C DUP5 DUP3 DUP6 ADD PUSH2 0x8F3 JUMP JUMPDEST SWAP2 POP POP SWAP3 SWAP2 POP POP JUMP INVALID LOG2 PUSH5 0x6970667358 0x22 SLT KECCAK256 PREVRANDAO 0xC4 0xDD SHR SWAP14 SWAP9 PUSH30 0x13344AFF9149F5965E501397B1697428B1BB2AAD3344E99C2564736F6C63 NUMBER STOP ADDMOD EQ STOP CALLER "},"methodIdentifiers":{"bonusCoveragePermille()":"9cba51a2","evaluate((bytes32,address,uint256,uint256,uint256,uint256,uint256))":"26703071","hasConsumed(bytes32)":"e55faa91","minCoveragePermille()":"4036b738","programId()":"98812da8","registry()":"7b103999","weeklyAllocationNTD()":"07d1dcda"}}}}}