{
  "_format": "hh-sol-artifact-1",
  "contractName": "FundRegistry",
  "sourceName": "contracts/programs/FundRegistry.sol",
  "abi": [
    {
      "inputs": [],
      "stateMutability": "nonpayable",
      "type": "constructor"
    },
    {
      "inputs": [
        {
          "internalType": "uint256",
          "name": "programId",
          "type": "uint256"
        },
        {
          "internalType": "uint256",
          "name": "capNTD",
          "type": "uint256"
        },
        {
          "internalType": "uint256",
          "name": "attemptedSpent",
          "type": "uint256"
        }
      ],
      "name": "CapExceeded",
      "type": "error"
    },
    {
      "inputs": [],
      "name": "InvalidCap",
      "type": "error"
    },
    {
      "inputs": [],
      "name": "InvalidModule",
      "type": "error"
    },
    {
      "inputs": [
        {
          "internalType": "uint256",
          "name": "programId",
          "type": "uint256"
        }
      ],
      "name": "OnlyModule",
      "type": "error"
    },
    {
      "inputs": [],
      "name": "OnlyOwner",
      "type": "error"
    },
    {
      "inputs": [],
      "name": "ProgramExists",
      "type": "error"
    },
    {
      "inputs": [],
      "name": "ProgramUnknown",
      "type": "error"
    },
    {
      "anonymous": false,
      "inputs": [
        {
          "indexed": true,
          "internalType": "address",
          "name": "previousOwner",
          "type": "address"
        },
        {
          "indexed": true,
          "internalType": "address",
          "name": "newOwner",
          "type": "address"
        }
      ],
      "name": "OwnershipTransferred",
      "type": "event"
    },
    {
      "anonymous": false,
      "inputs": [
        {
          "indexed": true,
          "internalType": "uint256",
          "name": "programId",
          "type": "uint256"
        },
        {
          "indexed": true,
          "internalType": "address",
          "name": "module",
          "type": "address"
        },
        {
          "indexed": false,
          "internalType": "uint256",
          "name": "capNTD",
          "type": "uint256"
        }
      ],
      "name": "ProgramRegistered",
      "type": "event"
    },
    {
      "anonymous": false,
      "inputs": [
        {
          "indexed": true,
          "internalType": "uint256",
          "name": "programId",
          "type": "uint256"
        },
        {
          "indexed": false,
          "internalType": "uint256",
          "name": "totalSpentNTD",
          "type": "uint256"
        }
      ],
      "name": "ProgramSpent",
      "type": "event"
    },
    {
      "inputs": [
        {
          "internalType": "uint256",
          "name": "programId",
          "type": "uint256"
        }
      ],
      "name": "capOf",
      "outputs": [
        {
          "internalType": "uint256",
          "name": "",
          "type": "uint256"
        }
      ],
      "stateMutability": "view",
      "type": "function"
    },
    {
      "inputs": [
        {
          "internalType": "uint256",
          "name": "programId",
          "type": "uint256"
        },
        {
          "internalType": "uint256",
          "name": "amountNTD",
          "type": "uint256"
        }
      ],
      "name": "increaseSpent",
      "outputs": [
        {
          "internalType": "uint256",
          "name": "",
          "type": "uint256"
        }
      ],
      "stateMutability": "nonpayable",
      "type": "function"
    },
    {
      "inputs": [
        {
          "internalType": "uint256",
          "name": "programId",
          "type": "uint256"
        }
      ],
      "name": "moduleOf",
      "outputs": [
        {
          "internalType": "address",
          "name": "",
          "type": "address"
        }
      ],
      "stateMutability": "view",
      "type": "function"
    },
    {
      "inputs": [],
      "name": "owner",
      "outputs": [
        {
          "internalType": "address",
          "name": "",
          "type": "address"
        }
      ],
      "stateMutability": "view",
      "type": "function"
    },
    {
      "inputs": [
        {
          "internalType": "uint256",
          "name": "programId",
          "type": "uint256"
        },
        {
          "internalType": "address",
          "name": "module",
          "type": "address"
        },
        {
          "internalType": "uint256",
          "name": "capNTD",
          "type": "uint256"
        }
      ],
      "name": "registerProgram",
      "outputs": [],
      "stateMutability": "nonpayable",
      "type": "function"
    },
    {
      "inputs": [
        {
          "internalType": "uint256",
          "name": "programId",
          "type": "uint256"
        }
      ],
      "name": "spentOf",
      "outputs": [
        {
          "internalType": "uint256",
          "name": "",
          "type": "uint256"
        }
      ],
      "stateMutability": "view",
      "type": "function"
    },
    {
      "inputs": [
        {
          "internalType": "address",
          "name": "newOwner",
          "type": "address"
        }
      ],
      "name": "transferOwnership",
      "outputs": [],
      "stateMutability": "nonpayable",
      "type": "function"
    }
  ],
  "bytecode": "0x608060405234801561001057600080fd5b5033600160006101000a81548173ffffffffffffffffffffffffffffffffffffffff021916908373ffffffffffffffffffffffffffffffffffffffff1602179055503373ffffffffffffffffffffffffffffffffffffffff16600073ffffffffffffffffffffffffffffffffffffffff167f8be0079c531659141344cd1fd0a4f28419497f9722a3daafe3b4186f6b6457e060405160405180910390a3610cb3806100bc6000396000f3fe608060405234801561001057600080fd5b506004361061007d5760003560e01c8063ee2619381161005b578063ee261938146100ec578063f2fde38b1461011c578063fe3447bf14610138578063fe9bc9a2146101685761007d565b80634ccb8033146100825780638da5cb5b146100b2578063c817f880146100d0575b600080fd5b61009c60048036038101906100979190610a44565b610198565b6040516100a99190610a93565b60405180910390f35b6100ba61039a565b6040516100c79190610aef565b60405180910390f35b6100ea60048036038101906100e59190610b36565b6103c0565b005b61010660048036038101906101019190610b89565b610632565b6040516101139190610aef565b60405180910390f35b61013660048036038101906101319190610bb6565b610700565b005b610152600480360381019061014d9190610b89565b6108ad565b60405161015f9190610a93565b60405180910390f35b610182600480360381019061017d9190610b89565b61095b565b60405161018f9190610a93565b60405180910390f35b60008082036101d3576040517fcadd5a6800000000000000000000000000000000000000000000000000000000815260040160405180910390fd5b6000806000858152602001908152602001600020905060008160020160009054906101000a900473ffffffffffffffffffffffffffffffffffffffff169050600073ffffffffffffffffffffffffffffffffffffffff168173ffffffffffffffffffffffffffffffffffffffff1603610278576040517f6ce40aad00000000000000000000000000000000000000000000000000000000815260040160405180910390fd5b3373ffffffffffffffffffffffffffffffffffffffff168173ffffffffffffffffffffffffffffffffffffffff16146102e857846040517fa6d930800000000000000000000000000000000000000000000000000000000081526004016102df9190610a93565b60405180910390fd5b60008483600101546102fa9190610c12565b9050826000015481111561034d57858360000154826040517f0cf95ce500000000000000000000000000000000000000000000000000000000815260040161034493929190610c46565b60405180910390fd5b808360010181905550857f7dd90323e22795f90c3e4e2fbc65c9022351d15575acbc773b98c62c68a87086826040516103869190610a93565b60405180910390a280935050505092915050565b600160009054906101000a900473ffffffffffffffffffffffffffffffffffffffff1681565b600160009054906101000a900473ffffffffffffffffffffffffffffffffffffffff1673ffffffffffffffffffffffffffffffffffffffff163373ffffffffffffffffffffffffffffffffffffffff1614610447576040517f5fc483c500000000000000000000000000000000000000000000000000000000815260040160405180910390fd5b600073ffffffffffffffffffffffffffffffffffffffff168273ffffffffffffffffffffffffffffffffffffffff16036104ad576040517fdd914b2800000000000000000000000000000000000000000000000000000000815260040160405180910390fd5b600081036104e7576040517fcadd5a6800000000000000000000000000000000000000000000000000000000815260040160405180910390fd5b60008060008581526020019081526020016000209050600073ffffffffffffffffffffffffffffffffffffffff168160020160009054906101000a900473ffffffffffffffffffffffffffffffffffffffff1673ffffffffffffffffffffffffffffffffffffffff1614610587576040517fbd1d771f00000000000000000000000000000000000000000000000000000000815260040160405180910390fd5b81816000018190555060008160010181905550828160020160006101000a81548173ffffffffffffffffffffffffffffffffffffffff021916908373ffffffffffffffffffffffffffffffffffffffff1602179055508273ffffffffffffffffffffffffffffffffffffffff16847fd6634a56f0eeed9e7b337e0633d98e2c111c48cfbd718bba0f73eba757d68f99846040516106249190610a93565b60405180910390a350505050565b6000806000808481526020019081526020016000209050600073ffffffffffffffffffffffffffffffffffffffff168160020160009054906101000a900473ffffffffffffffffffffffffffffffffffffffff1673ffffffffffffffffffffffffffffffffffffffff16036106d3576040517f6ce40aad00000000000000000000000000000000000000000000000000000000815260040160405180910390fd5b8060020160009054906101000a900473ffffffffffffffffffffffffffffffffffffffff16915050919050565b600160009054906101000a900473ffffffffffffffffffffffffffffffffffffffff1673ffffffffffffffffffffffffffffffffffffffff163373ffffffffffffffffffffffffffffffffffffffff1614610787576040517f5fc483c500000000000000000000000000000000000000000000000000000000815260040160405180910390fd5b600073ffffffffffffffffffffffffffffffffffffffff168173ffffffffffffffffffffffffffffffffffffffff16036107ed576040517fdd914b2800000000000000000000000000000000000000000000000000000000815260040160405180910390fd5b8073ffffffffffffffffffffffffffffffffffffffff16600160009054906101000a900473ffffffffffffffffffffffffffffffffffffffff1673ffffffffffffffffffffffffffffffffffffffff167f8be0079c531659141344cd1fd0a4f28419497f9722a3daafe3b4186f6b6457e060405160405180910390a380600160006101000a81548173ffffffffffffffffffffffffffffffffffffffff021916908373ffffffffffffffffffffffffffffffffffffffff16021790555050565b6000806000808481526020019081526020016000209050600073ffffffffffffffffffffffffffffffffffffffff168160020160009054906101000a900473ffffffffffffffffffffffffffffffffffffffff1673ffffffffffffffffffffffffffffffffffffffff160361094e576040517f6ce40aad00000000000000000000000000000000000000000000000000000000815260040160405180910390fd5b8060000154915050919050565b6000806000808481526020019081526020016000209050600073ffffffffffffffffffffffffffffffffffffffff168160020160009054906101000a900473ffffffffffffffffffffffffffffffffffffffff1673ffffffffffffffffffffffffffffffffffffffff16036109fc576040517f6ce40aad00000000000000000000000000000000000000000000000000000000815260040160405180910390fd5b8060010154915050919050565b600080fd5b6000819050919050565b610a2181610a0e565b8114610a2c57600080fd5b50565b600081359050610a3e81610a18565b92915050565b60008060408385031215610a5b57610a5a610a09565b5b6000610a6985828601610a2f565b9250506020610a7a85828601610a2f565b9150509250929050565b610a8d81610a0e565b82525050565b6000602082019050610aa86000830184610a84565b92915050565b600073ffffffffffffffffffffffffffffffffffffffff82169050919050565b6000610ad982610aae565b9050919050565b610ae981610ace565b82525050565b6000602082019050610b046000830184610ae0565b92915050565b610b1381610ace565b8114610b1e57600080fd5b50565b600081359050610b3081610b0a565b92915050565b600080600060608486031215610b4f57610b4e610a09565b5b6000610b5d86828701610a2f565b9350506020610b6e86828701610b21565b9250506040610b7f86828701610a2f565b9150509250925092565b600060208284031215610b9f57610b9e610a09565b5b6000610bad84828501610a2f565b91505092915050565b600060208284031215610bcc57610bcb610a09565b5b6000610bda84828501610b21565b91505092915050565b7f4e487b7100000000000000000000000000000000000000000000000000000000600052601160045260246000fd5b6000610c1d82610a0e565b9150610c2883610a0e565b9250828201905080821115610c4057610c3f610be3565b5b92915050565b6000606082019050610c5b6000830186610a84565b610c686020830185610a84565b610c756040830184610a84565b94935050505056fea26469706673582212203b2f66e2a78a434940ba18abb951f2ef401ec21dbaf78e72023ea22a0a1916ca64736f6c63430008140033",
  "linkReferences": {},
  "deployedLinkReferences": {}
}