{
  "_format": "hh-sol-artifact-1",
  "contractName": "AttestationRegistry",
  "sourceName": "contracts/AttestationRegistry.sol",
  "abi": [
    {
      "inputs": [
        {
          "internalType": "contract PublisherRegistry",
          "name": "registry",
          "type": "address"
        },
        {
          "internalType": "contract OpenDataRegistry",
          "name": "dataRegistry",
          "type": "address"
        }
      ],
      "stateMutability": "nonpayable",
      "type": "constructor"
    },
    {
      "anonymous": false,
      "inputs": [
        {
          "indexed": true,
          "internalType": "bytes32",
          "name": "proofId",
          "type": "bytes32"
        },
        {
          "indexed": true,
          "internalType": "address",
          "name": "reviewer",
          "type": "address"
        },
        {
          "indexed": false,
          "internalType": "string",
          "name": "note",
          "type": "string"
        }
      ],
      "name": "Attested",
      "type": "event"
    },
    {
      "inputs": [],
      "name": "REQUIRED_ATTESTATIONS",
      "outputs": [
        {
          "internalType": "uint8",
          "name": "",
          "type": "uint8"
        }
      ],
      "stateMutability": "view",
      "type": "function"
    },
    {
      "inputs": [
        {
          "internalType": "bytes32",
          "name": "proofId",
          "type": "bytes32"
        },
        {
          "internalType": "string",
          "name": "note",
          "type": "string"
        },
        {
          "internalType": "enum AttestationRegistry.Timeliness",
          "name": "timeliness",
          "type": "uint8"
        },
        {
          "internalType": "bool",
          "name": "markAudited",
          "type": "bool"
        }
      ],
      "name": "attest",
      "outputs": [],
      "stateMutability": "nonpayable",
      "type": "function"
    },
    {
      "inputs": [
        {
          "internalType": "bytes32",
          "name": "proofId",
          "type": "bytes32"
        }
      ],
      "name": "getAttestations",
      "outputs": [
        {
          "components": [
            {
              "internalType": "address",
              "name": "reviewer",
              "type": "address"
            },
            {
              "internalType": "uint64",
              "name": "attestedAt",
              "type": "uint64"
            },
            {
              "internalType": "string",
              "name": "note",
              "type": "string"
            },
            {
              "internalType": "enum AttestationRegistry.Timeliness",
              "name": "timeliness",
              "type": "uint8"
            },
            {
              "internalType": "bool",
              "name": "marksAudited",
              "type": "bool"
            }
          ],
          "internalType": "struct AttestationRegistry.Attestation[]",
          "name": "",
          "type": "tuple[]"
        }
      ],
      "stateMutability": "view",
      "type": "function"
    },
    {
      "inputs": [
        {
          "internalType": "bytes32",
          "name": "proofId",
          "type": "bytes32"
        }
      ],
      "name": "getSummary",
      "outputs": [
        {
          "components": [
            {
              "internalType": "uint8",
              "name": "total",
              "type": "uint8"
            },
            {
              "internalType": "uint8",
              "name": "publicCount",
              "type": "uint8"
            },
            {
              "internalType": "uint8",
              "name": "ngoCount",
              "type": "uint8"
            },
            {
              "internalType": "bool",
              "name": "audited",
              "type": "bool"
            },
            {
              "internalType": "enum AttestationRegistry.Timeliness",
              "name": "timeliness",
              "type": "uint8"
            }
          ],
          "internalType": "struct AttestationRegistry.Summary",
          "name": "",
          "type": "tuple"
        }
      ],
      "stateMutability": "view",
      "type": "function"
    },
    {
      "inputs": [
        {
          "internalType": "bytes32",
          "name": "proofId",
          "type": "bytes32"
        },
        {
          "internalType": "address",
          "name": "reviewer",
          "type": "address"
        }
      ],
      "name": "hasAttested",
      "outputs": [
        {
          "internalType": "bool",
          "name": "",
          "type": "bool"
        }
      ],
      "stateMutability": "view",
      "type": "function"
    },
    {
      "inputs": [
        {
          "internalType": "bytes32",
          "name": "proofId",
          "type": "bytes32"
        }
      ],
      "name": "isAttested",
      "outputs": [
        {
          "internalType": "bool",
          "name": "",
          "type": "bool"
        }
      ],
      "stateMutability": "view",
      "type": "function"
    },
    {
      "inputs": [],
      "name": "openDataRegistry",
      "outputs": [
        {
          "internalType": "contract OpenDataRegistry",
          "name": "",
          "type": "address"
        }
      ],
      "stateMutability": "view",
      "type": "function"
    },
    {
      "inputs": [],
      "name": "publisherRegistry",
      "outputs": [
        {
          "internalType": "contract PublisherRegistry",
          "name": "",
          "type": "address"
        }
      ],
      "stateMutability": "view",
      "type": "function"
    }
  ],
  "bytecode": "0x60c06040523480156200001157600080fd5b506040516200259f3803806200259f83398181016040528101906200003791906200024e565b600073ffffffffffffffffffffffffffffffffffffffff168273ffffffffffffffffffffffffffffffffffffffff1603620000a9576040517f08c379a0000000000000000000000000000000000000000000000000000000008152600401620000a0906200031c565b60405180910390fd5b600073ffffffffffffffffffffffffffffffffffffffff168173ffffffffffffffffffffffffffffffffffffffff16036200011b576040517f08c379a00000000000000000000000000000000000000000000000000000000081526004016200011290620003b4565b60405180910390fd5b8173ffffffffffffffffffffffffffffffffffffffff1660808173ffffffffffffffffffffffffffffffffffffffff16815250508073ffffffffffffffffffffffffffffffffffffffff1660a08173ffffffffffffffffffffffffffffffffffffffff16815250505050620003d6565b600080fd5b600073ffffffffffffffffffffffffffffffffffffffff82169050919050565b6000620001bd8262000190565b9050919050565b6000620001d182620001b0565b9050919050565b620001e381620001c4565b8114620001ef57600080fd5b50565b6000815190506200020381620001d8565b92915050565b60006200021682620001b0565b9050919050565b620002288162000209565b81146200023457600080fd5b50565b60008151905062000248816200021d565b92915050565b600080604083850312156200026857620002676200018b565b5b60006200027885828601620001f2565b92505060206200028b8582860162000237565b9150509250929050565b600082825260208201905092915050565b7f4174746573746174696f6e52656769737472793a20726567697374727920726560008201527f7175697265640000000000000000000000000000000000000000000000000000602082015250565b60006200030460268362000295565b91506200031182620002a6565b604082019050919050565b600060208201905081810360008301526200033781620002f5565b9050919050565b7f4174746573746174696f6e52656769737472793a20646174612072656769737460008201527f7279207265717569726564000000000000000000000000000000000000000000602082015250565b60006200039c602b8362000295565b9150620003a9826200033e565b604082019050919050565b60006020820190508181036000830152620003cf816200038d565b9050919050565b60805160a05161216b62000434600039600081816101c5015281816104c80152818161071d01528181610ee401528181610fe4015261109f0152600081816102c3015281816105a1015281816108210152610b27015261216b6000f3fe608060405234801561001057600080fd5b50600436106100885760003560e01c806362ecf26c1161005b57806362ecf26c14610129578063bfd103fb14610145578063c13c239614610175578063e4b0d150146101a557610088565b8063174a76b51461008d5780632164949e146100ab5780632894ceda146100db57806337e59e36146100f9575b600080fd5b6100956101c3565b6040516100a29190611263565b60405180910390f35b6100c560048036038101906100c091906112be565b6101e7565b6040516100d29190611401565b60405180910390f35b6100e36102c1565b6040516100f0919061143d565b60405180910390f35b610113600480360381019061010e91906112be565b6102e5565b6040516101209190611664565b60405180910390f35b610143600480360381019061013e919061173c565b6104c6565b005b61015f600480360381019061015a91906117f0565b610f78565b60405161016c919061183f565b60405180910390f35b61018f600480360381019061018a91906112be565b610fe0565b60405161019c919061183f565b60405180910390f35b6101ad611193565b6040516101ba9190611869565b60405180910390f35b7f000000000000000000000000000000000000000000000000000000000000000081565b6101ef611198565b600160008381526020019081526020016000206040518060a00160405290816000820160009054906101000a900460ff1660ff1660ff1681526020016000820160019054906101000a900460ff1660ff1660ff1681526020016000820160029054906101000a900460ff1660ff1660ff1681526020016000820160039054906101000a900460ff161515151581526020016000820160049054906101000a900460ff1660038111156102a4576102a3611322565b5b60038111156102b6576102b5611322565b5b815250509050919050565b7f000000000000000000000000000000000000000000000000000000000000000081565b6060600080838152602001908152602001600020805480602002602001604051908101604052809291908181526020016000905b828210156104bb57838290600052602060002090600302016040518060a00160405290816000820160009054906101000a900473ffffffffffffffffffffffffffffffffffffffff1673ffffffffffffffffffffffffffffffffffffffff1673ffffffffffffffffffffffffffffffffffffffff1681526020016000820160149054906101000a900467ffffffffffffffff1667ffffffffffffffff1667ffffffffffffffff1681526020016001820180546103d4906118b3565b80601f0160208091040260200160405190810160405280929190818152602001828054610400906118b3565b801561044d5780601f106104225761010080835404028352916020019161044d565b820191906000526020600020905b81548152906001019060200180831161043057829003601f168201915b505050505081526020016002820160009054906101000a900460ff16600381111561047b5761047a611322565b5b600381111561048d5761048c611322565b5b81526020016002820160019054906101000a900460ff16151515158152505081526020019060010190610319565b505050509050919050565b7f000000000000000000000000000000000000000000000000000000000000000073ffffffffffffffffffffffffffffffffffffffff1663d938d202866040518263ffffffff1660e01b815260040161051f91906118f3565b602060405180830381865afa15801561053c573d6000803e3d6000fd5b505050506040513d601f19601f820116820180604052508101906105609190611923565b61059f576040517f08c379a0000000000000000000000000000000000000000000000000000000008152600401610596906119d3565b60405180910390fd5b7f000000000000000000000000000000000000000000000000000000000000000073ffffffffffffffffffffffffffffffffffffffff166395a8c58d3360026040518363ffffffff1660e01b81526004016105fb929190611a02565b602060405180830381865afa158015610618573d6000803e3d6000fd5b505050506040513d601f19601f8201168201806040525081019061063c9190611923565b61067b576040517f08c379a000000000000000000000000000000000000000000000000000000000815260040161067290611a9d565b60405180910390fd5b6002600086815260200190815260200160002060003373ffffffffffffffffffffffffffffffffffffffff1673ffffffffffffffffffffffffffffffffffffffff16815260200190815260200160002060009054906101000a900460ff1615610719576040517f08c379a000000000000000000000000000000000000000000000000000000000815260040161071090611b2f565b60405180910390fd5b60007f000000000000000000000000000000000000000000000000000000000000000073ffffffffffffffffffffffffffffffffffffffff1663c7df14e2876040518263ffffffff1660e01b815260040161077491906118f3565b602060405180830381865afa158015610791573d6000803e3d6000fd5b505050506040513d601f19601f820116820180604052508101906107b59190611b74565b90506003808111156107ca576107c9611322565b5b8160038111156107dd576107dc611322565b5b0361081d576040517f08c379a000000000000000000000000000000000000000000000000000000000815260040161081490611c13565b60405180910390fd5b60007f000000000000000000000000000000000000000000000000000000000000000073ffffffffffffffffffffffffffffffffffffffff1663639f2e0f336040518263ffffffff1660e01b81526004016108789190611c33565b602060405180830381865afa158015610895573d6000803e3d6000fd5b505050506040513d601f19601f820116820180604052508101906108b99190611c73565b9050600060028111156108cf576108ce611322565b5b8160028111156108e2576108e1611322565b5b03610922576040517f08c379a000000000000000000000000000000000000000000000000000000000815260040161091990611d12565b60405180910390fd5b600060016000898152602001908152602001600020905060018160000160008282829054906101000a900460ff1661095a9190611d61565b92506101000a81548160ff021916908360ff1602179055506001600281111561098657610985611322565b5b82600281111561099957610998611322565b5b036109dc5760018160000160018282829054906101000a900460ff166109bf9190611d61565b92506101000a81548160ff021916908360ff160217905550610a42565b6002808111156109ef576109ee611322565b5b826002811115610a0257610a01611322565b5b03610a415760018160000160028282829054906101000a900460ff16610a289190611d61565b92506101000a81548160ff021916908360ff1602179055505b5b60006003811115610a5657610a55611322565b5b856003811115610a6957610a68611322565b5b14610b1f5760006003811115610a8257610a81611322565b5b8160000160049054906101000a900460ff166003811115610aa657610aa5611322565b5b1480610aec57508060000160049054906101000a900460ff166003811115610ad157610ad0611322565b5b60ff16856003811115610ae757610ae6611322565b5b60ff16105b15610b1e57848160000160046101000a81548160ff02191690836003811115610b1857610b17611322565b5b02179055505b5b8315610c1f577f000000000000000000000000000000000000000000000000000000000000000073ffffffffffffffffffffffffffffffffffffffff166395a8c58d3360046040518363ffffffff1660e01b8152600401610b81929190611a02565b602060405180830381865afa158015610b9e573d6000803e3d6000fd5b505050506040513d601f19601f82011682018060405250810190610bc29190611923565b610c01576040517f08c379a0000000000000000000000000000000000000000000000000000000008152600401610bf890611e08565b60405180910390fd5b60018160000160036101000a81548160ff0219169083151502179055505b6000808981526020019081526020016000206040518060a001604052803373ffffffffffffffffffffffffffffffffffffffff1681526020014267ffffffffffffffff16815260200189898080601f016020809104026020016040519081016040528093929190818152602001838380828437600081840152601f19601f820116905080830192505050505050508152602001876003811115610cc557610cc4611322565b5b8152602001861515815250908060018154018082558091505060019003906000526020600020906003020160009091909190915060008201518160000160006101000a81548173ffffffffffffffffffffffffffffffffffffffff021916908373ffffffffffffffffffffffffffffffffffffffff16021790555060208201518160000160146101000a81548167ffffffffffffffff021916908367ffffffffffffffff1602179055506040820151816001019081610d849190612003565b5060608201518160020160006101000a81548160ff02191690836003811115610db057610daf611322565b5b021790555060808201518160020160016101000a81548160ff02191690831515021790555050506001600260008a815260200190815260200160002060003373ffffffffffffffffffffffffffffffffffffffff1673ffffffffffffffffffffffffffffffffffffffff16815260200190815260200160002060006101000a81548160ff0219169083151502179055503373ffffffffffffffffffffffffffffffffffffffff16887f5ab18b3d94a4a64888ec2bb8123a752bcd81ebeb98d359d54aa54540fe42787c8989604051610e89929190612111565b60405180910390a3600260ff168160000160009054906101000a900460ff1660ff1610158015610edd575060016003811115610ec857610ec7611322565b5b836003811115610edb57610eda611322565b5b145b15610f6e577f000000000000000000000000000000000000000000000000000000000000000073ffffffffffffffffffffffffffffffffffffffff1663e1ef129d896040518263ffffffff1660e01b8152600401610f3b91906118f3565b600060405180830381600087803b158015610f5557600080fd5b505af1158015610f69573d6000803e3d6000fd5b505050505b5050505050505050565b60006002600084815260200190815260200160002060008373ffffffffffffffffffffffffffffffffffffffff1673ffffffffffffffffffffffffffffffffffffffff16815260200190815260200160002060009054906101000a900460ff16905092915050565b60007f000000000000000000000000000000000000000000000000000000000000000073ffffffffffffffffffffffffffffffffffffffff1663d938d202836040518263ffffffff1660e01b815260040161103b91906118f3565b602060405180830381865afa158015611058573d6000803e3d6000fd5b505050506040513d601f19601f8201168201806040525081019061107c9190611923565b611089576000905061118e565b6002600381111561109d5761109c611322565b5b7f000000000000000000000000000000000000000000000000000000000000000073ffffffffffffffffffffffffffffffffffffffff1663c7df14e2846040518263ffffffff1660e01b81526004016110f691906118f3565b602060405180830381865afa158015611113573d6000803e3d6000fd5b505050506040513d601f19601f820116820180604052508101906111379190611b74565b600381111561114957611148611322565b5b03611157576001905061118e565b6000600160008481526020019081526020016000209050600260ff168160000160009054906101000a900460ff1660ff1610159150505b919050565b600281565b6040518060a00160405280600060ff168152602001600060ff168152602001600060ff168152602001600015158152602001600060038111156111de576111dd611322565b5b81525090565b600073ffffffffffffffffffffffffffffffffffffffff82169050919050565b6000819050919050565b600061122961122461121f846111e4565b611204565b6111e4565b9050919050565b600061123b8261120e565b9050919050565b600061124d82611230565b9050919050565b61125d81611242565b82525050565b60006020820190506112786000830184611254565b92915050565b600080fd5b600080fd5b6000819050919050565b61129b81611288565b81146112a657600080fd5b50565b6000813590506112b881611292565b92915050565b6000602082840312156112d4576112d361127e565b5b60006112e2848285016112a9565b91505092915050565b600060ff82169050919050565b611301816112eb565b82525050565b60008115159050919050565b61131c81611307565b82525050565b7f4e487b7100000000000000000000000000000000000000000000000000000000600052602160045260246000fd5b6004811061136257611361611322565b5b50565b600081905061137382611351565b919050565b600061138382611365565b9050919050565b61139381611378565b82525050565b60a0820160008201516113af60008501826112f8565b5060208201516113c260208501826112f8565b5060408201516113d560408501826112f8565b5060608201516113e86060850182611313565b5060808201516113fb608085018261138a565b50505050565b600060a0820190506114166000830184611399565b92915050565b600061142782611230565b9050919050565b6114378161141c565b82525050565b6000602082019050611452600083018461142e565b92915050565b600081519050919050565b600082825260208201905092915050565b6000819050602082019050919050565b600061148f826111e4565b9050919050565b61149f81611484565b82525050565b600067ffffffffffffffff82169050919050565b6114c2816114a5565b82525050565b600081519050919050565b600082825260208201905092915050565b60005b838110156115025780820151818401526020810190506114e7565b60008484015250505050565b6000601f19601f8301169050919050565b600061152a826114c8565b61153481856114d3565b93506115448185602086016114e4565b61154d8161150e565b840191505092915050565b600060a0830160008301516115706000860182611496565b50602083015161158360208601826114b9565b506040830151848203604086015261159b828261151f565b91505060608301516115b0606086018261138a565b5060808301516115c36080860182611313565b508091505092915050565b60006115da8383611558565b905092915050565b6000602082019050919050565b60006115fa82611458565b6116048185611463565b93508360208202850161161685611474565b8060005b85811015611652578484038952815161163385826115ce565b945061163e836115e2565b925060208a0199505060018101905061161a565b50829750879550505050505092915050565b6000602082019050818103600083015261167e81846115ef565b905092915050565b600080fd5b600080fd5b600080fd5b60008083601f8401126116ab576116aa611686565b5b8235905067ffffffffffffffff8111156116c8576116c761168b565b5b6020830191508360018202830111156116e4576116e3611690565b5b9250929050565b600481106116f857600080fd5b50565b60008135905061170a816116eb565b92915050565b61171981611307565b811461172457600080fd5b50565b60008135905061173681611710565b92915050565b6000806000806000608086880312156117585761175761127e565b5b6000611766888289016112a9565b955050602086013567ffffffffffffffff81111561178757611786611283565b5b61179388828901611695565b945094505060406117a6888289016116fb565b92505060606117b788828901611727565b9150509295509295909350565b6117cd81611484565b81146117d857600080fd5b50565b6000813590506117ea816117c4565b92915050565b600080604083850312156118075761180661127e565b5b6000611815858286016112a9565b9250506020611826858286016117db565b9150509250929050565b61183981611307565b82525050565b60006020820190506118546000830184611830565b92915050565b611863816112eb565b82525050565b600060208201905061187e600083018461185a565b92915050565b7f4e487b7100000000000000000000000000000000000000000000000000000000600052602260045260246000fd5b600060028204905060018216806118cb57607f821691505b6020821081036118de576118dd611884565b5b50919050565b6118ed81611288565b82525050565b600060208201905061190860008301846118e4565b92915050565b60008151905061191d81611710565b92915050565b6000602082840312156119395761193861127e565b5b60006119478482850161190e565b91505092915050565b600082825260208201905092915050565b7f4174746573746174696f6e52656769737472793a20756e6b6e6f776e2070726f60008201527f6f66000000000000000000000000000000000000000000000000000000000000602082015250565b60006119bd602283611950565b91506119c882611961565b604082019050919050565b600060208201905081810360008301526119ec816119b0565b9050919050565b6119fc81611484565b82525050565b6000604082019050611a1760008301856119f3565b611a24602083018461185a565b9392505050565b7f4174746573746174696f6e52656769737472793a206e6f74207265766965776560008201527f7200000000000000000000000000000000000000000000000000000000000000602082015250565b6000611a87602183611950565b9150611a9282611a2b565b604082019050919050565b60006020820190508181036000830152611ab681611a7a565b9050919050565b7f4174746573746174696f6e52656769737472793a20616c72656164792061747460008201527f6573746564000000000000000000000000000000000000000000000000000000602082015250565b6000611b19602583611950565b9150611b2482611abd565b604082019050919050565b60006020820190508181036000830152611b4881611b0c565b9050919050565b60048110611b5c57600080fd5b50565b600081519050611b6e81611b4f565b92915050565b600060208284031215611b8a57611b8961127e565b5b6000611b9884828501611b5f565b91505092915050565b7f4174746573746174696f6e52656769737472793a2070726f6f66207265766f6b60008201527f6564000000000000000000000000000000000000000000000000000000000000602082015250565b6000611bfd602283611950565b9150611c0882611ba1565b604082019050919050565b60006020820190508181036000830152611c2c81611bf0565b9050919050565b6000602082019050611c4860008301846119f3565b92915050565b60038110611c5b57600080fd5b50565b600081519050611c6d81611c4e565b92915050565b600060208284031215611c8957611c8861127e565b5b6000611c9784828501611c5e565b91505092915050565b7f4174746573746174696f6e52656769737472793a207265766965776572206b6960008201527f6e64206d697373696e6700000000000000000000000000000000000000000000602082015250565b6000611cfc602a83611950565b9150611d0782611ca0565b604082019050919050565b60006020820190508181036000830152611d2b81611cef565b9050919050565b7f4e487b7100000000000000000000000000000000000000000000000000000000600052601160045260246000fd5b6000611d6c826112eb565b9150611d77836112eb565b9250828201905060ff811115611d9057611d8f611d32565b5b92915050565b7f4174746573746174696f6e52656769737472793a206e6f2061756469746f722060008201527f726f6c6500000000000000000000000000000000000000000000000000000000602082015250565b6000611df2602483611950565b9150611dfd82611d96565b604082019050919050565b60006020820190508181036000830152611e2181611de5565b9050919050565b7f4e487b7100000000000000000000000000000000000000000000000000000000600052604160045260246000fd5b60008190508160005260206000209050919050565b60006020601f8301049050919050565b600082821b905092915050565b600060088302611eb97fffffffffffffffffffffffffffffffffffffffffffffffffffffffffffffffff82611e7c565b611ec38683611e7c565b95508019841693508086168417925050509392505050565b6000819050919050565b6000611f00611efb611ef684611edb565b611204565b611edb565b9050919050565b6000819050919050565b611f1a83611ee5565b611f2e611f2682611f07565b848454611e89565b825550505050565b600090565b611f43611f36565b611f4e818484611f11565b505050565b5b81811015611f7257611f67600082611f3b565b600181019050611f54565b5050565b601f821115611fb757611f8881611e57565b611f9184611e6c565b81016020851015611fa0578190505b611fb4611fac85611e6c565b830182611f53565b50505b505050565b600082821c905092915050565b6000611fda60001984600802611fbc565b1980831691505092915050565b6000611ff38383611fc9565b9150826002028217905092915050565b61200c826114c8565b67ffffffffffffffff81111561202557612024611e28565b5b61202f82546118b3565b61203a828285611f76565b600060209050601f83116001811461206d576000841561205b578287015190505b6120658582611fe7565b8655506120cd565b601f19841661207b86611e57565b60005b828110156120a35784890151825560018201915060208501945060208101905061207e565b868310156120c057848901516120bc601f891682611fc9565b8355505b6001600288020188555050505b505050505050565b82818337600083830152505050565b60006120f08385611950565b93506120fd8385846120d5565b6121068361150e565b840190509392505050565b6000602082019050818103600083015261212c8184866120e4565b9050939250505056fea264697066735822122042628d19b9ff49448e2dc524d0cbd63272038e41cdbe8f2338c71ceacd756e3d64736f6c63430008140033",
  "linkReferences": {},
  "deployedLinkReferences": {}
}