{
  "_format": "hh-sol-artifact-1",
  "contractName": "ProgramModule_Construction",
  "sourceName": "contracts/programs/modules/ProgramModule_Construction.sol",
  "abi": [
    {
      "inputs": [
        {
          "internalType": "contract FundRegistry",
          "name": "registry_",
          "type": "address"
        },
        {
          "internalType": "uint256",
          "name": "programId_",
          "type": "uint256"
        },
        {
          "internalType": "uint256",
          "name": "maxPm25x10_",
          "type": "uint256"
        }
      ],
      "stateMutability": "nonpayable",
      "type": "constructor"
    },
    {
      "inputs": [],
      "name": "InvalidAmount",
      "type": "error"
    },
    {
      "inputs": [],
      "name": "InvalidRecipient",
      "type": "error"
    },
    {
      "inputs": [
        {
          "internalType": "bytes32",
          "name": "proofId",
          "type": "bytes32"
        }
      ],
      "name": "NotEligible",
      "type": "error"
    },
    {
      "inputs": [
        {
          "internalType": "bytes32",
          "name": "proofId",
          "type": "bytes32"
        }
      ],
      "name": "ProofAlreadyConsumed",
      "type": "error"
    },
    {
      "anonymous": false,
      "inputs": [
        {
          "indexed": true,
          "internalType": "uint256",
          "name": "programId",
          "type": "uint256"
        },
        {
          "indexed": true,
          "internalType": "bytes32",
          "name": "proofId",
          "type": "bytes32"
        },
        {
          "indexed": true,
          "internalType": "address",
          "name": "recipient",
          "type": "address"
        },
        {
          "indexed": false,
          "internalType": "uint256",
          "name": "amountNTD",
          "type": "uint256"
        }
      ],
      "name": "EligibilityIssued",
      "type": "event"
    },
    {
      "anonymous": false,
      "inputs": [
        {
          "indexed": true,
          "internalType": "uint256",
          "name": "programId",
          "type": "uint256"
        },
        {
          "indexed": true,
          "internalType": "bytes32",
          "name": "proofId",
          "type": "bytes32"
        },
        {
          "indexed": true,
          "internalType": "address",
          "name": "recipient",
          "type": "address"
        },
        {
          "indexed": false,
          "internalType": "uint256",
          "name": "amountNTD",
          "type": "uint256"
        }
      ],
      "name": "PayoutExecuted",
      "type": "event"
    },
    {
      "inputs": [
        {
          "components": [
            {
              "internalType": "bytes32",
              "name": "proofId",
              "type": "bytes32"
            },
            {
              "internalType": "address",
              "name": "recipient",
              "type": "address"
            },
            {
              "internalType": "uint256",
              "name": "amountNTD",
              "type": "uint256"
            },
            {
              "internalType": "uint256",
              "name": "coveragePermille",
              "type": "uint256"
            },
            {
              "internalType": "uint256",
              "name": "eventsProcessed",
              "type": "uint256"
            },
            {
              "internalType": "uint256",
              "name": "cemsValidPermille",
              "type": "uint256"
            },
            {
              "internalType": "uint256",
              "name": "pm25x10",
              "type": "uint256"
            }
          ],
          "internalType": "struct ProgramModule_Base.EvaluationProof",
          "name": "proof",
          "type": "tuple"
        }
      ],
      "name": "evaluate",
      "outputs": [
        {
          "internalType": "bool",
          "name": "",
          "type": "bool"
        }
      ],
      "stateMutability": "nonpayable",
      "type": "function"
    },
    {
      "inputs": [
        {
          "internalType": "bytes32",
          "name": "proofId",
          "type": "bytes32"
        }
      ],
      "name": "hasConsumed",
      "outputs": [
        {
          "internalType": "bool",
          "name": "",
          "type": "bool"
        }
      ],
      "stateMutability": "view",
      "type": "function"
    },
    {
      "inputs": [],
      "name": "maxPm25x10",
      "outputs": [
        {
          "internalType": "uint256",
          "name": "",
          "type": "uint256"
        }
      ],
      "stateMutability": "view",
      "type": "function"
    },
    {
      "inputs": [],
      "name": "programId",
      "outputs": [
        {
          "internalType": "uint256",
          "name": "",
          "type": "uint256"
        }
      ],
      "stateMutability": "view",
      "type": "function"
    },
    {
      "inputs": [],
      "name": "registry",
      "outputs": [
        {
          "internalType": "contract FundRegistry",
          "name": "",
          "type": "address"
        }
      ],
      "stateMutability": "view",
      "type": "function"
    }
  ],
  "bytecode": "0x60e060405234801561001057600080fd5b50604051610a42380380610a428339818101604052810190610032919061012d565b82828173ffffffffffffffffffffffffffffffffffffffff1660808173ffffffffffffffffffffffffffffffffffffffff16815250508060a0818152505050508060c08181525050505050610180565b600080fd5b600073ffffffffffffffffffffffffffffffffffffffff82169050919050565b60006100b282610087565b9050919050565b60006100c4826100a7565b9050919050565b6100d4816100b9565b81146100df57600080fd5b50565b6000815190506100f1816100cb565b92915050565b6000819050919050565b61010a816100f7565b811461011557600080fd5b50565b60008151905061012781610101565b92915050565b60008060006060848603121561014657610145610082565b5b6000610154868287016100e2565b935050602061016586828701610118565b925050604061017686828701610118565b9150509250925092565b60805160a05160c0516108706101d260003960008181610118015261052b015260008181610311015281816103a50152818161045601526104dc01526000818161036901526104b801526108706000f3fe608060405234801561001057600080fd5b50600436106100575760003560e01c806301de791a1461005c578063267030711461007a5780637b103999146100aa57806398812da8146100c8578063e55faa91146100e6575b600080fd5b610064610116565b604051610071919061057f565b60405180910390f35b610094600480360381019061008f91906105c3565b61013a565b6040516100a1919061060b565b60405180910390f35b6100b26104b6565b6040516100bf91906106a5565b60405180910390f35b6100d06104da565b6040516100dd919061057f565b60405180910390f35b61010060048036038101906100fb91906106f6565b6104fe565b60405161010d919061060b565b60405180910390f35b7f000000000000000000000000000000000000000000000000000000000000000081565b60008073ffffffffffffffffffffffffffffffffffffffff168260200160208101906101669190610761565b73ffffffffffffffffffffffffffffffffffffffff16036101b3576040517f9c8d2cd200000000000000000000000000000000000000000000000000000000815260040160405180910390fd5b6000808360000135815260200190815260200160002060009054906101000a900460ff161561021d5781600001356040517ffab54c75000000000000000000000000000000000000000000000000000000008152600401610214919061079d565b60405180910390fd5b61022682610527565b61026b5781600001356040517f267e72d2000000000000000000000000000000000000000000000000000000008152600401610262919061079d565b60405180910390fd5b600061027683610558565b9050600081036102b2576040517f2c5211c600000000000000000000000000000000000000000000000000000000815260040160405180910390fd5b60016000808560000135815260200190815260200160002060006101000a81548160ff0219169083151502179055508260200160208101906102f49190610761565b73ffffffffffffffffffffffffffffffffffffffff1683600001357f00000000000000000000000000000000000000000000000000000000000000007f043b3cee5744e37d76c9a376b11c2427cc9e9b2c4f7e48694ed9ba390adc28478460405161035f919061057f565b60405180910390a47f000000000000000000000000000000000000000000000000000000000000000073ffffffffffffffffffffffffffffffffffffffff16634ccb80337f0000000000000000000000000000000000000000000000000000000000000000836040518363ffffffff1660e01b81526004016103e29291906107b8565b6020604051808303816000875af1158015610401573d6000803e3d6000fd5b505050506040513d601f19601f82011682018060405250810190610425919061080d565b508260200160208101906104399190610761565b73ffffffffffffffffffffffffffffffffffffffff1683600001357f00000000000000000000000000000000000000000000000000000000000000007f0f2ea0a74181d7700ed2292591f608309e18d84a8dc664ead83b9482e7279146846040516104a4919061057f565b60405180910390a46001915050919050565b7f000000000000000000000000000000000000000000000000000000000000000081565b7f000000000000000000000000000000000000000000000000000000000000000081565b600080600083815260200190815260200160002060009054906101000a900460ff169050919050565b60007f00000000000000000000000000000000000000000000000000000000000000008260c0013511159050919050565b600081604001359050919050565b6000819050919050565b61057981610566565b82525050565b60006020820190506105946000830184610570565b92915050565b600080fd5b600080fd5b600060e082840312156105ba576105b961059f565b5b81905092915050565b600060e082840312156105d9576105d861059a565b5b60006105e7848285016105a4565b91505092915050565b60008115159050919050565b610605816105f0565b82525050565b600060208201905061062060008301846105fc565b92915050565b600073ffffffffffffffffffffffffffffffffffffffff82169050919050565b6000819050919050565b600061066b61066661066184610626565b610646565b610626565b9050919050565b600061067d82610650565b9050919050565b600061068f82610672565b9050919050565b61069f81610684565b82525050565b60006020820190506106ba6000830184610696565b92915050565b6000819050919050565b6106d3816106c0565b81146106de57600080fd5b50565b6000813590506106f0816106ca565b92915050565b60006020828403121561070c5761070b61059a565b5b600061071a848285016106e1565b91505092915050565b600061072e82610626565b9050919050565b61073e81610723565b811461074957600080fd5b50565b60008135905061075b81610735565b92915050565b6000602082840312156107775761077661059a565b5b60006107858482850161074c565b91505092915050565b610797816106c0565b82525050565b60006020820190506107b2600083018461078e565b92915050565b60006040820190506107cd6000830185610570565b6107da6020830184610570565b9392505050565b6107ea81610566565b81146107f557600080fd5b50565b600081519050610807816107e1565b92915050565b6000602082840312156108235761082261059a565b5b6000610831848285016107f8565b9150509291505056fea2646970667358221220de8bc66b23534f61d9105b5521030895f4af639d2a3880e75a3b87e2f797eefa64736f6c63430008140033",
  "linkReferences": {},
  "deployedLinkReferences": {}
}