{
  "_format": "hh-sol-artifact-1",
  "contractName": "ProgramModule_IoT",
  "sourceName": "contracts/programs/modules/ProgramModule_IoT.sol",
  "abi": [
    {
      "inputs": [
        {
          "internalType": "contract FundRegistry",
          "name": "registry_",
          "type": "address"
        },
        {
          "internalType": "uint256",
          "name": "programId_",
          "type": "uint256"
        },
        {
          "internalType": "uint256",
          "name": "minCoveragePermille_",
          "type": "uint256"
        },
        {
          "internalType": "uint256",
          "name": "bonusCoveragePermille_",
          "type": "uint256"
        },
        {
          "internalType": "uint256",
          "name": "weeklyAllocationNTD_",
          "type": "uint256"
        }
      ],
      "stateMutability": "nonpayable",
      "type": "constructor"
    },
    {
      "inputs": [],
      "name": "InvalidAmount",
      "type": "error"
    },
    {
      "inputs": [],
      "name": "InvalidRecipient",
      "type": "error"
    },
    {
      "inputs": [
        {
          "internalType": "bytes32",
          "name": "proofId",
          "type": "bytes32"
        }
      ],
      "name": "NotEligible",
      "type": "error"
    },
    {
      "inputs": [
        {
          "internalType": "bytes32",
          "name": "proofId",
          "type": "bytes32"
        }
      ],
      "name": "ProofAlreadyConsumed",
      "type": "error"
    },
    {
      "anonymous": false,
      "inputs": [
        {
          "indexed": true,
          "internalType": "uint256",
          "name": "programId",
          "type": "uint256"
        },
        {
          "indexed": true,
          "internalType": "bytes32",
          "name": "proofId",
          "type": "bytes32"
        },
        {
          "indexed": true,
          "internalType": "address",
          "name": "recipient",
          "type": "address"
        },
        {
          "indexed": false,
          "internalType": "uint256",
          "name": "amountNTD",
          "type": "uint256"
        }
      ],
      "name": "EligibilityIssued",
      "type": "event"
    },
    {
      "anonymous": false,
      "inputs": [
        {
          "indexed": true,
          "internalType": "uint256",
          "name": "programId",
          "type": "uint256"
        },
        {
          "indexed": true,
          "internalType": "bytes32",
          "name": "proofId",
          "type": "bytes32"
        },
        {
          "indexed": true,
          "internalType": "address",
          "name": "recipient",
          "type": "address"
        },
        {
          "indexed": false,
          "internalType": "uint256",
          "name": "amountNTD",
          "type": "uint256"
        }
      ],
      "name": "PayoutExecuted",
      "type": "event"
    },
    {
      "inputs": [],
      "name": "bonusCoveragePermille",
      "outputs": [
        {
          "internalType": "uint256",
          "name": "",
          "type": "uint256"
        }
      ],
      "stateMutability": "view",
      "type": "function"
    },
    {
      "inputs": [
        {
          "components": [
            {
              "internalType": "bytes32",
              "name": "proofId",
              "type": "bytes32"
            },
            {
              "internalType": "address",
              "name": "recipient",
              "type": "address"
            },
            {
              "internalType": "uint256",
              "name": "amountNTD",
              "type": "uint256"
            },
            {
              "internalType": "uint256",
              "name": "coveragePermille",
              "type": "uint256"
            },
            {
              "internalType": "uint256",
              "name": "eventsProcessed",
              "type": "uint256"
            },
            {
              "internalType": "uint256",
              "name": "cemsValidPermille",
              "type": "uint256"
            },
            {
              "internalType": "uint256",
              "name": "pm25x10",
              "type": "uint256"
            }
          ],
          "internalType": "struct ProgramModule_Base.EvaluationProof",
          "name": "proof",
          "type": "tuple"
        }
      ],
      "name": "evaluate",
      "outputs": [
        {
          "internalType": "bool",
          "name": "",
          "type": "bool"
        }
      ],
      "stateMutability": "nonpayable",
      "type": "function"
    },
    {
      "inputs": [
        {
          "internalType": "bytes32",
          "name": "proofId",
          "type": "bytes32"
        }
      ],
      "name": "hasConsumed",
      "outputs": [
        {
          "internalType": "bool",
          "name": "",
          "type": "bool"
        }
      ],
      "stateMutability": "view",
      "type": "function"
    },
    {
      "inputs": [],
      "name": "minCoveragePermille",
      "outputs": [
        {
          "internalType": "uint256",
          "name": "",
          "type": "uint256"
        }
      ],
      "stateMutability": "view",
      "type": "function"
    },
    {
      "inputs": [],
      "name": "programId",
      "outputs": [
        {
          "internalType": "uint256",
          "name": "",
          "type": "uint256"
        }
      ],
      "stateMutability": "view",
      "type": "function"
    },
    {
      "inputs": [],
      "name": "registry",
      "outputs": [
        {
          "internalType": "contract FundRegistry",
          "name": "",
          "type": "address"
        }
      ],
      "stateMutability": "view",
      "type": "function"
    },
    {
      "inputs": [],
      "name": "weeklyAllocationNTD",
      "outputs": [
        {
          "internalType": "uint256",
          "name": "",
          "type": "uint256"
        }
      ],
      "stateMutability": "view",
      "type": "function"
    }
  ],
  "bytecode": "0x6101206040523480156200001257600080fd5b506040516200104538038062001045833981810160405281019062000038919062000227565b84848173ffffffffffffffffffffffffffffffffffffffff1660808173ffffffffffffffffffffffffffffffffffffffff16815250508060a08181525050505060008311620000be576040517f08c379a0000000000000000000000000000000000000000000000000000000008152600401620000b59062000310565b60405180910390fd5b8282101562000104576040517f08c379a0000000000000000000000000000000000000000000000000000000008152600401620000fb9062000382565b60405180910390fd5b600081116200014a576040517f08c379a00000000000000000000000000000000000000000000000000000000081526004016200014190620003f4565b60405180910390fd5b8260c081815250508160e08181525050806101008181525050505050505062000416565b600080fd5b600073ffffffffffffffffffffffffffffffffffffffff82169050919050565b6000620001a08262000173565b9050919050565b6000620001b48262000193565b9050919050565b620001c681620001a7565b8114620001d257600080fd5b50565b600081519050620001e681620001bb565b92915050565b6000819050919050565b6200020181620001ec565b81146200020d57600080fd5b50565b6000815190506200022181620001f6565b92915050565b600080600080600060a086880312156200024657620002456200016e565b5b60006200025688828901620001d5565b9550506020620002698882890162000210565b94505060406200027c8882890162000210565b93505060606200028f8882890162000210565b9250506080620002a28882890162000210565b9150509295509295909350565b600082825260208201905092915050565b7f496f543a6d696e20636f76657261676500000000000000000000000000000000600082015250565b6000620002f8601083620002af565b91506200030582620002c0565b602082019050919050565b600060208201905081810360008301526200032b81620002e9565b9050919050565b7f496f543a626f6e7573203c206d696e0000000000000000000000000000000000600082015250565b60006200036a600f83620002af565b9150620003778262000332565b602082019050919050565b600060208201905081810360008301526200039d816200035b565b9050919050565b7f496f543a616c6c6f636174696f6e000000000000000000000000000000000000600082015250565b6000620003dc600e83620002af565b9150620003e982620003a4565b602082019050919050565b600060208201905081810360008301526200040f81620003cd565b9050919050565b60805160a05160c05160e05161010051610b8f620004b66000396000818161017a01528181610630015281816106e401526107430152600081816105860152818161060501526106af01526000818161051a015281816105d5015281816106580152818161068e015261070f01526000818161037301528181610407015281816104b801526105620152600081816103cb015261053e0152610b8f6000f3fe608060405234801561001057600080fd5b506004361061007d5760003560e01c80637b1039991161005b5780637b103999146100ee57806398812da81461010c5780639cba51a21461012a578063e55faa91146101485761007d565b806307d1dcda1461008257806326703071146100a05780634036b738146100d0575b600080fd5b61008a610178565b6040516100979190610799565b60405180910390f35b6100ba60048036038101906100b591906107dd565b61019c565b6040516100c79190610825565b60405180910390f35b6100d8610518565b6040516100e59190610799565b60405180910390f35b6100f661053c565b60405161010391906108bf565b60405180910390f35b610114610560565b6040516101219190610799565b60405180910390f35b610132610584565b60405161013f9190610799565b60405180910390f35b610162600480360381019061015d9190610910565b6105a8565b60405161016f9190610825565b60405180910390f35b7f000000000000000000000000000000000000000000000000000000000000000081565b60008073ffffffffffffffffffffffffffffffffffffffff168260200160208101906101c8919061097b565b73ffffffffffffffffffffffffffffffffffffffff1603610215576040517f9c8d2cd200000000000000000000000000000000000000000000000000000000815260040160405180910390fd5b6000808360000135815260200190815260200160002060009054906101000a900460ff161561027f5781600001356040517ffab54c7500000000000000000000000000000000000000000000000000000000815260040161027691906109b7565b60405180910390fd5b610288826105d1565b6102cd5781600001356040517f267e72d20000000000000000000000000000000000000000000000000000000081526004016102c491906109b7565b60405180910390fd5b60006102d883610601565b905060008103610314576040517f2c5211c600000000000000000000000000000000000000000000000000000000815260040160405180910390fd5b60016000808560000135815260200190815260200160002060006101000a81548160ff021916908315150217905550826020016020810190610356919061097b565b73ffffffffffffffffffffffffffffffffffffffff1683600001357f00000000000000000000000000000000000000000000000000000000000000007f043b3cee5744e37d76c9a376b11c2427cc9e9b2c4f7e48694ed9ba390adc2847846040516103c19190610799565b60405180910390a47f000000000000000000000000000000000000000000000000000000000000000073ffffffffffffffffffffffffffffffffffffffff16634ccb80337f0000000000000000000000000000000000000000000000000000000000000000836040518363ffffffff1660e01b81526004016104449291906109d2565b6020604051808303816000875af1158015610463573d6000803e3d6000fd5b505050506040513d601f19601f820116820180604052508101906104879190610a27565b5082602001602081019061049b919061097b565b73ffffffffffffffffffffffffffffffffffffffff1683600001357f00000000000000000000000000000000000000000000000000000000000000007f0f2ea0a74181d7700ed2292591f608309e18d84a8dc664ead83b9482e7279146846040516105069190610799565b60405180910390a46001915050919050565b7f000000000000000000000000000000000000000000000000000000000000000081565b7f000000000000000000000000000000000000000000000000000000000000000081565b7f000000000000000000000000000000000000000000000000000000000000000081565b7f000000000000000000000000000000000000000000000000000000000000000081565b600080600083815260200190815260200160002060009054906101000a900460ff169050919050565b60007f00000000000000000000000000000000000000000000000000000000000000008260600135119050919050565b60007f0000000000000000000000000000000000000000000000000000000000000000826060013510610656577f0000000000000000000000000000000000000000000000000000000000000000905061077b565b7f000000000000000000000000000000000000000000000000000000000000000082606001351161068a576000905061077b565b60007f00000000000000000000000000000000000000000000000000000000000000007f00000000000000000000000000000000000000000000000000000000000000006106d89190610a83565b90506000810361070b577f000000000000000000000000000000000000000000000000000000000000000091505061077b565b60007f0000000000000000000000000000000000000000000000000000000000000000846060013561073d9190610a83565b905081817f000000000000000000000000000000000000000000000000000000000000000061076c9190610ab7565b6107769190610b28565b925050505b919050565b6000819050919050565b61079381610780565b82525050565b60006020820190506107ae600083018461078a565b92915050565b600080fd5b600080fd5b600060e082840312156107d4576107d36107b9565b5b81905092915050565b600060e082840312156107f3576107f26107b4565b5b6000610801848285016107be565b91505092915050565b60008115159050919050565b61081f8161080a565b82525050565b600060208201905061083a6000830184610816565b92915050565b600073ffffffffffffffffffffffffffffffffffffffff82169050919050565b6000819050919050565b600061088561088061087b84610840565b610860565b610840565b9050919050565b60006108978261086a565b9050919050565b60006108a98261088c565b9050919050565b6108b98161089e565b82525050565b60006020820190506108d460008301846108b0565b92915050565b6000819050919050565b6108ed816108da565b81146108f857600080fd5b50565b60008135905061090a816108e4565b92915050565b600060208284031215610926576109256107b4565b5b6000610934848285016108fb565b91505092915050565b600061094882610840565b9050919050565b6109588161093d565b811461096357600080fd5b50565b6000813590506109758161094f565b92915050565b600060208284031215610991576109906107b4565b5b600061099f84828501610966565b91505092915050565b6109b1816108da565b82525050565b60006020820190506109cc60008301846109a8565b92915050565b60006040820190506109e7600083018561078a565b6109f4602083018461078a565b9392505050565b610a0481610780565b8114610a0f57600080fd5b50565b600081519050610a21816109fb565b92915050565b600060208284031215610a3d57610a3c6107b4565b5b6000610a4b84828501610a12565b91505092915050565b7f4e487b7100000000000000000000000000000000000000000000000000000000600052601160045260246000fd5b6000610a8e82610780565b9150610a9983610780565b9250828203905081811115610ab157610ab0610a54565b5b92915050565b6000610ac282610780565b9150610acd83610780565b9250828202610adb81610780565b91508282048414831517610af257610af1610a54565b5b5092915050565b7f4e487b7100000000000000000000000000000000000000000000000000000000600052601260045260246000fd5b6000610b3382610780565b9150610b3e83610780565b925082610b4e57610b4d610af9565b5b82820490509291505056fea2646970667358221220e2b817941b0c89871e5f67bcf2b6987e5805d5061112540b5daeeb3880b34b3864736f6c63430008140033",
  "linkReferences": {},
  "deployedLinkReferences": {}
}