{
  "_format": "hh-sol-artifact-1",
  "contractName": "ProgramModule_IoT",
  "sourceName": "contracts/programs/modules/ProgramModule_IoT.sol",
  "abi": [
    {
      "inputs": [
        {
          "internalType": "contract FundRegistry",
          "name": "registry_",
          "type": "address"
        },
        {
          "internalType": "uint256",
          "name": "programId_",
          "type": "uint256"
        },
        {
          "internalType": "uint256",
          "name": "minCoveragePermille_",
          "type": "uint256"
        },
        {
          "internalType": "uint256",
          "name": "bonusCoveragePermille_",
          "type": "uint256"
        },
        {
          "internalType": "uint256",
          "name": "weeklyAllocationNTD_",
          "type": "uint256"
        }
      ],
      "stateMutability": "nonpayable",
      "type": "constructor"
    },
    {
      "inputs": [],
      "name": "InvalidAmount",
      "type": "error"
    },
    {
      "inputs": [],
      "name": "InvalidRecipient",
      "type": "error"
    },
    {
      "inputs": [
        {
          "internalType": "bytes32",
          "name": "proofId",
          "type": "bytes32"
        }
      ],
      "name": "NotEligible",
      "type": "error"
    },
    {
      "inputs": [
        {
          "internalType": "bytes32",
          "name": "proofId",
          "type": "bytes32"
        }
      ],
      "name": "ProofAlreadyConsumed",
      "type": "error"
    },
    {
      "anonymous": false,
      "inputs": [
        {
          "indexed": true,
          "internalType": "uint256",
          "name": "programId",
          "type": "uint256"
        },
        {
          "indexed": true,
          "internalType": "bytes32",
          "name": "proofId",
          "type": "bytes32"
        },
        {
          "indexed": true,
          "internalType": "address",
          "name": "recipient",
          "type": "address"
        },
        {
          "indexed": false,
          "internalType": "uint256",
          "name": "amountNTD",
          "type": "uint256"
        }
      ],
      "name": "EligibilityIssued",
      "type": "event"
    },
    {
      "anonymous": false,
      "inputs": [
        {
          "indexed": true,
          "internalType": "uint256",
          "name": "programId",
          "type": "uint256"
        },
        {
          "indexed": true,
          "internalType": "bytes32",
          "name": "proofId",
          "type": "bytes32"
        },
        {
          "indexed": true,
          "internalType": "address",
          "name": "recipient",
          "type": "address"
        },
        {
          "indexed": false,
          "internalType": "uint256",
          "name": "amountNTD",
          "type": "uint256"
        }
      ],
      "name": "PayoutExecuted",
      "type": "event"
    },
    {
      "inputs": [],
      "name": "bonusCoveragePermille",
      "outputs": [
        {
          "internalType": "uint256",
          "name": "",
          "type": "uint256"
        }
      ],
      "stateMutability": "view",
      "type": "function"
    },
    {
      "inputs": [
        {
          "components": [
            {
              "internalType": "bytes32",
              "name": "proofId",
              "type": "bytes32"
            },
            {
              "internalType": "address",
              "name": "recipient",
              "type": "address"
            },
            {
              "internalType": "uint256",
              "name": "amountNTD",
              "type": "uint256"
            },
            {
              "internalType": "uint256",
              "name": "coveragePermille",
              "type": "uint256"
            },
            {
              "internalType": "uint256",
              "name": "eventsProcessed",
              "type": "uint256"
            },
            {
              "internalType": "uint256",
              "name": "cemsValidPermille",
              "type": "uint256"
            },
            {
              "internalType": "uint256",
              "name": "pm25x10",
              "type": "uint256"
            }
          ],
          "internalType": "struct ProgramModule_Base.EvaluationProof",
          "name": "proof",
          "type": "tuple"
        }
      ],
      "name": "evaluate",
      "outputs": [
        {
          "internalType": "bool",
          "name": "",
          "type": "bool"
        }
      ],
      "stateMutability": "nonpayable",
      "type": "function"
    },
    {
      "inputs": [
        {
          "internalType": "bytes32",
          "name": "proofId",
          "type": "bytes32"
        }
      ],
      "name": "hasConsumed",
      "outputs": [
        {
          "internalType": "bool",
          "name": "",
          "type": "bool"
        }
      ],
      "stateMutability": "view",
      "type": "function"
    },
    {
      "inputs": [],
      "name": "minCoveragePermille",
      "outputs": [
        {
          "internalType": "uint256",
          "name": "",
          "type": "uint256"
        }
      ],
      "stateMutability": "view",
      "type": "function"
    },
    {
      "inputs": [],
      "name": "programId",
      "outputs": [
        {
          "internalType": "uint256",
          "name": "",
          "type": "uint256"
        }
      ],
      "stateMutability": "view",
      "type": "function"
    },
    {
      "inputs": [],
      "name": "registry",
      "outputs": [
        {
          "internalType": "contract FundRegistry",
          "name": "",
          "type": "address"
        }
      ],
      "stateMutability": "view",
      "type": "function"
    },
    {
      "inputs": [],
      "name": "weeklyAllocationNTD",
      "outputs": [
        {
          "internalType": "uint256",
          "name": "",
          "type": "uint256"
        }
      ],
      "stateMutability": "view",
      "type": "function"
    }
  ],
  "bytecode": "0x6101206040523480156200001257600080fd5b5060405162000df738038062000df7833981810160405281019062000038919062000227565b84848173ffffffffffffffffffffffffffffffffffffffff1660808173ffffffffffffffffffffffffffffffffffffffff16815250508060a08181525050505060008311620000be576040517f08c379a0000000000000000000000000000000000000000000000000000000008152600401620000b59062000310565b60405180910390fd5b8282101562000104576040517f08c379a0000000000000000000000000000000000000000000000000000000008152600401620000fb9062000382565b60405180910390fd5b600081116200014a576040517f08c379a00000000000000000000000000000000000000000000000000000000081526004016200014190620003f4565b60405180910390fd5b8260c081815250508160e08181525050806101008181525050505050505062000416565b600080fd5b600073ffffffffffffffffffffffffffffffffffffffff82169050919050565b6000620001a08262000173565b9050919050565b6000620001b48262000193565b9050919050565b620001c681620001a7565b8114620001d257600080fd5b50565b600081519050620001e681620001bb565b92915050565b6000819050919050565b6200020181620001ec565b81146200020d57600080fd5b50565b6000815190506200022181620001f6565b92915050565b600080600080600060a086880312156200024657620002456200016e565b5b60006200025688828901620001d5565b9550506020620002698882890162000210565b94505060406200027c8882890162000210565b93505060606200028f8882890162000210565b9250506080620002a28882890162000210565b9150509295509295909350565b600082825260208201905092915050565b7f496f543a6d696e20636f76657261676500000000000000000000000000000000600082015250565b6000620002f8601083620002af565b91506200030582620002c0565b602082019050919050565b600060208201905081810360008301526200032b81620002e9565b9050919050565b7f496f543a626f6e7573203c206d696e0000000000000000000000000000000000600082015250565b60006200036a600f83620002af565b9150620003778262000332565b602082019050919050565b600060208201905081810360008301526200039d816200035b565b9050919050565b7f496f543a616c6c6f636174696f6e000000000000000000000000000000000000600082015250565b6000620003dc600e83620002af565b9150620003e982620003a4565b602082019050919050565b600060208201905081810360008301526200040f81620003cd565b9050919050565b60805160a05160c05160e0516101005161096b6200048c6000396000818161017a015261063a0152600061058601526000818161051a015281816105d5015261060501526000818161037301528181610407015281816104b801526105620152600081816103cb015261053e015261096b6000f3fe608060405234801561001057600080fd5b506004361061007d5760003560e01c80637b1039991161005b5780637b103999146100ee57806398812da81461010c5780639cba51a21461012a578063e55faa91146101485761007d565b806307d1dcda1461008257806326703071146100a05780634036b738146100d0575b600080fd5b61008a610178565b604051610097919061067a565b60405180910390f35b6100ba60048036038101906100b591906106be565b61019c565b6040516100c79190610706565b60405180910390f35b6100d8610518565b6040516100e5919061067a565b60405180910390f35b6100f661053c565b60405161010391906107a0565b60405180910390f35b610114610560565b604051610121919061067a565b60405180910390f35b610132610584565b60405161013f919061067a565b60405180910390f35b610162600480360381019061015d91906107f1565b6105a8565b60405161016f9190610706565b60405180910390f35b7f000000000000000000000000000000000000000000000000000000000000000081565b60008073ffffffffffffffffffffffffffffffffffffffff168260200160208101906101c8919061085c565b73ffffffffffffffffffffffffffffffffffffffff1603610215576040517f9c8d2cd200000000000000000000000000000000000000000000000000000000815260040160405180910390fd5b6000808360000135815260200190815260200160002060009054906101000a900460ff161561027f5781600001356040517ffab54c750000000000000000000000000000000000000000000000000000000081526004016102769190610898565b60405180910390fd5b610288826105d1565b6102cd5781600001356040517f267e72d20000000000000000000000000000000000000000000000000000000081526004016102c49190610898565b60405180910390fd5b60006102d883610601565b905060008103610314576040517f2c5211c600000000000000000000000000000000000000000000000000000000815260040160405180910390fd5b60016000808560000135815260200190815260200160002060006101000a81548160ff021916908315150217905550826020016020810190610356919061085c565b73ffffffffffffffffffffffffffffffffffffffff1683600001357f00000000000000000000000000000000000000000000000000000000000000007f043b3cee5744e37d76c9a376b11c2427cc9e9b2c4f7e48694ed9ba390adc2847846040516103c1919061067a565b60405180910390a47f000000000000000000000000000000000000000000000000000000000000000073ffffffffffffffffffffffffffffffffffffffff16634ccb80337f0000000000000000000000000000000000000000000000000000000000000000836040518363ffffffff1660e01b81526004016104449291906108b3565b6020604051808303816000875af1158015610463573d6000803e3d6000fd5b505050506040513d601f19601f820116820180604052508101906104879190610908565b5082602001602081019061049b919061085c565b73ffffffffffffffffffffffffffffffffffffffff1683600001357f00000000000000000000000000000000000000000000000000000000000000007f0f2ea0a74181d7700ed2292591f608309e18d84a8dc664ead83b9482e727914684604051610506919061067a565b60405180910390a46001915050919050565b7f000000000000000000000000000000000000000000000000000000000000000081565b7f000000000000000000000000000000000000000000000000000000000000000081565b7f000000000000000000000000000000000000000000000000000000000000000081565b7f000000000000000000000000000000000000000000000000000000000000000081565b600080600083815260200190815260200160002060009054906101000a900460ff169050919050565b60007f00000000000000000000000000000000000000000000000000000000000000008260600135119050919050565b60007f000000000000000000000000000000000000000000000000000000000000000082606001351015610638576000905061065c565b7f000000000000000000000000000000000000000000000000000000000000000090505b919050565b6000819050919050565b61067481610661565b82525050565b600060208201905061068f600083018461066b565b92915050565b600080fd5b600080fd5b600060e082840312156106b5576106b461069a565b5b81905092915050565b600060e082840312156106d4576106d3610695565b5b60006106e28482850161069f565b91505092915050565b60008115159050919050565b610700816106eb565b82525050565b600060208201905061071b60008301846106f7565b92915050565b600073ffffffffffffffffffffffffffffffffffffffff82169050919050565b6000819050919050565b600061076661076161075c84610721565b610741565b610721565b9050919050565b60006107788261074b565b9050919050565b600061078a8261076d565b9050919050565b61079a8161077f565b82525050565b60006020820190506107b56000830184610791565b92915050565b6000819050919050565b6107ce816107bb565b81146107d957600080fd5b50565b6000813590506107eb816107c5565b92915050565b60006020828403121561080757610806610695565b5b6000610815848285016107dc565b91505092915050565b600061082982610721565b9050919050565b6108398161081e565b811461084457600080fd5b50565b60008135905061085681610830565b92915050565b60006020828403121561087257610871610695565b5b600061088084828501610847565b91505092915050565b610892816107bb565b82525050565b60006020820190506108ad6000830184610889565b92915050565b60006040820190506108c8600083018561066b565b6108d5602083018461066b565b9392505050565b6108e581610661565b81146108f057600080fd5b50565b600081519050610902816108dc565b92915050565b60006020828403121561091e5761091d610695565b5b600061092c848285016108f3565b9150509291505056fea264697066735822122044c4dd1c9d987d13344aff9149f5965e501397b1697428b1bb2aad3344e99c2564736f6c63430008140033",
  "linkReferences": {},
  "deployedLinkReferences": {}
}