{
  "_format": "hh-sol-artifact-1",
  "contractName": "PublisherRegistry",
  "sourceName": "contracts/PublisherRegistry.sol",
  "abi": [
    {
      "inputs": [],
      "stateMutability": "nonpayable",
      "type": "constructor"
    },
    {
      "anonymous": false,
      "inputs": [
        {
          "indexed": true,
          "internalType": "address",
          "name": "account",
          "type": "address"
        }
      ],
      "name": "MemberDeactivated",
      "type": "event"
    },
    {
      "anonymous": false,
      "inputs": [
        {
          "indexed": true,
          "internalType": "address",
          "name": "account",
          "type": "address"
        },
        {
          "indexed": false,
          "internalType": "string",
          "name": "label",
          "type": "string"
        },
        {
          "indexed": false,
          "internalType": "uint8",
          "name": "roles",
          "type": "uint8"
        },
        {
          "indexed": false,
          "internalType": "enum PublisherRegistry.ReviewerKind",
          "name": "reviewerKind",
          "type": "uint8"
        },
        {
          "indexed": false,
          "internalType": "bool",
          "name": "active",
          "type": "bool"
        }
      ],
      "name": "MemberUpserted",
      "type": "event"
    },
    {
      "anonymous": false,
      "inputs": [
        {
          "indexed": true,
          "internalType": "address",
          "name": "previousOwner",
          "type": "address"
        },
        {
          "indexed": true,
          "internalType": "address",
          "name": "newOwner",
          "type": "address"
        }
      ],
      "name": "OwnershipTransferred",
      "type": "event"
    },
    {
      "inputs": [],
      "name": "ROLE_AUDITOR",
      "outputs": [
        {
          "internalType": "uint8",
          "name": "",
          "type": "uint8"
        }
      ],
      "stateMutability": "view",
      "type": "function"
    },
    {
      "inputs": [],
      "name": "ROLE_PUBLISHER",
      "outputs": [
        {
          "internalType": "uint8",
          "name": "",
          "type": "uint8"
        }
      ],
      "stateMutability": "view",
      "type": "function"
    },
    {
      "inputs": [],
      "name": "ROLE_REVIEWER",
      "outputs": [
        {
          "internalType": "uint8",
          "name": "",
          "type": "uint8"
        }
      ],
      "stateMutability": "view",
      "type": "function"
    },
    {
      "inputs": [
        {
          "internalType": "address",
          "name": "account",
          "type": "address"
        }
      ],
      "name": "deactivate",
      "outputs": [],
      "stateMutability": "nonpayable",
      "type": "function"
    },
    {
      "inputs": [
        {
          "internalType": "address",
          "name": "account",
          "type": "address"
        }
      ],
      "name": "getMember",
      "outputs": [
        {
          "internalType": "bool",
          "name": "active",
          "type": "bool"
        },
        {
          "internalType": "string",
          "name": "label",
          "type": "string"
        },
        {
          "internalType": "uint8",
          "name": "roles",
          "type": "uint8"
        },
        {
          "internalType": "enum PublisherRegistry.ReviewerKind",
          "name": "reviewerKind",
          "type": "uint8"
        }
      ],
      "stateMutability": "view",
      "type": "function"
    },
    {
      "inputs": [
        {
          "internalType": "address",
          "name": "account",
          "type": "address"
        },
        {
          "internalType": "uint8",
          "name": "role",
          "type": "uint8"
        }
      ],
      "name": "hasRole",
      "outputs": [
        {
          "internalType": "bool",
          "name": "",
          "type": "bool"
        }
      ],
      "stateMutability": "view",
      "type": "function"
    },
    {
      "inputs": [
        {
          "internalType": "address",
          "name": "account",
          "type": "address"
        }
      ],
      "name": "isActive",
      "outputs": [
        {
          "internalType": "bool",
          "name": "",
          "type": "bool"
        }
      ],
      "stateMutability": "view",
      "type": "function"
    },
    {
      "inputs": [
        {
          "internalType": "address",
          "name": "account",
          "type": "address"
        }
      ],
      "name": "memberExists",
      "outputs": [
        {
          "internalType": "bool",
          "name": "",
          "type": "bool"
        }
      ],
      "stateMutability": "view",
      "type": "function"
    },
    {
      "inputs": [],
      "name": "owner",
      "outputs": [
        {
          "internalType": "address",
          "name": "",
          "type": "address"
        }
      ],
      "stateMutability": "view",
      "type": "function"
    },
    {
      "inputs": [
        {
          "internalType": "address",
          "name": "account",
          "type": "address"
        }
      ],
      "name": "reviewerKindOf",
      "outputs": [
        {
          "internalType": "enum PublisherRegistry.ReviewerKind",
          "name": "",
          "type": "uint8"
        }
      ],
      "stateMutability": "view",
      "type": "function"
    },
    {
      "inputs": [
        {
          "internalType": "address",
          "name": "newOwner",
          "type": "address"
        }
      ],
      "name": "transferOwnership",
      "outputs": [],
      "stateMutability": "nonpayable",
      "type": "function"
    },
    {
      "inputs": [
        {
          "internalType": "address",
          "name": "account",
          "type": "address"
        },
        {
          "internalType": "string",
          "name": "label",
          "type": "string"
        },
        {
          "internalType": "uint8",
          "name": "roles",
          "type": "uint8"
        },
        {
          "internalType": "enum PublisherRegistry.ReviewerKind",
          "name": "reviewerKind",
          "type": "uint8"
        },
        {
          "internalType": "bool",
          "name": "active",
          "type": "bool"
        }
      ],
      "name": "upsertMember",
      "outputs": [],
      "stateMutability": "nonpayable",
      "type": "function"
    }
  ],
  "bytecode": "0x608060405234801561001057600080fd5b506100203361002560201b60201c565b6100e9565b60008060009054906101000a900473ffffffffffffffffffffffffffffffffffffffff169050816000806101000a81548173ffffffffffffffffffffffffffffffffffffffff021916908373ffffffffffffffffffffffffffffffffffffffff1602179055508173ffffffffffffffffffffffffffffffffffffffff168173ffffffffffffffffffffffffffffffffffffffff167f8be0079c531659141344cd1fd0a4f28419497f9722a3daafe3b4186f6b6457e060405160405180910390a35050565b611889806100f86000396000f3fe608060405234801561001057600080fd5b50600436106100b45760003560e01c80638da5cb5b116100715780638da5cb5b146101a457806395a8c58d146101c25780639d5453b1146101f25780639f8a13d71461020e578063ab80e2b31461023e578063f2fde38b1461025c576100b4565b8063199d5a88146100b95780632ada2596146100e95780633ea053eb1461011c5780633f029aaf146101385780635f6a454614610156578063639f2e0f14610174575b600080fd5b6100d360048036038101906100ce9190610d55565b610278565b6040516100e09190610d9d565b60405180910390f35b61010360048036038101906100fe9190610d55565b6102d1565b6040516101139493929190610edb565b60405180910390f35b61013660048036038101906101319190610d55565b610442565b005b6101406105e0565b60405161014d9190610f27565b60405180910390f35b61015e6105e5565b60405161016b9190610f27565b60405180910390f35b61018e60048036038101906101899190610d55565b6105ea565b60405161019b9190610f42565b60405180910390f35b6101ac6106a7565b6040516101b99190610f6c565b60405180910390f35b6101dc60048036038101906101d79190610fb3565b6106d0565b6040516101e99190610d9d565b60405180910390f35b61020c600480360381019061020791906110a9565b61076c565b005b61022860048036038101906102239190610d55565b610aa3565b6040516102359190610d9d565b60405180910390f35b610246610b1b565b6040516102539190610f27565b60405180910390f35b61027660048036038101906102719190610d55565b610b20565b005b6000600160008373ffffffffffffffffffffffffffffffffffffffff1673ffffffffffffffffffffffffffffffffffffffff16815260200190815260200160002060000160009054906101000a900460ff169050919050565b600060606000806000600160008773ffffffffffffffffffffffffffffffffffffffff1673ffffffffffffffffffffffffffffffffffffffff16815260200190815260200160002090508060000160009054906101000a900460ff1661036c576040517f08c379a00000000000000000000000000000000000000000000000000000000081526004016103639061118f565b60405180910390fd5b8060000160019054906101000a900460ff16816001018260020160009054906101000a900460ff168360020160019054906101000a900460ff168280546103b2906111de565b80601f01602080910402602001604051908101604052809291908181526020018280546103de906111de565b801561042b5780601f106104005761010080835404028352916020019161042b565b820191906000526020600020905b81548152906001019060200180831161040e57829003601f168201915b505050505092509450945094509450509193509193565b60008054906101000a900473ffffffffffffffffffffffffffffffffffffffff1673ffffffffffffffffffffffffffffffffffffffff163373ffffffffffffffffffffffffffffffffffffffff16146104d0576040517f08c379a00000000000000000000000000000000000000000000000000000000081526004016104c79061125b565b60405180910390fd5b6000600160008373ffffffffffffffffffffffffffffffffffffffff1673ffffffffffffffffffffffffffffffffffffffff16815260200190815260200160002090508060000160009054906101000a900460ff16610564576040517f08c379a000000000000000000000000000000000000000000000000000000000815260040161055b9061118f565b60405180910390fd5b8060000160019054906101000a900460ff16156105dc5760008160000160016101000a81548160ff0219169083151502179055508173ffffffffffffffffffffffffffffffffffffffff167fd09c98686577f18c498d909faf17eff8fa165d9f4e25dce055e78cf7fb95cc1d60405160405180910390a25b5050565b600481565b600281565b600080600160008473ffffffffffffffffffffffffffffffffffffffff1673ffffffffffffffffffffffffffffffffffffffff16815260200190815260200160002090508060000160009054906101000a900460ff16158061065b57508060000160019054906101000a900460ff16155b8061067d5750600060028260020160009054906101000a900460ff161660ff16145b1561068c5760009150506106a2565b8060020160019054906101000a900460ff169150505b919050565b60008060009054906101000a900473ffffffffffffffffffffffffffffffffffffffff16905090565b600080600160008573ffffffffffffffffffffffffffffffffffffffff1673ffffffffffffffffffffffffffffffffffffffff16815260200190815260200160002090508060000160009054906101000a900460ff16801561074057508060000160019054906101000a900460ff165b801561076357506000838260020160009054906101000a900460ff161660ff1614155b91505092915050565b60008054906101000a900473ffffffffffffffffffffffffffffffffffffffff1673ffffffffffffffffffffffffffffffffffffffff163373ffffffffffffffffffffffffffffffffffffffff16146107fa576040517f08c379a00000000000000000000000000000000000000000000000000000000081526004016107f19061125b565b60405180910390fd5b600073ffffffffffffffffffffffffffffffffffffffff168673ffffffffffffffffffffffffffffffffffffffff1603610869576040517f08c379a0000000000000000000000000000000000000000000000000000000008152600401610860906112c7565b60405180910390fd5b600085859050116108af576040517f08c379a00000000000000000000000000000000000000000000000000000000081526004016108a690611359565b60405180910390fd5b60008360ff16036108f5576040517f08c379a00000000000000000000000000000000000000000000000000000000081526004016108ec906113eb565b60405180910390fd5b6000600281111561090957610908610e64565b5b82600281111561091c5761091b610e64565b5b1461096b5760006002841660ff160361096a576040517f08c379a00000000000000000000000000000000000000000000000000000000081526004016109619061147d565b60405180910390fd5b5b6000600160008873ffffffffffffffffffffffffffffffffffffffff1673ffffffffffffffffffffffffffffffffffffffff168152602001908152602001600020905060018160000160006101000a81548160ff02191690831515021790555085858260010191826109de92919061168d565b50838160020160006101000a81548160ff021916908360ff160217905550828160020160016101000a81548160ff02191690836002811115610a2357610a22610e64565b5b0217905550818160000160016101000a81548160ff0219169083151502179055508673ffffffffffffffffffffffffffffffffffffffff167fb1d68557bfd01917dd46570189e652ed6775a1e244ff3ace39c22b26879685c98787878787604051610a92959493929190611799565b60405180910390a250505050505050565b600080600160008473ffffffffffffffffffffffffffffffffffffffff1673ffffffffffffffffffffffffffffffffffffffff16815260200190815260200160002090508060000160009054906101000a900460ff168015610b1357508060000160019054906101000a900460ff165b915050919050565b600181565b60008054906101000a900473ffffffffffffffffffffffffffffffffffffffff1673ffffffffffffffffffffffffffffffffffffffff163373ffffffffffffffffffffffffffffffffffffffff1614610bae576040517f08c379a0000000000000000000000000000000000000000000000000000000008152600401610ba59061125b565b60405180910390fd5b600073ffffffffffffffffffffffffffffffffffffffff168173ffffffffffffffffffffffffffffffffffffffff1603610c1d576040517f08c379a0000000000000000000000000000000000000000000000000000000008152600401610c1490611833565b60405180910390fd5b610c2681610c29565b50565b60008060009054906101000a900473ffffffffffffffffffffffffffffffffffffffff169050816000806101000a81548173ffffffffffffffffffffffffffffffffffffffff021916908373ffffffffffffffffffffffffffffffffffffffff1602179055508173ffffffffffffffffffffffffffffffffffffffff168173ffffffffffffffffffffffffffffffffffffffff167f8be0079c531659141344cd1fd0a4f28419497f9722a3daafe3b4186f6b6457e060405160405180910390a35050565b600080fd5b600080fd5b600073ffffffffffffffffffffffffffffffffffffffff82169050919050565b6000610d2282610cf7565b9050919050565b610d3281610d17565b8114610d3d57600080fd5b50565b600081359050610d4f81610d29565b92915050565b600060208284031215610d6b57610d6a610ced565b5b6000610d7984828501610d40565b91505092915050565b60008115159050919050565b610d9781610d82565b82525050565b6000602082019050610db26000830184610d8e565b92915050565b600081519050919050565b600082825260208201905092915050565b60005b83811015610df2578082015181840152602081019050610dd7565b60008484015250505050565b6000601f19601f8301169050919050565b6000610e1a82610db8565b610e248185610dc3565b9350610e34818560208601610dd4565b610e3d81610dfe565b840191505092915050565b600060ff82169050919050565b610e5e81610e48565b82525050565b7f4e487b7100000000000000000000000000000000000000000000000000000000600052602160045260246000fd5b60038110610ea457610ea3610e64565b5b50565b6000819050610eb582610e93565b919050565b6000610ec582610ea7565b9050919050565b610ed581610eba565b82525050565b6000608082019050610ef06000830187610d8e565b8181036020830152610f028186610e0f565b9050610f116040830185610e55565b610f1e6060830184610ecc565b95945050505050565b6000602082019050610f3c6000830184610e55565b92915050565b6000602082019050610f576000830184610ecc565b92915050565b610f6681610d17565b82525050565b6000602082019050610f816000830184610f5d565b92915050565b610f9081610e48565b8114610f9b57600080fd5b50565b600081359050610fad81610f87565b92915050565b60008060408385031215610fca57610fc9610ced565b5b6000610fd885828601610d40565b9250506020610fe985828601610f9e565b9150509250929050565b600080fd5b600080fd5b600080fd5b60008083601f84011261101857611017610ff3565b5b8235905067ffffffffffffffff81111561103557611034610ff8565b5b60208301915083600182028301111561105157611050610ffd565b5b9250929050565b6003811061106557600080fd5b50565b60008135905061107781611058565b92915050565b61108681610d82565b811461109157600080fd5b50565b6000813590506110a38161107d565b92915050565b60008060008060008060a087890312156110c6576110c5610ced565b5b60006110d489828a01610d40565b965050602087013567ffffffffffffffff8111156110f5576110f4610cf2565b5b61110189828a01611002565b9550955050604061111489828a01610f9e565b935050606061112589828a01611068565b925050608061113689828a01611094565b9150509295509295509295565b7f5075626c697368657252656769737472793a20756e6b6e6f776e000000000000600082015250565b6000611179601a83610dc3565b915061118482611143565b602082019050919050565b600060208201905081810360008301526111a88161116c565b9050919050565b7f4e487b7100000000000000000000000000000000000000000000000000000000600052602260045260246000fd5b600060028204905060018216806111f657607f821691505b602082108103611209576112086111af565b5b50919050565b7f5075626c697368657252656769737472793a206e6f74206f776e657200000000600082015250565b6000611245601c83610dc3565b91506112508261120f565b602082019050919050565b6000602082019050818103600083015261127481611238565b9050919050565b7f5075626c697368657252656769737472793a207a65726f206164647265737300600082015250565b60006112b1601f83610dc3565b91506112bc8261127b565b602082019050919050565b600060208201905081810360008301526112e0816112a4565b9050919050565b7f5075626c697368657252656769737472793a206c6162656c207265717569726560008201527f6400000000000000000000000000000000000000000000000000000000000000602082015250565b6000611343602183610dc3565b915061134e826112e7565b604082019050919050565b6000602082019050818103600083015261137281611336565b9050919050565b7f5075626c697368657252656769737472793a20726f6c6573207265717569726560008201527f6400000000000000000000000000000000000000000000000000000000000000602082015250565b60006113d5602183610dc3565b91506113e082611379565b604082019050919050565b60006020820190508181036000830152611404816113c8565b9050919050565b7f5075626c697368657252656769737472793a207265766965776572206b696e6460008201527f20776974686f757420726f6c6500000000000000000000000000000000000000602082015250565b6000611467602d83610dc3565b91506114728261140b565b604082019050919050565b600060208201905081810360008301526114968161145a565b9050919050565b600082905092915050565b7f4e487b7100000000000000000000000000000000000000000000000000000000600052604160045260246000fd5b60008190508160005260206000209050919050565b60006020601f8301049050919050565b600082821b905092915050565b6000600883026115397fffffffffffffffffffffffffffffffffffffffffffffffffffffffffffffffff826114fc565b61154386836114fc565b95508019841693508086168417925050509392505050565b6000819050919050565b6000819050919050565b600061158a6115856115808461155b565b611565565b61155b565b9050919050565b6000819050919050565b6115a48361156f565b6115b86115b082611591565b848454611509565b825550505050565b600090565b6115cd6115c0565b6115d881848461159b565b505050565b5b818110156115fc576115f16000826115c5565b6001810190506115de565b5050565b601f82111561164157611612816114d7565b61161b846114ec565b8101602085101561162a578190505b61163e611636856114ec565b8301826115dd565b50505b505050565b600082821c905092915050565b600061166460001984600802611646565b1980831691505092915050565b600061167d8383611653565b9150826002028217905092915050565b611697838361149d565b67ffffffffffffffff8111156116b0576116af6114a8565b5b6116ba82546111de565b6116c5828285611600565b6000601f8311600181146116f457600084156116e2578287013590505b6116ec8582611671565b865550611754565b601f198416611702866114d7565b60005b8281101561172a57848901358255600182019150602085019450602081019050611705565b868310156117475784890135611743601f891682611653565b8355505b6001600288020188555050505b50505050505050565b82818337600083830152505050565b60006117788385610dc3565b935061178583858461175d565b61178e83610dfe565b840190509392505050565b600060808201905081810360008301526117b481878961176c565b90506117c36020830186610e55565b6117d06040830185610ecc565b6117dd6060830184610d8e565b9695505050505050565b7f5075626c697368657252656769737472793a207a65726f206f776e6572000000600082015250565b600061181d601d83610dc3565b9150611828826117e7565b602082019050919050565b6000602082019050818103600083015261184c81611810565b905091905056fea26469706673582212203d20a0f15b8ef901d0cc1de34b99ee1203a1a0f4e13b3b8fca24b754859e1fa564736f6c63430008140033",
  "linkReferences": {},
  "deployedLinkReferences": {}
}