{
  "_format": "hh-sol-artifact-1",
  "contractName": "PolicyDataView",
  "sourceName": "contracts/PolicyDataView.sol",
  "abi": [
    {
      "inputs": [
        {
          "internalType": "contract OpenDataRegistry",
          "name": "dataRegistry",
          "type": "address"
        },
        {
          "internalType": "contract AttestationRegistry",
          "name": "attestRegistry",
          "type": "address"
        }
      ],
      "stateMutability": "nonpayable",
      "type": "constructor"
    },
    {
      "inputs": [],
      "name": "attestationRegistry",
      "outputs": [
        {
          "internalType": "contract AttestationRegistry",
          "name": "",
          "type": "address"
        }
      ],
      "stateMutability": "view",
      "type": "function"
    },
    {
      "inputs": [
        {
          "internalType": "string",
          "name": "stationId",
          "type": "string"
        }
      ],
      "name": "latestAttestedProof",
      "outputs": [
        {
          "internalType": "bytes32",
          "name": "",
          "type": "bytes32"
        }
      ],
      "stateMutability": "view",
      "type": "function"
    },
    {
      "inputs": [],
      "name": "openDataRegistry",
      "outputs": [
        {
          "internalType": "contract OpenDataRegistry",
          "name": "",
          "type": "address"
        }
      ],
      "stateMutability": "view",
      "type": "function"
    },
    {
      "inputs": [
        {
          "internalType": "bytes32",
          "name": "proofId",
          "type": "bytes32"
        }
      ],
      "name": "readProof",
      "outputs": [
        {
          "components": [
            {
              "internalType": "bytes32",
              "name": "contentHash",
              "type": "bytes32"
            },
            {
              "internalType": "bytes32",
              "name": "metadataHash",
              "type": "bytes32"
            },
            {
              "internalType": "address",
              "name": "publisher",
              "type": "address"
            },
            {
              "internalType": "uint64",
              "name": "publishedAt",
              "type": "uint64"
            },
            {
              "internalType": "string",
              "name": "uri",
              "type": "string"
            },
            {
              "internalType": "string",
              "name": "version",
              "type": "string"
            },
            {
              "internalType": "string",
              "name": "stationId",
              "type": "string"
            },
            {
              "internalType": "enum OpenDataRegistry.ProofStatus",
              "name": "status",
              "type": "uint8"
            }
          ],
          "internalType": "struct OpenDataRegistry.Proof",
          "name": "proof",
          "type": "tuple"
        },
        {
          "components": [
            {
              "internalType": "address",
              "name": "auditor",
              "type": "address"
            },
            {
              "internalType": "string",
              "name": "reason",
              "type": "string"
            },
            {
              "internalType": "uint64",
              "name": "revokedAt",
              "type": "uint64"
            }
          ],
          "internalType": "struct OpenDataRegistry.Revocation",
          "name": "revocation",
          "type": "tuple"
        }
      ],
      "stateMutability": "view",
      "type": "function"
    },
    {
      "inputs": [
        {
          "internalType": "bytes32",
          "name": "proofId",
          "type": "bytes32"
        }
      ],
      "name": "trustScore",
      "outputs": [
        {
          "internalType": "uint256",
          "name": "",
          "type": "uint256"
        }
      ],
      "stateMutability": "view",
      "type": "function"
    },
    {
      "inputs": [
        {
          "internalType": "bytes32",
          "name": "proofId",
          "type": "bytes32"
        }
      ],
      "name": "trustTier",
      "outputs": [
        {
          "internalType": "enum PolicyDataView.TrustTier",
          "name": "",
          "type": "uint8"
        }
      ],
      "stateMutability": "view",
      "type": "function"
    }
  ],
  "bytecode": "0x60c06040523480156200001157600080fd5b50604051620018b4380380620018b483398181016040528101906200003791906200024e565b600073ffffffffffffffffffffffffffffffffffffffff168273ffffffffffffffffffffffffffffffffffffffff1603620000a9576040517f08c379a0000000000000000000000000000000000000000000000000000000008152600401620000a0906200031c565b60405180910390fd5b600073ffffffffffffffffffffffffffffffffffffffff168173ffffffffffffffffffffffffffffffffffffffff16036200011b576040517f08c379a00000000000000000000000000000000000000000000000000000000081526004016200011290620003b4565b60405180910390fd5b8173ffffffffffffffffffffffffffffffffffffffff1660808173ffffffffffffffffffffffffffffffffffffffff16815250508073ffffffffffffffffffffffffffffffffffffffff1660a08173ffffffffffffffffffffffffffffffffffffffff16815250505050620003d6565b600080fd5b600073ffffffffffffffffffffffffffffffffffffffff82169050919050565b6000620001bd8262000190565b9050919050565b6000620001d182620001b0565b9050919050565b620001e381620001c4565b8114620001ef57600080fd5b50565b6000815190506200020381620001d8565b92915050565b60006200021682620001b0565b9050919050565b620002288162000209565b81146200023457600080fd5b50565b60008151905062000248816200021d565b92915050565b600080604083850312156200026857620002676200018b565b5b60006200027885828601620001f2565b92505060206200028b8582860162000237565b9150509250929050565b600082825260208201905092915050565b7f506f6c69637944617461566965773a206461746120726567697374727920726560008201527f7175697265640000000000000000000000000000000000000000000000000000602082015250565b60006200030460268362000295565b91506200031182620002a6565b604082019050919050565b600060208201905081810360008301526200033781620002f5565b9050919050565b7f506f6c69637944617461566965773a206174746573746174696f6e207265676960008201527f7374727920726571756972656400000000000000000000000000000000000000602082015250565b60006200039c602d8362000295565b9150620003a9826200033e565b604082019050919050565b60006020820190508181036000830152620003cf816200038d565b9050919050565b60805160a05161148e6200042660003960008181610372015281816105d6015261076d0152600081816101660152818161018c015281816102330152818161048c015261052d015261148e6000f3fe608060405234801561001057600080fd5b50600436106100625760003560e01c8063174a76b51461006757806325e9b756146100855780633ef266ae146100b5578063470d7a2f146100e5578063b93afd0a14610116578063ed6d73f914610146575b600080fd5b61006f610164565b60405161007c91906108cc565b60405180910390f35b61009f600480360381019061009a9190610960565b610188565b6040516100ac91906109c6565b60405180910390f35b6100cf60048036038101906100ca9190610a0d565b61022e565b6040516100dc9190610ab1565b60405180910390f35b6100ff60048036038101906100fa9190610a0d565b61047a565b60405161010d929190610d05565b60405180910390f35b610130600480360381019061012b9190610a0d565b6105d1565b60405161013d9190610d55565b60405180910390f35b61014e61076b565b60405161015b9190610d91565b60405180910390f35b7f000000000000000000000000000000000000000000000000000000000000000081565b60007f000000000000000000000000000000000000000000000000000000000000000073ffffffffffffffffffffffffffffffffffffffff16634c5a3fda84846040518363ffffffff1660e01b81526004016101e5929190610df9565b602060405180830381865afa158015610202573d6000803e3d6000fd5b505050506040513d601f19601f820116820180604052508101906102269190610e32565b905092915050565b6000807f000000000000000000000000000000000000000000000000000000000000000073ffffffffffffffffffffffffffffffffffffffff1663c7df14e2846040518263ffffffff1660e01b815260040161028a91906109c6565b602060405180830381865afa1580156102a7573d6000803e3d6000fd5b505050506040513d601f19601f820116820180604052508101906102cb9190610e84565b9050600060038111156102e1576102e0610a3a565b5b8160038111156102f4576102f3610a3a565b5b03610303576000915050610475565b60038081111561031657610315610a3a565b5b81600381111561032957610328610a3a565b5b03610338576005915050610475565b6001600381111561034c5761034b610a3a565b5b81600381111561035f5761035e610a3a565b5b0361036e576001915050610475565b60007f000000000000000000000000000000000000000000000000000000000000000073ffffffffffffffffffffffffffffffffffffffff16632164949e856040518263ffffffff1660e01b81526004016103c991906109c6565b60a060405180830381865afa1580156103e6573d6000803e3d6000fd5b505050506040513d601f19601f8201168201806040525081019061040a9190611058565b90506000610417856105d1565b905081606001511561042f5760049350505050610475565b6046811015801561044857506001826020015160ff1610155b801561045c57506001826040015160ff1610155b1561046d5760039350505050610475565b600293505050505b919050565b61048261078f565b61048a61080c565b7f000000000000000000000000000000000000000000000000000000000000000073ffffffffffffffffffffffffffffffffffffffff1663bcfb013f846040518263ffffffff1660e01b81526004016104e391906109c6565b600060405180830381865afa158015610500573d6000803e3d6000fd5b505050506040513d6000823e3d601f19601f8201168201806040525081019061052991906112a1565b91507f000000000000000000000000000000000000000000000000000000000000000073ffffffffffffffffffffffffffffffffffffffff1663b35d6315846040518263ffffffff1660e01b815260040161058491906109c6565b600060405180830381865afa1580156105a1573d6000803e3d6000fd5b505050506040513d6000823e3d601f19601f820116820180604052508101906105ca919061136a565b9050915091565b6000807f000000000000000000000000000000000000000000000000000000000000000073ffffffffffffffffffffffffffffffffffffffff16632164949e846040518263ffffffff1660e01b815260040161062d91906109c6565b60a060405180830381865afa15801561064a573d6000803e3d6000fd5b505050506040513d601f19601f8201168201806040525081019061066e9190611058565b905060006023826020015160ff1661068691906113e2565b816106919190611424565b90506019826040015160ff166106a791906113e2565b816106b29190611424565b9050600160038111156106c8576106c7610a3a565b5b826080015160038111156106df576106de610a3a565b5b036106f857600f816106f19190611424565b9050610739565b6002600381111561070c5761070b610a3a565b5b8260800151600381111561072357610722610a3a565b5b03610738576005816107359190611424565b90505b5b816060015115610753576014816107509190611424565b90505b606481111561076157606490505b8092505050919050565b7f000000000000000000000000000000000000000000000000000000000000000081565b6040518061010001604052806000801916815260200160008019168152602001600073ffffffffffffffffffffffffffffffffffffffff168152602001600067ffffffffffffffff1681526020016060815260200160608152602001606081526020016000600381111561080657610805610a3a565b5b81525090565b6040518060600160405280600073ffffffffffffffffffffffffffffffffffffffff16815260200160608152602001600067ffffffffffffffff1681525090565b600073ffffffffffffffffffffffffffffffffffffffff82169050919050565b6000819050919050565b600061089261088d6108888461084d565b61086d565b61084d565b9050919050565b60006108a482610877565b9050919050565b60006108b682610899565b9050919050565b6108c6816108ab565b82525050565b60006020820190506108e160008301846108bd565b92915050565b6000604051905090565b600080fd5b600080fd5b600080fd5b600080fd5b600080fd5b60008083601f8401126109205761091f6108fb565b5b8235905067ffffffffffffffff81111561093d5761093c610900565b5b60208301915083600182028301111561095957610958610905565b5b9250929050565b60008060208385031215610977576109766108f1565b5b600083013567ffffffffffffffff811115610995576109946108f6565b5b6109a18582860161090a565b92509250509250929050565b6000819050919050565b6109c0816109ad565b82525050565b60006020820190506109db60008301846109b7565b92915050565b6109ea816109ad565b81146109f557600080fd5b50565b600081359050610a07816109e1565b92915050565b600060208284031215610a2357610a226108f1565b5b6000610a31848285016109f8565b91505092915050565b7f4e487b7100000000000000000000000000000000000000000000000000000000600052602160045260246000fd5b60068110610a7a57610a79610a3a565b5b50565b6000819050610a8b82610a69565b919050565b6000610a9b82610a7d565b9050919050565b610aab81610a90565b82525050565b6000602082019050610ac66000830184610aa2565b92915050565b610ad5816109ad565b82525050565b6000610ae68261084d565b9050919050565b610af681610adb565b82525050565b600067ffffffffffffffff82169050919050565b610b1981610afc565b82525050565b600081519050919050565b600082825260208201905092915050565b60005b83811015610b59578082015181840152602081019050610b3e565b60008484015250505050565b6000601f19601f8301169050919050565b6000610b8182610b1f565b610b8b8185610b2a565b9350610b9b818560208601610b3b565b610ba481610b65565b840191505092915050565b60048110610bc057610bbf610a3a565b5b50565b6000819050610bd182610baf565b919050565b6000610be182610bc3565b9050919050565b610bf181610bd6565b82525050565b600061010083016000830151610c106000860182610acc565b506020830151610c236020860182610acc565b506040830151610c366040860182610aed565b506060830151610c496060860182610b10565b5060808301518482036080860152610c618282610b76565b91505060a083015184820360a0860152610c7b8282610b76565b91505060c083015184820360c0860152610c958282610b76565b91505060e0830151610caa60e0860182610be8565b508091505092915050565b6000606083016000830151610ccd6000860182610aed565b5060208301518482036020860152610ce58282610b76565b9150506040830151610cfa6040860182610b10565b508091505092915050565b60006040820190508181036000830152610d1f8185610bf7565b90508181036020830152610d338184610cb5565b90509392505050565b6000819050919050565b610d4f81610d3c565b82525050565b6000602082019050610d6a6000830184610d46565b92915050565b6000610d7b82610899565b9050919050565b610d8b81610d70565b82525050565b6000602082019050610da66000830184610d82565b92915050565b600082825260208201905092915050565b82818337600083830152505050565b6000610dd88385610dac565b9350610de5838584610dbd565b610dee83610b65565b840190509392505050565b60006020820190508181036000830152610e14818486610dcc565b90509392505050565b600081519050610e2c816109e1565b92915050565b600060208284031215610e4857610e476108f1565b5b6000610e5684828501610e1d565b91505092915050565b60048110610e6c57600080fd5b50565b600081519050610e7e81610e5f565b92915050565b600060208284031215610e9a57610e996108f1565b5b6000610ea884828501610e6f565b91505092915050565b600080fd5b7f4e487b7100000000000000000000000000000000000000000000000000000000600052604160045260246000fd5b610eee82610b65565b810181811067ffffffffffffffff82111715610f0d57610f0c610eb6565b5b80604052505050565b6000610f206108e7565b9050610f2c8282610ee5565b919050565b600080fd5b600060ff82169050919050565b610f4c81610f36565b8114610f5757600080fd5b50565b600081519050610f6981610f43565b92915050565b60008115159050919050565b610f8481610f6f565b8114610f8f57600080fd5b50565b600081519050610fa181610f7b565b92915050565b60048110610fb457600080fd5b50565b600081519050610fc681610fa7565b92915050565b600060a08284031215610fe257610fe1610eb1565b5b610fec60a0610f16565b90506000610ffc84828501610f5a565b600083015250602061101084828501610f5a565b602083015250604061102484828501610f5a565b604083015250606061103884828501610f92565b606083015250608061104c84828501610fb7565b60808301525092915050565b600060a0828403121561106e5761106d6108f1565b5b600061107c84828501610fcc565b91505092915050565b61108e81610adb565b811461109957600080fd5b50565b6000815190506110ab81611085565b92915050565b6110ba81610afc565b81146110c557600080fd5b50565b6000815190506110d7816110b1565b92915050565b600080fd5b600067ffffffffffffffff8211156110fd576110fc610eb6565b5b61110682610b65565b9050602081019050919050565b6000611126611121846110e2565b610f16565b905082815260208101848484011115611142576111416110dd565b5b61114d848285610b3b565b509392505050565b600082601f83011261116a576111696108fb565b5b815161117a848260208601611113565b91505092915050565b6000610100828403121561119a57611199610eb1565b5b6111a5610100610f16565b905060006111b584828501610e1d565b60008301525060206111c984828501610e1d565b60208301525060406111dd8482850161109c565b60408301525060606111f1848285016110c8565b606083015250608082015167ffffffffffffffff81111561121557611214610f31565b5b61122184828501611155565b60808301525060a082015167ffffffffffffffff81111561124557611244610f31565b5b61125184828501611155565b60a08301525060c082015167ffffffffffffffff81111561127557611274610f31565b5b61128184828501611155565b60c08301525060e061129584828501610e6f565b60e08301525092915050565b6000602082840312156112b7576112b66108f1565b5b600082015167ffffffffffffffff8111156112d5576112d46108f6565b5b6112e184828501611183565b91505092915050565b600060608284031215611300576112ff610eb1565b5b61130a6060610f16565b9050600061131a8482850161109c565b600083015250602082015167ffffffffffffffff81111561133e5761133d610f31565b5b61134a84828501611155565b602083015250604061135e848285016110c8565b60408301525092915050565b6000602082840312156113805761137f6108f1565b5b600082015167ffffffffffffffff81111561139e5761139d6108f6565b5b6113aa848285016112ea565b91505092915050565b7f4e487b7100000000000000000000000000000000000000000000000000000000600052601160045260246000fd5b60006113ed82610d3c565b91506113f883610d3c565b925082820261140681610d3c565b9150828204841483151761141d5761141c6113b3565b5b5092915050565b600061142f82610d3c565b915061143a83610d3c565b9250828201905080821115611452576114516113b3565b5b9291505056fea26469706673582212201ee0d86be3a9b7161ceba39509d7cf067eb7cdda80a6812da1f4fd1e9d53097064736f6c63430008140033",
  "linkReferences": {},
  "deployedLinkReferences": {}
}