{
  "_format": "hh-sol-artifact-1",
  "contractName": "PolicyDataViewAdapter",
  "sourceName": "contracts/programs/phase1_adapters/PolicyDataViewAdapter.sol",
  "abi": [
    {
      "inputs": [
        {
          "internalType": "address",
          "name": "openDataRegistry_",
          "type": "address"
        }
      ],
      "stateMutability": "nonpayable",
      "type": "constructor"
    },
    {
      "inputs": [
        {
          "internalType": "bytes32",
          "name": "proofId",
          "type": "bytes32"
        }
      ],
      "name": "getProof",
      "outputs": [
        {
          "internalType": "bytes32",
          "name": "",
          "type": "bytes32"
        },
        {
          "internalType": "bytes32",
          "name": "",
          "type": "bytes32"
        },
        {
          "internalType": "address",
          "name": "",
          "type": "address"
        },
        {
          "internalType": "uint64",
          "name": "",
          "type": "uint64"
        },
        {
          "internalType": "string",
          "name": "",
          "type": "string"
        },
        {
          "internalType": "string",
          "name": "",
          "type": "string"
        },
        {
          "internalType": "string",
          "name": "",
          "type": "string"
        },
        {
          "internalType": "uint8",
          "name": "",
          "type": "uint8"
        }
      ],
      "stateMutability": "view",
      "type": "function"
    },
    {
      "inputs": [],
      "name": "openDataRegistry",
      "outputs": [
        {
          "internalType": "contract IOpenDataRegistry",
          "name": "",
          "type": "address"
        }
      ],
      "stateMutability": "view",
      "type": "function"
    }
  ],
  "bytecode": "0x60a060405234801561001057600080fd5b506040516109403803806109408339818101604052810190610032919061013e565b600073ffffffffffffffffffffffffffffffffffffffff168173ffffffffffffffffffffffffffffffffffffffff16036100a1576040517f08c379a0000000000000000000000000000000000000000000000000000000008152600401610098906101c8565b60405180910390fd5b8073ffffffffffffffffffffffffffffffffffffffff1660808173ffffffffffffffffffffffffffffffffffffffff1681525050506101e8565b600080fd5b600073ffffffffffffffffffffffffffffffffffffffff82169050919050565b600061010b826100e0565b9050919050565b61011b81610100565b811461012657600080fd5b50565b60008151905061013881610112565b92915050565b600060208284031215610154576101536100db565b5b600061016284828501610129565b91505092915050565b600082825260208201905092915050565b7f496e76616c6964204f4452206164647265737300000000000000000000000000600082015250565b60006101b260138361016b565b91506101bd8261017c565b602082019050919050565b600060208201905081810360008301526101e1816101a5565b9050919050565b608051610738610208600039600081816092015260c301526107386000f3fe608060405234801561001057600080fd5b50600436106100365760003560e01c8063174a76b51461003b5780631b80bb3a14610059575b600080fd5b610043610090565b60405161005091906101fa565b60405180910390f35b610073600480360381019061006e919061025f565b6100b4565b60405161008798979695949392919061038b565b60405180910390f35b7f000000000000000000000000000000000000000000000000000000000000000081565b600080600080606080606060007f000000000000000000000000000000000000000000000000000000000000000073ffffffffffffffffffffffffffffffffffffffff16631b80bb3a8a6040518263ffffffff1660e01b815260040161011a919061041e565b600060405180830381865afa158015610137573d6000803e3d6000fd5b505050506040513d6000823e3d601f19601f8201168201806040525081019061016091906105f8565b97509750975097509750975097509750919395975091939597565b600073ffffffffffffffffffffffffffffffffffffffff82169050919050565b6000819050919050565b60006101c06101bb6101b68461017b565b61019b565b61017b565b9050919050565b60006101d2826101a5565b9050919050565b60006101e4826101c7565b9050919050565b6101f4816101d9565b82525050565b600060208201905061020f60008301846101eb565b92915050565b6000604051905090565b600080fd5b600080fd5b6000819050919050565b61023c81610229565b811461024757600080fd5b50565b60008135905061025981610233565b92915050565b6000602082840312156102755761027461021f565b5b60006102838482850161024a565b91505092915050565b61029581610229565b82525050565b60006102a68261017b565b9050919050565b6102b68161029b565b82525050565b600067ffffffffffffffff82169050919050565b6102d9816102bc565b82525050565b600081519050919050565b600082825260208201905092915050565b60005b838110156103195780820151818401526020810190506102fe565b60008484015250505050565b6000601f19601f8301169050919050565b6000610341826102df565b61034b81856102ea565b935061035b8185602086016102fb565b61036481610325565b840191505092915050565b600060ff82169050919050565b6103858161036f565b82525050565b6000610100820190506103a1600083018b61028c565b6103ae602083018a61028c565b6103bb60408301896102ad565b6103c860608301886102d0565b81810360808301526103da8187610336565b905081810360a08301526103ee8186610336565b905081810360c08301526104028185610336565b905061041160e083018461037c565b9998505050505050505050565b6000602082019050610433600083018461028c565b92915050565b60008151905061044881610233565b92915050565b6104578161029b565b811461046257600080fd5b50565b6000815190506104748161044e565b92915050565b610483816102bc565b811461048e57600080fd5b50565b6000815190506104a08161047a565b92915050565b600080fd5b600080fd5b7f4e487b7100000000000000000000000000000000000000000000000000000000600052604160045260246000fd5b6104e882610325565b810181811067ffffffffffffffff82111715610507576105066104b0565b5b80604052505050565b600061051a610215565b905061052682826104df565b919050565b600067ffffffffffffffff821115610546576105456104b0565b5b61054f82610325565b9050602081019050919050565b600061056f61056a8461052b565b610510565b90508281526020810184848401111561058b5761058a6104ab565b5b6105968482856102fb565b509392505050565b600082601f8301126105b3576105b26104a6565b5b81516105c384826020860161055c565b91505092915050565b6105d58161036f565b81146105e057600080fd5b50565b6000815190506105f2816105cc565b92915050565b600080600080600080600080610100898b0312156106195761061861021f565b5b60006106278b828c01610439565b98505060206106388b828c01610439565b97505060406106498b828c01610465565b965050606061065a8b828c01610491565b955050608089015167ffffffffffffffff81111561067b5761067a610224565b5b6106878b828c0161059e565b94505060a089015167ffffffffffffffff8111156106a8576106a7610224565b5b6106b48b828c0161059e565b93505060c089015167ffffffffffffffff8111156106d5576106d4610224565b5b6106e18b828c0161059e565b92505060e06106f28b828c016105e3565b915050929598509295989093965056fea2646970667358221220641dd2d29960afd5214230c289c0b780853c23dc6d659b4adf3f81c3d9dc12ff64736f6c63430008140033",
  "linkReferences": {},
  "deployedLinkReferences": {}
}