{
  "_format": "hh-sol-artifact-1",
  "contractName": "ProgramModule_Fixed",
  "sourceName": "contracts/programs/modules/ProgramModule_Fixed.sol",
  "abi": [
    {
      "inputs": [
        {
          "internalType": "contract FundRegistry",
          "name": "registry_",
          "type": "address"
        },
        {
          "internalType": "uint256",
          "name": "programId_",
          "type": "uint256"
        },
        {
          "internalType": "uint256",
          "name": "minCemsValidPermille_",
          "type": "uint256"
        }
      ],
      "stateMutability": "nonpayable",
      "type": "constructor"
    },
    {
      "inputs": [],
      "name": "InvalidAmount",
      "type": "error"
    },
    {
      "inputs": [],
      "name": "InvalidRecipient",
      "type": "error"
    },
    {
      "inputs": [
        {
          "internalType": "bytes32",
          "name": "proofId",
          "type": "bytes32"
        }
      ],
      "name": "NotEligible",
      "type": "error"
    },
    {
      "inputs": [
        {
          "internalType": "bytes32",
          "name": "proofId",
          "type": "bytes32"
        }
      ],
      "name": "ProofAlreadyConsumed",
      "type": "error"
    },
    {
      "anonymous": false,
      "inputs": [
        {
          "indexed": true,
          "internalType": "uint256",
          "name": "programId",
          "type": "uint256"
        },
        {
          "indexed": true,
          "internalType": "bytes32",
          "name": "proofId",
          "type": "bytes32"
        },
        {
          "indexed": true,
          "internalType": "address",
          "name": "recipient",
          "type": "address"
        },
        {
          "indexed": false,
          "internalType": "uint256",
          "name": "amountNTD",
          "type": "uint256"
        }
      ],
      "name": "EligibilityIssued",
      "type": "event"
    },
    {
      "anonymous": false,
      "inputs": [
        {
          "indexed": true,
          "internalType": "uint256",
          "name": "programId",
          "type": "uint256"
        },
        {
          "indexed": true,
          "internalType": "bytes32",
          "name": "proofId",
          "type": "bytes32"
        },
        {
          "indexed": true,
          "internalType": "address",
          "name": "recipient",
          "type": "address"
        },
        {
          "indexed": false,
          "internalType": "uint256",
          "name": "amountNTD",
          "type": "uint256"
        }
      ],
      "name": "PayoutExecuted",
      "type": "event"
    },
    {
      "inputs": [
        {
          "components": [
            {
              "internalType": "bytes32",
              "name": "proofId",
              "type": "bytes32"
            },
            {
              "internalType": "address",
              "name": "recipient",
              "type": "address"
            },
            {
              "internalType": "uint256",
              "name": "amountNTD",
              "type": "uint256"
            },
            {
              "internalType": "uint256",
              "name": "coveragePermille",
              "type": "uint256"
            },
            {
              "internalType": "uint256",
              "name": "eventsProcessed",
              "type": "uint256"
            },
            {
              "internalType": "uint256",
              "name": "cemsValidPermille",
              "type": "uint256"
            },
            {
              "internalType": "uint256",
              "name": "pm25x10",
              "type": "uint256"
            }
          ],
          "internalType": "struct ProgramModule_Base.EvaluationProof",
          "name": "proof",
          "type": "tuple"
        }
      ],
      "name": "evaluate",
      "outputs": [
        {
          "internalType": "bool",
          "name": "",
          "type": "bool"
        }
      ],
      "stateMutability": "nonpayable",
      "type": "function"
    },
    {
      "inputs": [
        {
          "internalType": "bytes32",
          "name": "proofId",
          "type": "bytes32"
        }
      ],
      "name": "hasConsumed",
      "outputs": [
        {
          "internalType": "bool",
          "name": "",
          "type": "bool"
        }
      ],
      "stateMutability": "view",
      "type": "function"
    },
    {
      "inputs": [],
      "name": "minCemsValidPermille",
      "outputs": [
        {
          "internalType": "uint256",
          "name": "",
          "type": "uint256"
        }
      ],
      "stateMutability": "view",
      "type": "function"
    },
    {
      "inputs": [],
      "name": "programId",
      "outputs": [
        {
          "internalType": "uint256",
          "name": "",
          "type": "uint256"
        }
      ],
      "stateMutability": "view",
      "type": "function"
    },
    {
      "inputs": [],
      "name": "registry",
      "outputs": [
        {
          "internalType": "contract FundRegistry",
          "name": "",
          "type": "address"
        }
      ],
      "stateMutability": "view",
      "type": "function"
    }
  ],
  "bytecode": "0x60e060405234801561001057600080fd5b50604051610a42380380610a428339818101604052810190610032919061012d565b82828173ffffffffffffffffffffffffffffffffffffffff1660808173ffffffffffffffffffffffffffffffffffffffff16815250508060a0818152505050508060c08181525050505050610180565b600080fd5b600073ffffffffffffffffffffffffffffffffffffffff82169050919050565b60006100b282610087565b9050919050565b60006100c4826100a7565b9050919050565b6100d4816100b9565b81146100df57600080fd5b50565b6000815190506100f1816100cb565b92915050565b6000819050919050565b61010a816100f7565b811461011557600080fd5b50565b60008151905061012781610101565b92915050565b60008060006060848603121561014657610145610082565b5b6000610154868287016100e2565b935050602061016586828701610118565b925050604061017686828701610118565b9150509250925092565b60805160a05160c0516108706101d2600039600081816104dc015261052b0152600081816102ed015281816103810152818161043201526104b8015260008181610345015261049401526108706000f3fe608060405234801561001057600080fd5b50600436106100575760003560e01c8063267030711461005c5780637b1039991461008c57806398812da8146100aa578063de4ee69d146100c8578063e55faa91146100e6575b600080fd5b6100766004803603810190610071919061058f565b610116565b60405161008391906105d7565b60405180910390f35b610094610492565b6040516100a19190610671565b60405180910390f35b6100b26104b6565b6040516100bf91906106a5565b60405180910390f35b6100d06104da565b6040516100dd91906106a5565b60405180910390f35b61010060048036038101906100fb91906106f6565b6104fe565b60405161010d91906105d7565b60405180910390f35b60008073ffffffffffffffffffffffffffffffffffffffff168260200160208101906101429190610761565b73ffffffffffffffffffffffffffffffffffffffff160361018f576040517f9c8d2cd200000000000000000000000000000000000000000000000000000000815260040160405180910390fd5b6000808360000135815260200190815260200160002060009054906101000a900460ff16156101f95781600001356040517ffab54c750000000000000000000000000000000000000000000000000000000081526004016101f0919061079d565b60405180910390fd5b61020282610527565b6102475781600001356040517f267e72d200000000000000000000000000000000000000000000000000000000815260040161023e919061079d565b60405180910390fd5b600061025283610558565b90506000810361028e576040517f2c5211c600000000000000000000000000000000000000000000000000000000815260040160405180910390fd5b60016000808560000135815260200190815260200160002060006101000a81548160ff0219169083151502179055508260200160208101906102d09190610761565b73ffffffffffffffffffffffffffffffffffffffff1683600001357f00000000000000000000000000000000000000000000000000000000000000007f043b3cee5744e37d76c9a376b11c2427cc9e9b2c4f7e48694ed9ba390adc28478460405161033b91906106a5565b60405180910390a47f000000000000000000000000000000000000000000000000000000000000000073ffffffffffffffffffffffffffffffffffffffff16634ccb80337f0000000000000000000000000000000000000000000000000000000000000000836040518363ffffffff1660e01b81526004016103be9291906107b8565b6020604051808303816000875af11580156103dd573d6000803e3d6000fd5b505050506040513d601f19601f82011682018060405250810190610401919061080d565b508260200160208101906104159190610761565b73ffffffffffffffffffffffffffffffffffffffff1683600001357f00000000000000000000000000000000000000000000000000000000000000007f0f2ea0a74181d7700ed2292591f608309e18d84a8dc664ead83b9482e72791468460405161048091906106a5565b60405180910390a46001915050919050565b7f000000000000000000000000000000000000000000000000000000000000000081565b7f000000000000000000000000000000000000000000000000000000000000000081565b7f000000000000000000000000000000000000000000000000000000000000000081565b600080600083815260200190815260200160002060009054906101000a900460ff169050919050565b60007f00000000000000000000000000000000000000000000000000000000000000008260a0013510159050919050565b600081604001359050919050565b600080fd5b600080fd5b600060e082840312156105865761058561056b565b5b81905092915050565b600060e082840312156105a5576105a4610566565b5b60006105b384828501610570565b91505092915050565b60008115159050919050565b6105d1816105bc565b82525050565b60006020820190506105ec60008301846105c8565b92915050565b600073ffffffffffffffffffffffffffffffffffffffff82169050919050565b6000819050919050565b600061063761063261062d846105f2565b610612565b6105f2565b9050919050565b60006106498261061c565b9050919050565b600061065b8261063e565b9050919050565b61066b81610650565b82525050565b60006020820190506106866000830184610662565b92915050565b6000819050919050565b61069f8161068c565b82525050565b60006020820190506106ba6000830184610696565b92915050565b6000819050919050565b6106d3816106c0565b81146106de57600080fd5b50565b6000813590506106f0816106ca565b92915050565b60006020828403121561070c5761070b610566565b5b600061071a848285016106e1565b91505092915050565b600061072e826105f2565b9050919050565b61073e81610723565b811461074957600080fd5b50565b60008135905061075b81610735565b92915050565b60006020828403121561077757610776610566565b5b60006107858482850161074c565b91505092915050565b610797816106c0565b82525050565b60006020820190506107b2600083018461078e565b92915050565b60006040820190506107cd6000830185610696565b6107da6020830184610696565b9392505050565b6107ea8161068c565b81146107f557600080fd5b50565b600081519050610807816107e1565b92915050565b60006020828403121561082357610822610566565b5b6000610831848285016107f8565b9150509291505056fea2646970667358221220c674535cfab4ca072dacfb24915f4fd11ef3ba7b00f7eabf2c9c0a955b7995b764736f6c63430008140033",
  "linkReferences": {},
  "deployedLinkReferences": {}
}